{
  "contractName": "AdNetwork",
  "abi": [
    {
      "inputs": [],
      "stateMutability": "nonpayable",
      "type": "constructor"
    },
    {
      "anonymous": false,
      "inputs": [
        {
          "indexed": true,
          "internalType": "uint256",
          "name": "adId",
          "type": "uint256"
        },
        {
          "indexed": false,
          "internalType": "uint256",
          "name": "inventoryId",
          "type": "uint256"
        }
      ],
      "name": "AdApproved",
      "type": "event"
    },
    {
      "anonymous": false,
      "inputs": [
        {
          "indexed": true,
          "internalType": "uint256",
          "name": "inventoryId",
          "type": "uint256"
        },
        {
          "indexed": false,
          "internalType": "uint256",
          "name": "adId",
          "type": "uint256"
        }
      ],
      "name": "AdCreated",
      "type": "event"
    },
    {
      "anonymous": false,
      "inputs": [
        {
          "indexed": true,
          "internalType": "uint256",
          "name": "adId",
          "type": "uint256"
        },
        {
          "indexed": false,
          "internalType": "uint256",
          "name": "inventoryId",
          "type": "uint256"
        }
      ],
      "name": "AdRejected",
      "type": "event"
    },
    {
      "anonymous": false,
      "inputs": [
        {
          "indexed": true,
          "internalType": "uint256",
          "name": "inventoryId",
          "type": "uint256"
        },
        {
          "indexed": false,
          "internalType": "bytes32",
          "name": "requestHash",
          "type": "bytes32"
        },
        {
          "indexed": false,
          "internalType": "bytes32",
          "name": "adHash",
          "type": "bytes32"
        }
      ],
      "name": "AdReviewRequestSent",
      "type": "event"
    },
    {
      "anonymous": false,
      "inputs": [
        {
          "indexed": false,
          "internalType": "uint256",
          "name": "inventoryId",
          "type": "uint256"
        }
      ],
      "name": "InventoryCreated",
      "type": "event"
    },
    {
      "inputs": [
        {
          "internalType": "string",
          "name": "name",
          "type": "string"
        },
        {
          "internalType": "string",
          "name": "uri",
          "type": "string"
        },
        {
          "internalType": "string",
          "name": "publicKey",
          "type": "string"
        },
        {
          "internalType": "uint256",
          "name": "floorPrice",
          "type": "uint256"
        }
      ],
      "name": "createAdInventory",
      "outputs": [
        {
          "internalType": "uint256",
          "name": "",
          "type": "uint256"
        }
      ],
      "stateMutability": "nonpayable",
      "type": "function"
    },
    {
      "inputs": [
        {
          "internalType": "uint256",
          "name": "_inventoryId",
          "type": "uint256"
        }
      ],
      "name": "removeAdInventory",
      "outputs": [],
      "stateMutability": "nonpayable",
      "type": "function"
    },
    {
      "inputs": [
        {
          "internalType": "uint256",
          "name": "_inventoryId",
          "type": "uint256"
        },
        {
          "internalType": "bytes32",
          "name": "_hash",
          "type": "bytes32"
        },
        {
          "internalType": "bytes32",
          "name": "_hashForDelivery",
          "type": "bytes32"
        },
        {
          "internalType": "uint32",
          "name": "_start",
          "type": "uint32"
        },
        {
          "internalType": "uint32",
          "name": "_end",
          "type": "uint32"
        }
      ],
      "name": "createAd",
      "outputs": [
        {
          "internalType": "uint256",
          "name": "",
          "type": "uint256"
        }
      ],
      "stateMutability": "payable",
      "type": "function",
      "payable": true
    },
    {
      "inputs": [
        {
          "internalType": "uint256",
          "name": "_inventoryId",
          "type": "uint256"
        },
        {
          "internalType": "uint256",
          "name": "_adId",
          "type": "uint256"
        }
      ],
      "name": "approveAd",
      "outputs": [],
      "stateMutability": "nonpayable",
      "type": "function"
    },
    {
      "inputs": [
        {
          "internalType": "uint256",
          "name": "_inventoryId",
          "type": "uint256"
        },
        {
          "internalType": "uint256",
          "name": "_adId",
          "type": "uint256"
        }
      ],
      "name": "rejectAd",
      "outputs": [],
      "stateMutability": "nonpayable",
      "type": "function"
    },
    {
      "inputs": [
        {
          "internalType": "uint256",
          "name": "_inventoryId",
          "type": "uint256"
        },
        {
          "internalType": "uint256",
          "name": "_adId",
          "type": "uint256"
        }
      ],
      "name": "collectAd",
      "outputs": [],
      "stateMutability": "nonpayable",
      "type": "function"
    },
    {
      "inputs": [
        {
          "internalType": "uint256",
          "name": "_inventoryId",
          "type": "uint256"
        }
      ],
      "name": "getAdsOf",
      "outputs": [
        {
          "internalType": "uint256[]",
          "name": "adIds",
          "type": "uint256[]"
        },
        {
          "internalType": "uint256[]",
          "name": "inventoryIds",
          "type": "uint256[]"
        },
        {
          "internalType": "bytes32[]",
          "name": "adHashes",
          "type": "bytes32[]"
        },
        {
          "internalType": "bytes32[]",
          "name": "adHashForDeliveries",
          "type": "bytes32[]"
        },
        {
          "internalType": "uint32[]",
          "name": "starts",
          "type": "uint32[]"
        },
        {
          "internalType": "uint32[]",
          "name": "ends",
          "type": "uint32[]"
        }
      ],
      "stateMutability": "view",
      "type": "function",
      "constant": true
    },
    {
      "inputs": [
        {
          "internalType": "address",
          "name": "_ownerAddress",
          "type": "address"
        }
      ],
      "name": "getAdsByOwnerAddress",
      "outputs": [
        {
          "internalType": "uint256[]",
          "name": "adIds",
          "type": "uint256[]"
        },
        {
          "internalType": "uint256[]",
          "name": "inventoryIds",
          "type": "uint256[]"
        },
        {
          "internalType": "bytes32[]",
          "name": "adHashes",
          "type": "bytes32[]"
        },
        {
          "internalType": "uint32[]",
          "name": "starts",
          "type": "uint32[]"
        },
        {
          "internalType": "uint32[]",
          "name": "ends",
          "type": "uint32[]"
        },
        {
          "internalType": "bool[]",
          "name": "approved",
          "type": "bool[]"
        }
      ],
      "stateMutability": "view",
      "type": "function",
      "constant": true
    },
    {
      "inputs": [
        {
          "internalType": "uint256",
          "name": "_inventoryId",
          "type": "uint256"
        }
      ],
      "name": "getAdsWaitingForApprovalOf",
      "outputs": [
        {
          "internalType": "uint256[]",
          "name": "adIds",
          "type": "uint256[]"
        },
        {
          "internalType": "uint256[]",
          "name": "inventoryIds",
          "type": "uint256[]"
        },
        {
          "internalType": "bytes32[]",
          "name": "adHashes",
          "type": "bytes32[]"
        },
        {
          "internalType": "uint32[]",
          "name": "starts",
          "type": "uint32[]"
        },
        {
          "internalType": "uint32[]",
          "name": "ends",
          "type": "uint32[]"
        }
      ],
      "stateMutability": "view",
      "type": "function",
      "constant": true
    },
    {
      "inputs": [
        {
          "internalType": "uint256",
          "name": "_inventoryId",
          "type": "uint256"
        }
      ],
      "name": "getInventory",
      "outputs": [
        {
          "internalType": "uint256",
          "name": "inventoryId",
          "type": "uint256"
        },
        {
          "internalType": "address",
          "name": "owner",
          "type": "address"
        },
        {
          "internalType": "string",
          "name": "name",
          "type": "string"
        },
        {
          "internalType": "string",
          "name": "uri",
          "type": "string"
        },
        {
          "internalType": "string",
          "name": "publicKey",
          "type": "string"
        },
        {
          "internalType": "uint256",
          "name": "floorPrice",
          "type": "uint256"
        }
      ],
      "stateMutability": "view",
      "type": "function",
      "constant": true
    },
    {
      "inputs": [
        {
          "internalType": "uint256",
          "name": "offset",
          "type": "uint256"
        },
        {
          "internalType": "uint256",
          "name": "limit",
          "type": "uint256"
        }
      ],
      "name": "getInventories",
      "outputs": [
        {
          "internalType": "uint256[]",
          "name": "inventoryIds",
          "type": "uint256[]"
        },
        {
          "internalType": "address[]",
          "name": "owners",
          "type": "address[]"
        },
        {
          "internalType": "string[]",
          "name": "names",
          "type": "string[]"
        },
        {
          "internalType": "string[]",
          "name": "uris",
          "type": "string[]"
        },
        {
          "internalType": "string[]",
          "name": "publicKeys",
          "type": "string[]"
        },
        {
          "internalType": "uint256[]",
          "name": "floorPrices",
          "type": "uint256[]"
        }
      ],
      "stateMutability": "view",
      "type": "function",
      "constant": true
    },
    {
      "inputs": [
        {
          "internalType": "uint256",
          "name": "_inventoryId",
          "type": "uint256"
        }
      ],
      "name": "getExpiredAdIds",
      "outputs": [
        {
          "internalType": "uint256[]",
          "name": "",
          "type": "uint256[]"
        }
      ],
      "stateMutability": "view",
      "type": "function",
      "constant": true
    }
  ],
  "bytecode": "0x608060405234801561001057600080fd5b50614fd1806100206000396000f3fe6080604052600436106100a75760003560e01c80635b298d32116100645780635b298d32146101e757806372af45561461022957806383739c301461026b578063e815c06e14610294578063eba58b3e146102c4578063fd58ac9c14610306576100a7565b806304216974146100ac57806313f25e46146100d557806324bfee7d146101165780632e9d3ffb1461015357806331eae2611461017c578063518de44d146101be575b600080fd5b3480156100b857600080fd5b506100d360048036038101906100ce9190613413565b610343565b005b3480156100e157600080fd5b506100fc60048036038101906100f79190613453565b6105f7565b60405161010d9594939291906136d4565b60405180910390f35b34801561012257600080fd5b5061013d60048036038101906101389190613453565b610924565b60405161014a919061374a565b60405180910390f35b34801561015f57600080fd5b5061017a60048036038101906101759190613453565b610af4565b005b34801561018857600080fd5b506101a3600480360381019061019e9190613453565b610c23565b6040516101b59695949392919061376c565b60405180910390f35b3480156101ca57600080fd5b506101e560048036038101906101e09190613413565b610f9c565b005b3480156101f357600080fd5b5061020e60048036038101906102099190613453565b611256565b604051610220969594939291906138e0565b60405180910390f35b34801561023557600080fd5b50610250600480360381019061024b9190613413565b6114a9565b60405161026296959493929190613b20565b60405180910390f35b34801561027757600080fd5b50610292600480360381019061028d9190613413565b611a41565b005b6102ae60048036038101906102a99190613c03565b611f90565b6040516102bb9190613c7e565b60405180910390f35b3480156102d057600080fd5b506102eb60048036038101906102e69190613cc5565b6123c5565b6040516102fd96959493929190613dbc565b60405180910390f35b34801561031257600080fd5b5061032d60048036038101906103289190613f7c565b6127e6565b60405161033a9190613c7e565b60405180910390f35b81600660008381526020019081526020016000205414610398576040517f08c379a000000000000000000000000000000000000000000000000000000000815260040161038f906140cf565b60405180910390fd5b60006103ae83600161293990919063ffffffff16565b90503373ffffffffffffffffffffffffffffffffffffffff168160010160009054906101000a900473ffffffffffffffffffffffffffffffffffffffff1673ffffffffffffffffffffffffffffffffffffffff1614610442576040517f08c379a000000000000000000000000000000000000000000000000000000000815260040161043990614161565b60405180910390fd5b6006600083815260200190815260200160002060009055600c6000848152602001908152602001600020600081819054906101000a900463ffffffff168092919061048c906141b0565b91906101000a81548163ffffffff021916908363ffffffff1602179055505060006104c18360046129d190919063ffffffff16565b905060008160020160009054906101000a900473ffffffffffffffffffffffffffffffffffffffff16905060008260060154905060008273ffffffffffffffffffffffffffffffffffffffff168260405161051b9061420b565b60006040518083038185875af1925050503d8060008114610558576040519150601f19603f3d011682016040523d82523d6000602084013e61055d565b606091505b50509050806105a1576040517f08c379a00000000000000000000000000000000000000000000000000000000081526004016105989061426c565b60405180910390fd5b6105b5866004612a6990919063ffffffff16565b50857fec59ec7badaba136e5e5c61eb40f664c254682415c2e42cad5bd1f46aa90f8dd886040516105e69190613c7e565b60405180910390a250505050505050565b60608060608060606000600c600088815260200190815260200160002060009054906101000a900463ffffffff1663ffffffff1690508067ffffffffffffffff81111561064757610646613e51565b5b6040519080825280602002602001820160405280156106755781602001602082028036833780820191505090505b5095508067ffffffffffffffff81111561069257610691613e51565b5b6040519080825280602002602001820160405280156106c05781602001602082028036833780820191505090505b5094508067ffffffffffffffff8111156106dd576106dc613e51565b5b60405190808252806020026020018201604052801561070b5781602001602082028036833780820191505090505b5093508067ffffffffffffffff81111561072857610727613e51565b5b6040519080825280602002602001820160405280156107565781602001602082028036833780820191505090505b5092508067ffffffffffffffff81111561077357610772613e51565b5b6040519080825280602002602001820160405280156107a15781602001602082028036833780820191505090505b5091506000805b600460000180549050811015610918576000600460000182815481106107d1576107d061428c565b5b9060005260206000209060070201905089600660008360000154815260200190815260200160002054146108055750610905565b806000015489848151811061081d5761081c61428c565b5b60200260200101818152505080600101548884815181106108415761084061428c565b5b60200260200101818152505080600301548784815181106108655761086461428c565b5b6020026020010181815250508060050160009054906101000a900463ffffffff168684815181106108995761089861428c565b5b602002602001019063ffffffff16908163ffffffff16815250508060050160049054906101000a900463ffffffff168584815181106108db576108da61428c565b5b602002602001019063ffffffff16908163ffffffff16815250508280610900906142bb565b935050505b8080610910906142bb565b9150506107a8565b50505091939590929450565b60606000805b6004600001805490508110156109cd576000600460000182815481106109535761095261428c565b5b90600052602060002090600702019050846007600083600001548152602001908152602001600020541461098757506109ba565b428160050160049054906101000a900463ffffffff1663ffffffff1611156109b85782806109b4906142bb565b9350505b505b80806109c5906142bb565b91505061092a565b5060008167ffffffffffffffff8111156109ea576109e9613e51565b5b604051908082528060200260200182016040528015610a185781602001602082028036833780820191505090505b5090506000915060005b600460000180549050811015610ae957600060046000018281548110610a4b57610a4a61428c565b5b906000526020600020906007020190508560076000836000015481526020019081526020016000205414610a7f5750610ad6565b428160050160049054906101000a900463ffffffff1663ffffffff161115610ad4578060000154838581518110610ab957610ab861428c565b5b6020026020010181815250508380610ad0906142bb565b9450505b505b8080610ae1906142bb565b915050610a22565b508092505050919050565b6000600b600083815260200190815260200160002060009054906101000a900463ffffffff1663ffffffff1614610b60576040517f08c379a0000000000000000000000000000000000000000000000000000000008152600401610b579061439c565b60405180910390fd5b6000610b7682600161293990919063ffffffff16565b90503373ffffffffffffffffffffffffffffffffffffffff168160010160009054906101000a900473ffffffffffffffffffffffffffffffffffffffff1673ffffffffffffffffffffffffffffffffffffffff1614610c0a576040517f08c379a0000000000000000000000000000000000000000000000000000000008152600401610c019061442e565b60405180910390fd5b610c1e826001612d0e90919063ffffffff16565b505050565b6060806060806060806000600b600089815260200190815260200160002060009054906101000a900463ffffffff1663ffffffff1690508067ffffffffffffffff811115610c7457610c73613e51565b5b604051908082528060200260200182016040528015610ca25781602001602082028036833780820191505090505b5096508067ffffffffffffffff811115610cbf57610cbe613e51565b5b604051908082528060200260200182016040528015610ced5781602001602082028036833780820191505090505b5095508067ffffffffffffffff811115610d0a57610d09613e51565b5b604051908082528060200260200182016040528015610d385781602001602082028036833780820191505090505b5094508067ffffffffffffffff811115610d5557610d54613e51565b5b604051908082528060200260200182016040528015610d835781602001602082028036833780820191505090505b5093508067ffffffffffffffff811115610da057610d9f613e51565b5b604051908082528060200260200182016040528015610dce5781602001602082028036833780820191505090505b5092508067ffffffffffffffff811115610deb57610dea613e51565b5b604051908082528060200260200182016040528015610e195781602001602082028036833780820191505090505b5091506000805b600460000180549050811015610f9057600060046000018281548110610e4957610e4861428c565b5b906000526020600020906007020190508a60076000836000015481526020019081526020016000205414610e7d5750610f7d565b80600001548a8481518110610e9557610e9461428c565b5b6020026020010181815250508060030154888481518110610eb957610eb861428c565b5b6020026020010181815250508060040154878481518110610edd57610edc61428c565b5b6020026020010181815250508060050160009054906101000a900463ffffffff16868481518110610f1157610f1061428c565b5b602002602001019063ffffffff16908163ffffffff16815250508060050160049054906101000a900463ffffffff16858481518110610f5357610f5261428c565b5b602002602001019063ffffffff16908163ffffffff16815250508280610f78906142bb565b935050505b8080610f88906142bb565b915050610e20565b50505091939550919395565b600a600b600084815260200190815260200160002060009054906101000a900463ffffffff1663ffffffff1610611008576040517f08c379a0000000000000000000000000000000000000000000000000000000008152600401610fff906144e6565b60405180910390fd5b8160066000838152602001908152602001600020541461105d576040517f08c379a0000000000000000000000000000000000000000000000000000000008152600401611054906140cf565b60405180910390fd5b600061107383600161293990919063ffffffff16565b90503373ffffffffffffffffffffffffffffffffffffffff168160010160009054906101000a900473ffffffffffffffffffffffffffffffffffffffff1673ffffffffffffffffffffffffffffffffffffffff1614611107576040517f08c379a00000000000000000000000000000000000000000000000000000000081526004016110fe90614578565b60405180910390fd5b600061111d8360046129d190919063ffffffff16565b90508060050160009054906101000a900463ffffffff1663ffffffff16421061114557600080fd5b6006600084815260200190815260200160002060009055600b6000858152602001908152602001600020600081819054906101000a900463ffffffff168092919061118f90614598565b91906101000a81548163ffffffff021916908363ffffffff16021790555050600c6000858152602001908152602001600020600081819054906101000a900463ffffffff16809291906111e1906141b0565b91906101000a81548163ffffffff021916908363ffffffff16021790555050836007600085815260200190815260200160002081905550827f01bc73444a1de7fde87f242676d52ebb9e3d193f9dd4837e1de58bc79e421032856040516112489190613c7e565b60405180910390a250505050565b600080606080606060008061127588600161293990919063ffffffff16565b9050878160000154146112bd576040517f08c379a00000000000000000000000000000000000000000000000000000000081526004016112b490614637565b60405180910390fd5b806000015496508060010160009054906101000a900473ffffffffffffffffffffffffffffffffffffffff1695508060020180546112fa90614686565b80601f016020809104026020016040519081016040528092919081815260200182805461132690614686565b80156113735780601f1061134857610100808354040283529160200191611373565b820191906000526020600020905b81548152906001019060200180831161135657829003601f168201915b5050505050945080600301805461138990614686565b80601f01602080910402602001604051908101604052809291908181526020018280546113b590614686565b80156114025780601f106113d757610100808354040283529160200191611402565b820191906000526020600020905b8154815290600101906020018083116113e557829003601f168201915b5050505050935080600401805461141890614686565b80601f016020809104026020016040519081016040528092919081815260200182805461144490614686565b80156114915780601f1061146657610100808354040283529160200191611491565b820191906000526020600020905b81548152906001019060200180831161147457829003601f168201915b50505050509250806005015491505091939550919395565b6060806060806060806000871180156114c3575060328711155b611502576040517f08c379a00000000000000000000000000000000000000000000000000000000081526004016114f99061472a565b60405180910390fd5b6000881015801561151b57506001600001805490508811155b61152457600080fd5b600061154c888a611535919061474a565b600160000180549050612f7190919063ffffffff16565b90508067ffffffffffffffff81111561156857611567613e51565b5b6040519080825280602002602001820160405280156115965781602001602082028036833780820191505090505b5096508067ffffffffffffffff8111156115b3576115b2613e51565b5b6040519080825280602002602001820160405280156115e15781602001602082028036833780820191505090505b5095508067ffffffffffffffff8111156115fe576115fd613e51565b5b60405190808252806020026020018201604052801561163157816020015b606081526020019060019003908161161c5790505b5094508067ffffffffffffffff81111561164e5761164d613e51565b5b60405190808252806020026020018201604052801561168157816020015b606081526020019060019003908161166c5790505b5093508067ffffffffffffffff81111561169e5761169d613e51565b5b6040519080825280602002602001820160405280156116d157816020015b60608152602001906001900390816116bc5790505b5092508067ffffffffffffffff8111156116ee576116ed613e51565b5b60405190808252806020026020018201604052801561171c5781602001602082028036833780820191505090505b5091506000808a90505b82811015611a34576000600160000182815481106117475761174661428c565b5b9060005260206000209060060201905080600001548a848151811061176f5761176e61428c565b5b6020026020010181815250508060010160009054906101000a900473ffffffffffffffffffffffffffffffffffffffff168984815181106117b3576117b261428c565b5b602002602001019073ffffffffffffffffffffffffffffffffffffffff16908173ffffffffffffffffffffffffffffffffffffffff16815250508060020180546117fc90614686565b80601f016020809104026020016040519081016040528092919081815260200182805461182890614686565b80156118755780601f1061184a57610100808354040283529160200191611875565b820191906000526020600020905b81548152906001019060200180831161185857829003601f168201915b505050505088848151811061188d5761188c61428c565b5b60200260200101819052508060030180546118a790614686565b80601f01602080910402602001604051908101604052809291908181526020018280546118d390614686565b80156119205780601f106118f557610100808354040283529160200191611920565b820191906000526020600020905b81548152906001019060200180831161190357829003601f168201915b50505050508784815181106119385761193761428c565b5b602002602001018190525080600401805461195290614686565b80601f016020809104026020016040519081016040528092919081815260200182805461197e90614686565b80156119cb5780601f106119a0576101008083540402835291602001916119cb565b820191906000526020600020905b8154815290600101906020018083116119ae57829003601f168201915b50505050508684815181106119e3576119e261428c565b5b60200260200101819052508060050154858481518110611a0657611a0561428c565b5b6020026020010181815250508280611a1d906142bb565b935050508080611a2c906142bb565b915050611726565b5050509295509295509295565b81600760008381526020019081526020016000205414611a96576040517f08c379a0000000000000000000000000000000000000000000000000000000008152600401611a8d90614812565b60405180910390fd5b6000611aac8260046129d190919063ffffffff16565b90508060050160049054906101000a900463ffffffff1663ffffffff16421015611b0b576040517f08c379a0000000000000000000000000000000000000000000000000000000008152600401611b02906148a4565b60405180910390fd5b6000611b2184600161293990919063ffffffff16565b90508060010160009054906101000a900473ffffffffffffffffffffffffffffffffffffffff1673ffffffffffffffffffffffffffffffffffffffff163373ffffffffffffffffffffffffffffffffffffffff161480611bd057508160020160009054906101000a900473ffffffffffffffffffffffffffffffffffffffff1673ffffffffffffffffffffffffffffffffffffffff163373ffffffffffffffffffffffffffffffffffffffff16145b611c0f576040517f08c379a0000000000000000000000000000000000000000000000000000000008152600401611c069061495c565b60405180910390fd5b8060010160009054906101000a900473ffffffffffffffffffffffffffffffffffffffff1673ffffffffffffffffffffffffffffffffffffffff163373ffffffffffffffffffffffffffffffffffffffff161415611cdb578060010160009054906101000a900473ffffffffffffffffffffffffffffffffffffffff1673ffffffffffffffffffffffffffffffffffffffff166108fc83600601549081150290604051600060405180830381858888f19350505050158015611cd5573d6000803e3d6000fd5b50611e55565b8160020160009054906101000a900473ffffffffffffffffffffffffffffffffffffffff1673ffffffffffffffffffffffffffffffffffffffff163373ffffffffffffffffffffffffffffffffffffffff161415611e54576000611d6b600a611d5d3a600a8760060154611d4f91906149ab565b612f7190919063ffffffff16565b612f7190919063ffffffff16565b90508260020160009054906101000a900473ffffffffffffffffffffffffffffffffffffffff1673ffffffffffffffffffffffffffffffffffffffff166108fc829081150290604051600060405180830381858888f19350505050158015611dd7573d6000803e3d6000fd5b508160010160009054906101000a900473ffffffffffffffffffffffffffffffffffffffff1673ffffffffffffffffffffffffffffffffffffffff166108fc828560060154611e2691906149dc565b9081150290604051600060405180830381858888f19350505050158015611e51573d6000803e3d6000fd5b50505b5b6007600084815260200190815260200160002060009055600960008360020160009054906101000a900473ffffffffffffffffffffffffffffffffffffffff1673ffffffffffffffffffffffffffffffffffffffff1673ffffffffffffffffffffffffffffffffffffffff168152602001908152602001600020600081819054906101000a900463ffffffff1680929190611eef906141b0565b91906101000a81548163ffffffff021916908363ffffffff16021790555050600b6000858152602001908152602001600020600081819054906101000a900463ffffffff1680929190611f41906141b0565b91906101000a81548163ffffffff021916908363ffffffff16021790555050611f74836004612a6990919063ffffffff16565b50611f89846001612d0e90919063ffffffff16565b5050505050565b6000600a600960003373ffffffffffffffffffffffffffffffffffffffff1673ffffffffffffffffffffffffffffffffffffffff16815260200190815260200160002060009054906101000a900463ffffffff1663ffffffff161061202a576040517f08c379a000000000000000000000000000000000000000000000000000000000815260040161202190614aa8565b60405180910390fd5b8263ffffffff168263ffffffff161180156120585750610e10838361204f9190614ac8565b63ffffffff1610155b612097576040517f08c379a000000000000000000000000000000000000000000000000000000000815260040161208e90614bba565b60405180910390fd5b428363ffffffff161180156120bf575061a8c0428463ffffffff166120bc91906149dc565b10155b6120fe576040517f08c379a00000000000000000000000000000000000000000000000000000000081526004016120f590614c72565b60405180910390fd5b600a600b600088815260200190815260200160002060009054906101000a900463ffffffff1663ffffffff161061216a576040517f08c379a0000000000000000000000000000000000000000000000000000000008152600401612161906144e6565b60405180910390fd5b600061218087600161293990919063ffffffff16565b905080600501543410156121c9576040517f08c379a00000000000000000000000000000000000000000000000000000000081526004016121c090614d04565b60405180910390fd5b6121d36003612f8a565b60006121df6003612fa0565b905060006040518061010001604052808381526020018a81526020013373ffffffffffffffffffffffffffffffffffffffff1681526020018981526020018881526020018763ffffffff1681526020018663ffffffff16815260200134815250905061225782826004612fae9092919063ffffffff16565b612296576040517f08c379a000000000000000000000000000000000000000000000000000000000815260040161228d90614d70565b60405180910390fd5b886006600084815260200190815260200160002081905550600c60008a8152602001908152602001600020600081819054906101000a900463ffffffff16809291906122e190614598565b91906101000a81548163ffffffff021916908363ffffffff16021790555050600960003373ffffffffffffffffffffffffffffffffffffffff1673ffffffffffffffffffffffffffffffffffffffff168152602001908152602001600020600081819054906101000a900463ffffffff168092919061235f90614598565b91906101000a81548163ffffffff021916908363ffffffff16021790555050887ff2c4fd593196bf9bbf9c80225837e14dcdd5a1f789df2a341a3f4d7181d4af41836040516123ae9190613c7e565b60405180910390a281935050505095945050505050565b6060806060806060806000600960008973ffffffffffffffffffffffffffffffffffffffff1673ffffffffffffffffffffffffffffffffffffffff16815260200190815260200160002060009054906101000a900463ffffffff1663ffffffff1690508067ffffffffffffffff81111561244257612441613e51565b5b6040519080825280602002602001820160405280156124705781602001602082028036833780820191505090505b5096508067ffffffffffffffff81111561248d5761248c613e51565b5b6040519080825280602002602001820160405280156124bb5781602001602082028036833780820191505090505b5095508067ffffffffffffffff8111156124d8576124d7613e51565b5b6040519080825280602002602001820160405280156125065781602001602082028036833780820191505090505b5094508067ffffffffffffffff81111561252357612522613e51565b5b6040519080825280602002602001820160405280156125515781602001602082028036833780820191505090505b5093508067ffffffffffffffff81111561256e5761256d613e51565b5b60405190808252806020026020018201604052801561259c5781602001602082028036833780820191505090505b5092508067ffffffffffffffff8111156125b9576125b8613e51565b5b6040519080825280602002602001820160405280156125e75781602001602082028036833780820191505090505b5091506000805b6004600001805490508110156127da576000600460000182815481106126175761261661428c565b5b906000526020600020906007020190508a73ffffffffffffffffffffffffffffffffffffffff168160020160009054906101000a900473ffffffffffffffffffffffffffffffffffffffff1673ffffffffffffffffffffffffffffffffffffffff161461268457506127c7565b80600001548a848151811061269c5761269b61428c565b5b60200260200101818152505080600101548984815181106126c0576126bf61428c565b5b60200260200101818152505080600301548884815181106126e4576126e361428c565b5b6020026020010181815250508060050160009054906101000a900463ffffffff168784815181106127185761271761428c565b5b602002602001019063ffffffff16908163ffffffff16815250508060050160049054906101000a900463ffffffff1686848151811061275a5761275961428c565b5b602002602001019063ffffffff16908163ffffffff16815250508060010154600760008360000154815260200190815260200160002054148584815181106127a5576127a461428c565b5b60200260200101901515908115158152505082806127c2906142bb565b935050505b80806127d2906142bb565b9150506125ee565b50505091939550919395565b6000600a8060003373ffffffffffffffffffffffffffffffffffffffff1673ffffffffffffffffffffffffffffffffffffffff16815260200190815260200160002060009054906101000a900463ffffffff1663ffffffff161061287f576040517f08c379a000000000000000000000000000000000000000000000000000000000815260040161287690614e4e565b60405180910390fd5b6128896000612f8a565b60006128956000612fa0565b905060006040518060c001604052808381526020013373ffffffffffffffffffffffffffffffffffffffff1681526020018881526020018781526020018681526020018581525090506128f4828260016130eb9092919063ffffffff16565b507f7953a3310142a9a0726ec6fd5129a712fff3b30a59304c3489524b0e6cffc529826040516129249190613c7e565b60405180910390a18192505050949350505050565b6000808360010160008481526020019081526020016000205490506000811415612998576040517f08c379a000000000000000000000000000000000000000000000000000000000815260040161298f90614ee0565b60405180910390fd5b836000016001826129a991906149dc565b815481106129ba576129b961428c565b5b906000526020600020906006020191505092915050565b6000808360010160008481526020019081526020016000205490506000811415612a30576040517f08c379a0000000000000000000000000000000000000000000000000000000008152600401612a2790614f4c565b60405180910390fd5b83600001600182612a4191906149dc565b81548110612a5257612a5161428c565b5b906000526020600020906007020191505092915050565b60008083600101600084815260200190815260200160002054905060008114612d02576000600182612a9b91906149dc565b9050600060018660000180549050612ab391906149dc565b9050818114612c33576000866000018281548110612ad457612ad361428c565b5b9060005260206000209060070201905080876000018481548110612afb57612afa61428c565b5b906000526020600020906007020160008201548160000155600182015481600101556002820160009054906101000a900473ffffffffffffffffffffffffffffffffffffffff168160020160006101000a81548173ffffffffffffffffffffffffffffffffffffffff021916908373ffffffffffffffffffffffffffffffffffffffff16021790555060038201548160030155600482015481600401556005820160009054906101000a900463ffffffff168160050160006101000a81548163ffffffff021916908363ffffffff1602179055506005820160049054906101000a900463ffffffff168160050160046101000a81548163ffffffff021916908363ffffffff16021790555060068201548160060155905050828760010160008360000154815260200190815260200160002081905550505b85600001805480612c4757612c46614f6c565b5b600190038181906000526020600020906007020160008082016000905560018201600090556002820160006101000a81549073ffffffffffffffffffffffffffffffffffffffff0219169055600382016000905560048201600090556005820160006101000a81549063ffffffff02191690556005820160046101000a81549063ffffffff02191690556006820160009055505090558560010160008681526020019081526020016000206000905560019350505050612d08565b60009150505b92915050565b60008083600101600084815260200190815260200160002054905060008114612f65576000600182612d4091906149dc565b9050600060018660000180549050612d5891906149dc565b9050818114612eac576000866000018281548110612d7957612d7861428c565b5b9060005260206000209060060201905080876000018481548110612da057612d9f61428c565b5b9060005260206000209060060201600082015481600001556001820160009054906101000a900473ffffffffffffffffffffffffffffffffffffffff168160010160006101000a81548173ffffffffffffffffffffffffffffffffffffffff021916908373ffffffffffffffffffffffffffffffffffffffff1602179055506002820181600201908054612e3390614686565b612e3e929190613259565b506003820181600301908054612e5390614686565b612e5e929190613259565b506004820181600401908054612e7390614686565b612e7e929190613259565b5060058201548160050155905050828760010160008360000154815260200190815260200160002081905550505b85600001805480612ec057612ebf614f6c565b5b60019003818190600052602060002090600602016000808201600090556001820160006101000a81549073ffffffffffffffffffffffffffffffffffffffff0219169055600282016000612f1491906132e6565b600382016000612f2491906132e6565b600482016000612f3491906132e6565b6005820160009055505090558560010160008681526020019081526020016000206000905560019350505050612f6b565b60009150505b92915050565b6000818310612f805781612f82565b825b905092915050565b6001816000016000828254019250508190555050565b600081600001549050919050565b6000612fba8484613213565b6130df5783600001829080600181540180825580915050600190039060005260206000209060070201600090919091909150600082015181600001556020820151816001015560408201518160020160006101000a81548173ffffffffffffffffffffffffffffffffffffffff021916908373ffffffffffffffffffffffffffffffffffffffff160217905550606082015181600301556080820151816004015560a08201518160050160006101000a81548163ffffffff021916908363ffffffff16021790555060c08201518160050160046101000a81548163ffffffff021916908363ffffffff16021790555060e082015181600601555050836000018054905084600101600085815260200190815260200160002081905550600190506130e4565b600090505b9392505050565b60006130f78484613236565b61320757836000018290806001815401808255809150506001900390600052602060002090600602016000909190919091506000820151816000015560208201518160010160006101000a81548173ffffffffffffffffffffffffffffffffffffffff021916908373ffffffffffffffffffffffffffffffffffffffff1602179055506040820151816002019080519060200190613196929190613326565b5060608201518160030190805190602001906131b3929190613326565b5060808201518160040190805190602001906131d0929190613326565b5060a0820151816005015550508360000180549050846001016000858152602001908152602001600020819055506001905061320c565b600090505b9392505050565b600080836001016000848152602001908152602001600020541415905092915050565b600080836001016000848152602001908152602001600020541415905092915050565b82805461326590614686565b90600052602060002090601f01602090048101928261328757600085556132d5565b82601f1061329857805485556132d5565b828001600101855582156132d557600052602060002091601f016020900482015b828111156132d45782548255916001019190600101906132b9565b5b5090506132e291906133ac565b5090565b5080546132f290614686565b6000825580601f106133045750613323565b601f01602090049060005260206000209081019061332291906133ac565b5b50565b82805461333290614686565b90600052602060002090601f016020900481019282613354576000855561339b565b82601f1061336d57805160ff191683800117855561339b565b8280016001018555821561339b579182015b8281111561339a57825182559160200191906001019061337f565b5b5090506133a891906133ac565b5090565b5b808211156133c55760008160009055506001016133ad565b5090565b6000604051905090565b600080fd5b600080fd5b6000819050919050565b6133f0816133dd565b81146133fb57600080fd5b50565b60008135905061340d816133e7565b92915050565b6000806040838503121561342a576134296133d3565b5b6000613438858286016133fe565b9250506020613449858286016133fe565b9150509250929050565b600060208284031215613469576134686133d3565b5b6000613477848285016133fe565b91505092915050565b600081519050919050565b600082825260208201905092915050565b6000819050602082019050919050565b6134b5816133dd565b82525050565b60006134c783836134ac565b60208301905092915050565b6000602082019050919050565b60006134eb82613480565b6134f5818561348b565b93506135008361349c565b8060005b8381101561353157815161351888826134bb565b9750613523836134d3565b925050600181019050613504565b5085935050505092915050565b600081519050919050565b600082825260208201905092915050565b6000819050602082019050919050565b6000819050919050565b61357d8161356a565b82525050565b600061358f8383613574565b60208301905092915050565b6000602082019050919050565b60006135b38261353e565b6135bd8185613549565b93506135c88361355a565b8060005b838110156135f95781516135e08882613583565b97506135eb8361359b565b9250506001810190506135cc565b5085935050505092915050565b600081519050919050565b600082825260208201905092915050565b6000819050602082019050919050565b600063ffffffff82169050919050565b61364b81613632565b82525050565b600061365d8383613642565b60208301905092915050565b6000602082019050919050565b600061368182613606565b61368b8185613611565b935061369683613622565b8060005b838110156136c75781516136ae8882613651565b97506136b983613669565b92505060018101905061369a565b5085935050505092915050565b600060a08201905081810360008301526136ee81886134e0565b9050818103602083015261370281876134e0565b9050818103604083015261371681866135a8565b9050818103606083015261372a8185613676565b9050818103608083015261373e8184613676565b90509695505050505050565b6000602082019050818103600083015261376481846134e0565b905092915050565b600060c082019050818103600083015261378681896134e0565b9050818103602083015261379a81886134e0565b905081810360408301526137ae81876135a8565b905081810360608301526137c281866135a8565b905081810360808301526137d68185613676565b905081810360a08301526137ea8184613676565b9050979650505050505050565b613800816133dd565b82525050565b600073ffffffffffffffffffffffffffffffffffffffff82169050919050565b600061383182613806565b9050919050565b61384181613826565b82525050565b600081519050919050565b600082825260208201905092915050565b60005b83811015613881578082015181840152602081019050613866565b83811115613890576000848401525b50505050565b6000601f19601f8301169050919050565b60006138b282613847565b6138bc8185613852565b93506138cc818560208601613863565b6138d581613896565b840191505092915050565b600060c0820190506138f560008301896137f7565b6139026020830188613838565b818103604083015261391481876138a7565b9050818103606083015261392881866138a7565b9050818103608083015261393c81856138a7565b905061394b60a08301846137f7565b979650505050505050565b600081519050919050565b600082825260208201905092915050565b6000819050602082019050919050565b61398b81613826565b82525050565b600061399d8383613982565b60208301905092915050565b6000602082019050919050565b60006139c182613956565b6139cb8185613961565b93506139d683613972565b8060005b83811015613a075781516139ee8882613991565b97506139f9836139a9565b9250506001810190506139da565b5085935050505092915050565b600081519050919050565b600082825260208201905092915050565b6000819050602082019050919050565b600082825260208201905092915050565b6000613a5c82613847565b613a668185613a40565b9350613a76818560208601613863565b613a7f81613896565b840191505092915050565b6000613a968383613a51565b905092915050565b6000602082019050919050565b6000613ab682613a14565b613ac08185613a1f565b935083602082028501613ad285613a30565b8060005b85811015613b0e5784840389528151613aef8582613a8a565b9450613afa83613a9e565b925060208a01995050600181019050613ad6565b50829750879550505050505092915050565b600060c0820190508181036000830152613b3a81896134e0565b90508181036020830152613b4e81886139b6565b90508181036040830152613b628187613aab565b90508181036060830152613b768186613aab565b90508181036080830152613b8a8185613aab565b905081810360a0830152613b9e81846134e0565b9050979650505050505050565b613bb48161356a565b8114613bbf57600080fd5b50565b600081359050613bd181613bab565b92915050565b613be081613632565b8114613beb57600080fd5b50565b600081359050613bfd81613bd7565b92915050565b600080600080600060a08688031215613c1f57613c1e6133d3565b5b6000613c2d888289016133fe565b9550506020613c3e88828901613bc2565b9450506040613c4f88828901613bc2565b9350506060613c6088828901613bee565b9250506080613c7188828901613bee565b9150509295509295909350565b6000602082019050613c9360008301846137f7565b92915050565b613ca281613826565b8114613cad57600080fd5b50565b600081359050613cbf81613c99565b92915050565b600060208284031215613cdb57613cda6133d3565b5b6000613ce984828501613cb0565b91505092915050565b600081519050919050565b600082825260208201905092915050565b6000819050602082019050919050565b60008115159050919050565b613d3381613d1e565b82525050565b6000613d458383613d2a565b60208301905092915050565b6000602082019050919050565b6000613d6982613cf2565b613d738185613cfd565b9350613d7e83613d0e565b8060005b83811015613daf578151613d968882613d39565b9750613da183613d51565b925050600181019050613d82565b5085935050505092915050565b600060c0820190508181036000830152613dd681896134e0565b90508181036020830152613dea81886134e0565b90508181036040830152613dfe81876135a8565b90508181036060830152613e128186613676565b90508181036080830152613e268185613676565b905081810360a0830152613e3a8184613d5e565b9050979650505050505050565b600080fd5b600080fd5b7f4e487b7100000000000000000000000000000000000000000000000000000000600052604160045260246000fd5b613e8982613896565b810181811067ffffffffffffffff82111715613ea857613ea7613e51565b5b80604052505050565b6000613ebb6133c9565b9050613ec78282613e80565b919050565b600067ffffffffffffffff821115613ee757613ee6613e51565b5b613ef082613896565b9050602081019050919050565b82818337600083830152505050565b6000613f1f613f1a84613ecc565b613eb1565b905082815260208101848484011115613f3b57613f3a613e4c565b5b613f46848285613efd565b509392505050565b600082601f830112613f6357613f62613e47565b5b8135613f73848260208601613f0c565b91505092915050565b60008060008060808587031215613f9657613f956133d3565b5b600085013567ffffffffffffffff811115613fb457613fb36133d8565b5b613fc087828801613f4e565b945050602085013567ffffffffffffffff811115613fe157613fe06133d8565b5b613fed87828801613f4e565b935050604085013567ffffffffffffffff81111561400e5761400d6133d8565b5b61401a87828801613f4e565b925050606061402b878288016133fe565b91505092959194509250565b7f4164766572746973696e6720666f72207468652074617267657420696e76656e60008201527f746f7279206973206e6f742063757272656e746c7920756e646572207265766960208201527f6577000000000000000000000000000000000000000000000000000000000000604082015250565b60006140b9604283613852565b91506140c482614037565b606082019050919050565b600060208201905081810360008301526140e8816140ac565b9050919050565b7f4f6e6c7920696e76656e746f7279206f776e6572732063616e2072656a65637460008201527f206164732e000000000000000000000000000000000000000000000000000000602082015250565b600061414b602583613852565b9150614156826140ef565b604082019050919050565b6000602082019050818103600083015261417a8161413e565b9050919050565b7f4e487b7100000000000000000000000000000000000000000000000000000000600052601160045260246000fd5b60006141bb82613632565b915060008214156141cf576141ce614181565b5b600182039050919050565b600081905092915050565b50565b60006141f56000836141da565b9150614200826141e5565b600082019050919050565b6000614216826141e8565b9150819050919050565b7f4661696c656420746f207061796261636b206c6f636b2076616c756573000000600082015250565b6000614256601d83613852565b915061426182614220565b602082019050919050565b6000602082019050818103600083015261428581614249565b9050919050565b7f4e487b7100000000000000000000000000000000000000000000000000000000600052603260045260246000fd5b60006142c6826133dd565b91507fffffffffffffffffffffffffffffffffffffffffffffffffffffffffffffffff8214156142f9576142f8614181565b5b600182019050919050565b7f596f752063616e27742064656c65746520616e20696e76656e746f727920696660008201527f2074686572652061726520616473206c65667420696e2074686520696e76656e60208201527f746f72792e000000000000000000000000000000000000000000000000000000604082015250565b6000614386604583613852565b915061439182614304565b606082019050919050565b600060208201905081810360008301526143b581614379565b9050919050565b7f4f6e6c7920696e76656e746f7279206f776e6572732063616e2072656d6f766560008201527f20696e76656e746f72792e000000000000000000000000000000000000000000602082015250565b6000614418602b83613852565b9150614423826143bc565b604082019050919050565b600060208201905081810360008301526144478161440b565b9050919050565b7f457863656564656420746865206c696d6974206f66206164732074686174206360008201527f616e2062652064656c69766572656420746f20796f757220696e76656e746f7260208201527f792e000000000000000000000000000000000000000000000000000000000000604082015250565b60006144d0604283613852565b91506144db8261444e565b606082019050919050565b600060208201905081810360008301526144ff816144c3565b9050919050565b7f4f6e6c7920696e76656e746f7279206f776e6572732063616e20617070726f7660008201527f65206164732e0000000000000000000000000000000000000000000000000000602082015250565b6000614562602683613852565b915061456d82614506565b604082019050919050565b6000602082019050818103600083015261459181614555565b9050919050565b60006145a382613632565b915063ffffffff8214156145ba576145b9614181565b5b600182019050919050565b7f72657175657374656420696e76656e746f727920696420697320696e76616c6960008201527f6400000000000000000000000000000000000000000000000000000000000000602082015250565b6000614621602183613852565b915061462c826145c5565b604082019050919050565b6000602082019050818103600083015261465081614614565b9050919050565b7f4e487b7100000000000000000000000000000000000000000000000000000000600052602260045260246000fd5b6000600282049050600182168061469e57607f821691505b602082108114156146b2576146b1614657565b5b50919050565b7f496e76656e746f72792063616e20626520726574726965766520757020746f2060008201527f3330206974656d73206174207468652073616d652074696d6500000000000000602082015250565b6000614714603983613852565b915061471f826146b8565b604082019050919050565b6000602082019050818103600083015261474381614707565b9050919050565b6000614755826133dd565b9150614760836133dd565b9250827fffffffffffffffffffffffffffffffffffffffffffffffffffffffffffffffff0382111561479557614794614181565b5b828201905092915050565b7f4f6e6c792061647320746861742061726520696e2074686520696e76656e746f60008201527f72792063616e20626520636f6c6c65637465642e000000000000000000000000602082015250565b60006147fc603483613852565b9150614807826147a0565b604082019050919050565b6000602082019050818103600083015261482b816147ef565b9050919050565b7f4f6e6c79206164732074686174206861766520657870697265642063616e206260008201527f6520636f6c6c65637465642e0000000000000000000000000000000000000000602082015250565b600061488e602c83613852565b915061489982614832565b604082019050919050565b600060208201905081810360008301526148bd81614881565b9050919050565b7f4f6e6c7920746865206f776e6572206f662074686520696e76656e746f72792060008201527f6f7220746865206f776e6572206f66207468652061642063616e20636f6c6c6560208201527f6374207468652061642e00000000000000000000000000000000000000000000604082015250565b6000614946604a83613852565b9150614951826148c4565b606082019050919050565b6000602082019050818103600083015261497581614939565b9050919050565b7f4e487b7100000000000000000000000000000000000000000000000000000000600052601260045260246000fd5b60006149b6826133dd565b91506149c1836133dd565b9250826149d1576149d061497c565b5b828204905092915050565b60006149e7826133dd565b91506149f2836133dd565b925082821015614a0557614a04614181565b5b828203905092915050565b7f596f752068617665207265616368656420746865206d6178696d756d206e756d60008201527f626572206f662061647320796f752063616e206372656174652e20596f75206e60208201527f65656420746f2072656d6f766520756e77616e746564206164732e0000000000604082015250565b6000614a92605b83613852565b9150614a9d82614a10565b606082019050919050565b60006020820190508181036000830152614ac181614a85565b9050919050565b6000614ad382613632565b9150614ade83613632565b925082821015614af157614af0614181565b5b828203905092915050565b7f5468652064656c69766572792073746172742074696d65206d7573742062652060008201527f6265666f7265207468652064656c697665727920656e642074696d652c20616e60208201527f642061206d696e696d756d2064656c697665727920706572696f64206d75737460408201527f206265207365742e000000000000000000000000000000000000000000000000606082015250565b6000614ba4606883613852565b9150614baf82614afc565b608082019050919050565b60006020820190508181036000830152614bd381614b97565b9050919050565b7f4974206973206e656365737361727920746f20616c6c6f77206120636572746160008201527f696e20616d6f756e74206f662074696d65206265666f7265207468652064697360208201527f747269627574696f6e207374617274732e000000000000000000000000000000604082015250565b6000614c5c605183613852565b9150614c6782614bda565b606082019050919050565b60006020820190508181036000830152614c8b81614c4f565b9050919050565b7f6164207072696365206d757374206265206c6172676572207468616e20666c6f60008201527f6f722070726963652073657420627920696e76656e746f7279206f776e65722e602082015250565b6000614cee604083613852565b9150614cf982614c92565b604082019050919050565b60006020820190508181036000830152614d1d81614ce1565b9050919050565b7f616473206d75737420626520616464656420636f72726563746c790000000000600082015250565b6000614d5a601b83613852565b9150614d6582614d24565b602082019050919050565b60006020820190508181036000830152614d8981614d4d565b9050919050565b7f596f752068617665207265616368656420746865206d6178696d756d206e756d60008201527f626572206f6620696e76656e746f727920796f752063616e206372656174652e60208201527f20596f75206e65656420746f2072656d6f766520756e77616e74656420696e7660408201527f656e746f72792e00000000000000000000000000000000000000000000000000606082015250565b6000614e38606783613852565b9150614e4382614d90565b608082019050919050565b60006020820190508181036000830152614e6781614e2b565b9050919050565b7f72657175657374656420696e76656e746f7279496420646f6573206e6f74206560008201527f7869737400000000000000000000000000000000000000000000000000000000602082015250565b6000614eca602483613852565b9150614ed582614e6e565b604082019050919050565b60006020820190508181036000830152614ef981614ebd565b9050919050565b7f726571756573746564206164496420646f6573206e6f74206578697374000000600082015250565b6000614f36601d83613852565b9150614f4182614f00565b602082019050919050565b60006020820190508181036000830152614f6581614f29565b9050919050565b7f4e487b7100000000000000000000000000000000000000000000000000000000600052603160045260246000fdfea26469706673582212209b7833828bfc8af52f0663730668ba8fad07db80b2a15d8c08dc1b53c0e6bed664736f6c634300080b0033",
  "immutableReferences": {},
  "source": "// SPDX-License-Identifier: MIT\npragma solidity ^0.8.0;\n\nimport \"@openzeppelin/contracts/utils/Counters.sol\";\nimport \"@openzeppelin/contracts/utils/math/Math.sol\";\nimport \"./AdNetworkSet.sol\";\n\ncontract AdNetwork {\n    uint constant MAX_CREATABLE_AD_COUNT = 10;\n    uint constant MAX_CREATABLE_INVENTORY_COUNT = 10;\n    uint constant MAX_DELIVERABLE_AD_COUNT = 10;\n    /// @dev Delivery time must be at least 1 hour.\n    uint constant MIN_DELIVERY_TIME = 60 * 60;\n    /// @dev Since there is a high possibility that the screening will not be completed in time,\n    /// it is necessary to allow at least 12 hours before the distribution starts.\n    uint constant MIN_TIME_REQUIRED_TO_START_DELIVERY = 60 * 60 * 12;\n    uint constant MAX_CACHE_BACK_GAS_FEE = 10 wei;\n\n    using Counters for Counters.Counter;\n    using AdNetworkSet for AdNetworkSet.InventorySet;\n    using AdNetworkSet for AdNetworkSet.AdSet;\n    using Math for uint256;\n\n    Counters.Counter private _inventoryIds;\n    AdNetworkSet.InventorySet private _inventories;\n    Counters.Counter private _adIds;\n    AdNetworkSet.AdSet private _ads;\n\n    mapping(uint256 => uint256) private _requestApproval;\n    mapping(uint256 => uint256) private _adToInventory;\n    mapping(uint256 => uint256) private _waitAdToInventory;\n    mapping(address => uint32) private _ownerAdCount;\n    mapping(address => uint32) private _ownerInventoryCount;\n    mapping(uint256 => uint32) private _inventoryAdCount;\n    mapping(uint256 => uint32) private _inventoryWaitAdCount;\n\n    event AdReviewRequestSent(uint256 indexed inventoryId, bytes32 requestHash, bytes32 adHash);\n    event AdCreated(uint256 indexed inventoryId, uint256 adId);\n    event AdApproved(uint256 indexed adId, uint256 inventoryId);\n    event AdRejected(uint256 indexed adId, uint256 inventoryId);\n    event InventoryCreated(uint256 inventoryId);\n\n    constructor() {\n    }\n\n    function createAdInventory(string memory name, string memory uri, string memory publicKey, uint256 floorPrice) external returns (uint256) {\n        require(\n            _ownerInventoryCount[msg.sender] < MAX_CREATABLE_INVENTORY_COUNT,\n            \"You have reached the maximum number of inventory you can create. You need to remove unwanted inventory.\");\n        _inventoryIds.increment();\n        uint256 inventoryId = _inventoryIds.current();\n\n        AdNetworkSet.Inventory memory inventory = AdNetworkSet.Inventory(inventoryId, payable(msg.sender), name, uri, publicKey, floorPrice);\n        _inventories.add(inventoryId, inventory);\n        emit InventoryCreated(inventoryId);\n\n        return inventoryId;\n    }\n\n    function removeAdInventory(uint256 _inventoryId) external {\n        require(\n            _inventoryAdCount[_inventoryId] == 0,\n            \"You can't delete an inventory if there are ads left in the inventory.\");\n\n        AdNetworkSet.Inventory storage inventory = _inventories.get(_inventoryId);\n        require(\n            inventory.owner == msg.sender,\n            \"Only inventory owners can remove inventory.\");\n\n        _inventories.remove(_inventoryId);\n    }\n\n    function createAd(uint256 _inventoryId, bytes32 _hash, bytes32 _hashForDelivery, uint32 _start, uint32 _end) external payable returns (uint256) {\n        require(\n            _ownerAdCount[msg.sender] < MAX_CREATABLE_AD_COUNT,\n            \"You have reached the maximum number of ads you can create. You need to remove unwanted ads.\");\n        require(\n            _end > _start &&\n            _end - _start >= MIN_DELIVERY_TIME,\n            \"The delivery start time must be before the delivery end time, and a minimum delivery period must be set.\"\n        );\n        require(\n            _start > block.timestamp &&\n            _start - block.timestamp >= MIN_TIME_REQUIRED_TO_START_DELIVERY,\n            \"It is necessary to allow a certain amount of time before the distribution starts.\"\n        );\n        require(\n            _inventoryAdCount[_inventoryId] < MAX_DELIVERABLE_AD_COUNT,\n            \"Exceeded the limit of ads that can be delivered to your inventory.\"\n        );\n\n        AdNetworkSet.Inventory storage inventory = _inventories.get(_inventoryId);\n        require(msg.value >= inventory.floorPrice, \"ad price must be larger than floor price set by inventory owner.\");\n\n        _adIds.increment();\n        uint256 adId = _adIds.current();\n\n        AdNetworkSet.Ad memory ad = AdNetworkSet.Ad(adId, _inventoryId, payable(msg.sender), _hash, _hashForDelivery, _start, _end, msg.value);\n        require(_ads.add(adId, ad), \"ads must be added correctly\");\n\n        _requestApproval[adId] = _inventoryId;\n        _inventoryWaitAdCount[_inventoryId]++;\n        _ownerAdCount[msg.sender]++;\n\n        emit AdCreated(_inventoryId, adId);\n\n        return adId;\n    }\n\n    function approveAd(uint256 _inventoryId, uint256 _adId) external {\n        require(\n            _inventoryAdCount[_inventoryId] < MAX_DELIVERABLE_AD_COUNT,\n            \"Exceeded the limit of ads that can be delivered to your inventory.\");\n        require(\n            _requestApproval[_adId] == _inventoryId,\n            \"Advertising for the target inventory is not currently under review\");\n\n        AdNetworkSet.Inventory storage inventory = _inventories.get(_inventoryId);\n        require(\n            inventory.owner == msg.sender,\n            \"Only inventory owners can approve ads.\");\n\n        AdNetworkSet.Ad storage ad = _ads.get(_adId);\n        require(block.timestamp < ad.start);\n\n        delete _requestApproval[_adId];\n        _inventoryAdCount[_inventoryId]++;\n        _inventoryWaitAdCount[_inventoryId]--;\n        _adToInventory[_adId] = _inventoryId;\n\n        emit AdApproved(_adId, _inventoryId);\n    }\n\n    function rejectAd(uint256 _inventoryId, uint256 _adId) external {\n        require(\n            _requestApproval[_adId] == _inventoryId,\n            \"Advertising for the target inventory is not currently under review\");\n\n        AdNetworkSet.Inventory storage inventory = _inventories.get(_inventoryId);\n        require(\n            inventory.owner == msg.sender,\n            \"Only inventory owners can reject ads.\");\n\n        delete _requestApproval[_adId];\n        _inventoryWaitAdCount[_inventoryId]--;\n        AdNetworkSet.Ad storage ad = _ads.get(_adId);\n        address payable adOwner = ad.owner;\n        uint paybackPrice = ad.price;\n\n        (bool r,) = adOwner.call{value : paybackPrice}(\"\");\n        require(r, \"Failed to payback lock values\");\n        _ads.remove(_adId);\n\n        emit AdRejected(_adId, _inventoryId);\n    }\n\n    function collectAd(uint256 _inventoryId, uint _adId) external {\n        require(\n            _adToInventory[_adId] == _inventoryId,\n            \"Only ads that are in the inventory can be collected.\");\n\n        AdNetworkSet.Ad storage ad = _ads.get(_adId);\n        require(\n            block.timestamp >= ad.end,\n            \"Only ads that have expired can be collected.\");\n        AdNetworkSet.Inventory storage inventory = _inventories.get(_inventoryId);\n        require(\n            msg.sender == inventory.owner ||\n            msg.sender == ad.owner,\n            \"Only the owner of the inventory or the owner of the ad can collect the ad.\");\n\n        if (msg.sender == inventory.owner) {\n            inventory.owner.transfer(ad.price);\n        } else if (msg.sender == ad.owner) {\n            uint256 maxGasFee = (ad.price / 10).min(tx.gasprice).min(MAX_CACHE_BACK_GAS_FEE);\n            ad.owner.transfer(maxGasFee);\n            inventory.owner.transfer(ad.price - maxGasFee);\n        }\n\n        delete _adToInventory[_adId];\n        _ownerAdCount[ad.owner]--;\n        _inventoryAdCount[_inventoryId]--;\n        _ads.remove(_adId);\n        _inventories.remove(_inventoryId);\n    }\n\n    function getAdsOf(uint256 _inventoryId) external view returns (\n        uint256[] memory adIds,\n        uint256[] memory inventoryIds,\n        bytes32[] memory adHashes,\n        bytes32[] memory adHashForDeliveries,\n        uint32[] memory starts,\n        uint32[] memory ends\n    ) {\n        uint inventoryAdCount = _inventoryAdCount[_inventoryId];\n        adIds = new uint256[](inventoryAdCount);\n        inventoryIds = new uint256[](inventoryAdCount);\n        adHashes = new bytes32[](inventoryAdCount);\n        adHashForDeliveries = new bytes32[](inventoryAdCount);\n        starts = new uint32[](inventoryAdCount);\n        ends = new uint32[](inventoryAdCount);\n\n        uint adIdx = 0;\n        for (uint idx = 0; idx < _ads._values.length; idx++) {\n            AdNetworkSet.Ad storage ad = _ads._values[idx];\n            if (_adToInventory[ad.adId] != _inventoryId) {\n                continue;\n            }\n\n            adIds[adIdx] = ad.adId;\n            adHashes[adIdx] = ad.hash;\n            adHashForDeliveries[adIdx] = ad.hashForDelivery;\n            starts[adIdx] = ad.start;\n            ends[adIdx] = ad.end;\n            adIdx++;\n        }\n    }\n\n    function getAdsByOwnerAddress(address _ownerAddress) external view returns (\n        uint256[] memory adIds,\n        uint256[] memory inventoryIds,\n        bytes32[] memory adHashes,\n        uint32[] memory starts,\n        uint32[] memory ends,\n        bool[] memory approved\n    ) {\n        uint inventoryAdCount = _ownerAdCount[_ownerAddress];\n\n        adIds = new uint256[](inventoryAdCount);\n        inventoryIds = new uint256[](inventoryAdCount);\n        adHashes = new bytes32[](inventoryAdCount);\n        starts = new uint32[](inventoryAdCount);\n        ends = new uint32[](inventoryAdCount);\n        approved = new bool[](inventoryAdCount);\n\n        uint adIdx = 0;\n        for (uint idx = 0; idx < _ads._values.length; idx++) {\n            AdNetworkSet.Ad storage ad = _ads._values[idx];\n            if (ad.owner != _ownerAddress) {\n                continue;\n            }\n\n            adIds[adIdx] = ad.adId;\n            inventoryIds[adIdx] = ad.inventoryId;\n            adHashes[adIdx] = ad.hash;\n            starts[adIdx] = ad.start;\n            ends[adIdx] = ad.end;\n            approved[adIdx] = _adToInventory[ad.adId] == ad.inventoryId;\n            adIdx++;\n        }\n    }\n\n    function getAdsWaitingForApprovalOf(uint256 _inventoryId) external view returns (\n        uint256[] memory adIds,\n        uint256[] memory inventoryIds,\n        bytes32[] memory adHashes,\n        uint32[] memory starts,\n        uint32[] memory ends\n    ) {\n        uint inventoryWaitAdCount = _inventoryWaitAdCount[_inventoryId];\n\n        adIds = new uint256[](inventoryWaitAdCount);\n        inventoryIds = new uint256[](inventoryWaitAdCount);\n        adHashes = new bytes32[](inventoryWaitAdCount);\n        starts = new uint32[](inventoryWaitAdCount);\n        ends = new uint32[](inventoryWaitAdCount);\n\n        uint adIdx = 0;\n        for (uint idx = 0; idx < _ads._values.length; idx++) {\n            AdNetworkSet.Ad storage ad = _ads._values[idx];\n            if (_requestApproval[ad.adId] != _inventoryId) {\n                continue;\n            }\n\n            adIds[adIdx] = ad.adId;\n            inventoryIds[adIdx] = ad.inventoryId;\n            adHashes[adIdx] = ad.hash;\n            starts[adIdx] = ad.start;\n            ends[adIdx] = ad.end;\n            adIdx++;\n        }\n    }\n\n    function getInventory(uint256 _inventoryId) external view returns (\n        uint256 inventoryId,\n        address owner,\n        string memory name,\n        string memory uri,\n        string memory publicKey,\n        uint256 floorPrice\n    ) {\n        AdNetworkSet.Inventory storage inventory = _inventories.get(_inventoryId);\n        require(inventory.inventoryId == _inventoryId, \"requested inventory id is invalid\");\n\n        inventoryId = inventory.inventoryId;\n        owner = inventory.owner;\n        name = inventory.name;\n        uri = inventory.uri;\n        publicKey = inventory.publicKey;\n        floorPrice = inventory.floorPrice;\n    }\n\n    function getInventories(uint offset, uint limit) external view returns (\n        uint256[] memory inventoryIds,\n        address[] memory owners,\n        string[] memory names,\n        string[] memory uris,\n        string[] memory publicKeys,\n        uint256[] memory floorPrices\n    ) {\n        require(limit > 0 && limit <= 50, \"Inventory can be retrieve up to 30 items at the same time\");\n        require(offset >= 0 && offset <= _inventories._values.length);\n\n        uint upper = _inventories._values.length.min(offset + limit);\n        inventoryIds = new uint256[](upper);\n        owners = new address[](upper);\n        names = new string[](upper);\n        uris = new string[](upper);\n        publicKeys = new string[](upper);\n        floorPrices = new uint256[](upper);\n\n        uint inventoryIdx = 0;\n        for (uint idx = offset; idx < upper; idx++) {\n            AdNetworkSet.Inventory storage inventory = _inventories._values[idx];\n\n            inventoryIds[inventoryIdx] = inventory.inventoryId;\n            owners[inventoryIdx] = inventory.owner;\n            names[inventoryIdx] = inventory.name;\n            uris[inventoryIdx] = inventory.uri;\n            publicKeys[inventoryIdx] = inventory.publicKey;\n            floorPrices[inventoryIdx] = inventory.floorPrice;\n            inventoryIdx++;\n        }\n    }\n\n    function getExpiredAdIds(uint256 _inventoryId) external view returns (uint256[] memory) {\n        uint expireCounts = 0;\n        for (uint idx = 0; idx < _ads._values.length; idx++) {\n            AdNetworkSet.Ad storage ad = _ads._values[idx];\n            if (_adToInventory[ad.adId] != _inventoryId) {\n                continue;\n            }\n            if (ad.end > block.timestamp) {\n                expireCounts++;\n            }\n        }\n\n        uint256[] memory expiredAdIds = new uint256[](expireCounts);\n        expireCounts = 0;\n        for (uint idx = 0; idx < _ads._values.length; idx++) {\n            AdNetworkSet.Ad storage ad = _ads._values[idx];\n            if (_adToInventory[ad.adId] != _inventoryId) {\n                continue;\n            }\n            if (ad.end > block.timestamp) {\n                expiredAdIds[expireCounts] = ad.adId;\n                expireCounts++;\n            }\n        }\n        return expiredAdIds;\n    }\n\n}\n",
  "sourcePath": "/Users/admin/IdeaProjects/blockchain-adnetwork/adnetwork-contracts/contracts/AdNetwork.sol",
  "compiler": {
    "name": "solc",
    "version": "0.8.11+commit.d7f03943.Emscripten.clang"
  },
  "schemaVersion": "3.4.4",
  "updatedAt": "2022-02-13T13:06:19.903Z",
  "networkType": "ethereum",
  "devdoc": {
    "kind": "dev",
    "methods": {},
    "stateVariables": {
      "MIN_DELIVERY_TIME": {
        "details": "Delivery time must be at least 1 hour."
      },
      "MIN_TIME_REQUIRED_TO_START_DELIVERY": {
        "details": "Since there is a high possibility that the screening will not be completed in time, it is necessary to allow at least 12 hours before the distribution starts."
      }
    },
    "version": 1
  },
  "userdoc": {
    "kind": "user",
    "methods": {},
    "version": 1
  }
}