{
  "contractName": "AdNetwork",
  "abi": [
    {
      "inputs": [],
      "stateMutability": "nonpayable",
      "type": "constructor"
    },
    {
      "anonymous": false,
      "inputs": [
        {
          "indexed": true,
          "internalType": "uint256",
          "name": "adId",
          "type": "uint256"
        },
        {
          "indexed": false,
          "internalType": "uint256",
          "name": "inventoryId",
          "type": "uint256"
        }
      ],
      "name": "AdApproved",
      "type": "event"
    },
    {
      "anonymous": false,
      "inputs": [
        {
          "indexed": true,
          "internalType": "uint256",
          "name": "inventoryId",
          "type": "uint256"
        },
        {
          "indexed": false,
          "internalType": "uint256",
          "name": "adId",
          "type": "uint256"
        }
      ],
      "name": "AdCreated",
      "type": "event"
    },
    {
      "anonymous": false,
      "inputs": [
        {
          "indexed": true,
          "internalType": "uint256",
          "name": "adId",
          "type": "uint256"
        },
        {
          "indexed": false,
          "internalType": "uint256",
          "name": "inventoryId",
          "type": "uint256"
        }
      ],
      "name": "AdRejected",
      "type": "event"
    },
    {
      "anonymous": false,
      "inputs": [
        {
          "indexed": true,
          "internalType": "uint256",
          "name": "inventoryId",
          "type": "uint256"
        },
        {
          "indexed": false,
          "internalType": "bytes32",
          "name": "requestHash",
          "type": "bytes32"
        },
        {
          "indexed": false,
          "internalType": "bytes32",
          "name": "adHash",
          "type": "bytes32"
        }
      ],
      "name": "AdReviewRequestSent",
      "type": "event"
    },
    {
      "anonymous": false,
      "inputs": [
        {
          "indexed": false,
          "internalType": "uint256",
          "name": "inventoryId",
          "type": "uint256"
        }
      ],
      "name": "InventoryCreated",
      "type": "event"
    },
    {
      "inputs": [
        {
          "internalType": "string",
          "name": "name",
          "type": "string"
        },
        {
          "internalType": "string",
          "name": "uri",
          "type": "string"
        },
        {
          "internalType": "string",
          "name": "publicKey",
          "type": "string"
        },
        {
          "internalType": "uint256",
          "name": "floorPrice",
          "type": "uint256"
        }
      ],
      "name": "createAdInventory",
      "outputs": [
        {
          "internalType": "uint256",
          "name": "",
          "type": "uint256"
        }
      ],
      "stateMutability": "nonpayable",
      "type": "function"
    },
    {
      "inputs": [
        {
          "internalType": "uint256",
          "name": "_inventoryId",
          "type": "uint256"
        }
      ],
      "name": "removeAdInventory",
      "outputs": [],
      "stateMutability": "nonpayable",
      "type": "function"
    },
    {
      "inputs": [
        {
          "internalType": "uint256",
          "name": "_inventoryId",
          "type": "uint256"
        },
        {
          "internalType": "bytes32",
          "name": "_hash",
          "type": "bytes32"
        },
        {
          "internalType": "bytes32",
          "name": "_hashForDelivery",
          "type": "bytes32"
        },
        {
          "internalType": "uint32",
          "name": "_start",
          "type": "uint32"
        },
        {
          "internalType": "uint32",
          "name": "_end",
          "type": "uint32"
        }
      ],
      "name": "createAd",
      "outputs": [
        {
          "internalType": "uint256",
          "name": "",
          "type": "uint256"
        }
      ],
      "stateMutability": "payable",
      "type": "function",
      "payable": true
    },
    {
      "inputs": [
        {
          "internalType": "uint256",
          "name": "_inventoryId",
          "type": "uint256"
        },
        {
          "internalType": "uint256",
          "name": "_adId",
          "type": "uint256"
        }
      ],
      "name": "approveAd",
      "outputs": [],
      "stateMutability": "nonpayable",
      "type": "function"
    },
    {
      "inputs": [
        {
          "internalType": "uint256",
          "name": "_inventoryId",
          "type": "uint256"
        },
        {
          "internalType": "uint256",
          "name": "_adId",
          "type": "uint256"
        }
      ],
      "name": "rejectAd",
      "outputs": [],
      "stateMutability": "nonpayable",
      "type": "function"
    },
    {
      "inputs": [
        {
          "internalType": "uint256",
          "name": "_inventoryId",
          "type": "uint256"
        },
        {
          "internalType": "uint256",
          "name": "_adId",
          "type": "uint256"
        }
      ],
      "name": "collectAd",
      "outputs": [],
      "stateMutability": "nonpayable",
      "type": "function"
    },
    {
      "inputs": [
        {
          "internalType": "uint256",
          "name": "_inventoryId",
          "type": "uint256"
        }
      ],
      "name": "getAdsOf",
      "outputs": [
        {
          "internalType": "uint256[]",
          "name": "adIds",
          "type": "uint256[]"
        },
        {
          "internalType": "uint256[]",
          "name": "inventoryIds",
          "type": "uint256[]"
        },
        {
          "internalType": "bytes32[]",
          "name": "adHashes",
          "type": "bytes32[]"
        },
        {
          "internalType": "bytes32[]",
          "name": "adHashForDeliveries",
          "type": "bytes32[]"
        },
        {
          "internalType": "uint32[]",
          "name": "starts",
          "type": "uint32[]"
        },
        {
          "internalType": "uint32[]",
          "name": "ends",
          "type": "uint32[]"
        },
        {
          "internalType": "bool[]",
          "name": "approved",
          "type": "bool[]"
        }
      ],
      "stateMutability": "view",
      "type": "function",
      "constant": true
    },
    {
      "inputs": [
        {
          "internalType": "address",
          "name": "_ownerAddress",
          "type": "address"
        }
      ],
      "name": "getAdsByOwnerAddress",
      "outputs": [
        {
          "internalType": "uint256[]",
          "name": "adIds",
          "type": "uint256[]"
        },
        {
          "internalType": "uint256[]",
          "name": "inventoryIds",
          "type": "uint256[]"
        },
        {
          "internalType": "bytes32[]",
          "name": "adHashes",
          "type": "bytes32[]"
        },
        {
          "internalType": "uint32[]",
          "name": "starts",
          "type": "uint32[]"
        },
        {
          "internalType": "uint32[]",
          "name": "ends",
          "type": "uint32[]"
        },
        {
          "internalType": "bool[]",
          "name": "approved",
          "type": "bool[]"
        }
      ],
      "stateMutability": "view",
      "type": "function",
      "constant": true
    },
    {
      "inputs": [
        {
          "internalType": "address",
          "name": "_ownerAddress",
          "type": "address"
        }
      ],
      "name": "getInventoriesByOwnerAddress",
      "outputs": [
        {
          "internalType": "uint256[]",
          "name": "inventoryIds",
          "type": "uint256[]"
        },
        {
          "internalType": "address[]",
          "name": "owners",
          "type": "address[]"
        },
        {
          "internalType": "string[]",
          "name": "names",
          "type": "string[]"
        },
        {
          "internalType": "string[]",
          "name": "uris",
          "type": "string[]"
        },
        {
          "internalType": "string[]",
          "name": "publicKeys",
          "type": "string[]"
        },
        {
          "internalType": "uint256[]",
          "name": "floorPrices",
          "type": "uint256[]"
        }
      ],
      "stateMutability": "view",
      "type": "function",
      "constant": true
    },
    {
      "inputs": [
        {
          "internalType": "uint256",
          "name": "_inventoryId",
          "type": "uint256"
        }
      ],
      "name": "getAdsWaitingForApprovalOf",
      "outputs": [
        {
          "internalType": "uint256[]",
          "name": "adIds",
          "type": "uint256[]"
        },
        {
          "internalType": "uint256[]",
          "name": "inventoryIds",
          "type": "uint256[]"
        },
        {
          "internalType": "bytes32[]",
          "name": "adHashes",
          "type": "bytes32[]"
        },
        {
          "internalType": "uint32[]",
          "name": "starts",
          "type": "uint32[]"
        },
        {
          "internalType": "uint32[]",
          "name": "ends",
          "type": "uint32[]"
        }
      ],
      "stateMutability": "view",
      "type": "function",
      "constant": true
    },
    {
      "inputs": [
        {
          "internalType": "uint256",
          "name": "_inventoryId",
          "type": "uint256"
        }
      ],
      "name": "getInventory",
      "outputs": [
        {
          "internalType": "uint256",
          "name": "inventoryId",
          "type": "uint256"
        },
        {
          "internalType": "address",
          "name": "owner",
          "type": "address"
        },
        {
          "internalType": "string",
          "name": "name",
          "type": "string"
        },
        {
          "internalType": "string",
          "name": "uri",
          "type": "string"
        },
        {
          "internalType": "string",
          "name": "publicKey",
          "type": "string"
        },
        {
          "internalType": "uint256",
          "name": "floorPrice",
          "type": "uint256"
        }
      ],
      "stateMutability": "view",
      "type": "function",
      "constant": true
    },
    {
      "inputs": [
        {
          "internalType": "uint256",
          "name": "offset",
          "type": "uint256"
        },
        {
          "internalType": "uint256",
          "name": "limit",
          "type": "uint256"
        }
      ],
      "name": "getInventories",
      "outputs": [
        {
          "internalType": "uint256[]",
          "name": "inventoryIds",
          "type": "uint256[]"
        },
        {
          "internalType": "address[]",
          "name": "owners",
          "type": "address[]"
        },
        {
          "internalType": "string[]",
          "name": "names",
          "type": "string[]"
        },
        {
          "internalType": "string[]",
          "name": "uris",
          "type": "string[]"
        },
        {
          "internalType": "string[]",
          "name": "publicKeys",
          "type": "string[]"
        },
        {
          "internalType": "uint256[]",
          "name": "floorPrices",
          "type": "uint256[]"
        }
      ],
      "stateMutability": "view",
      "type": "function",
      "constant": true
    },
    {
      "inputs": [
        {
          "internalType": "uint256",
          "name": "_inventoryId",
          "type": "uint256"
        }
      ],
      "name": "getExpiredAdIds",
      "outputs": [
        {
          "internalType": "uint256[]",
          "name": "",
          "type": "uint256[]"
        }
      ],
      "stateMutability": "view",
      "type": "function",
      "constant": true
    }
  ],
  "bytecode": "0x608060405234801561001057600080fd5b5061568e80620000216000396000f3fe6080604052600436106100c25760003560e01c80635b298d321161007f578063d68fb2fc11610059578063d68fb2fc146102b0578063e815c06e146102f2578063eba58b3e14610322578063fd58ac9c14610364576100c2565b80635b298d321461020357806372af45561461024557806383739c3014610287576100c2565b806304216974146100c757806313f25e46146100f057806324bfee7d146101315780632e9d3ffb1461016e57806331eae26114610197578063518de44d146101da575b600080fd5b3480156100d357600080fd5b506100ee60048036038101906100e99190613abb565b6103a1565b005b3480156100fc57600080fd5b5061011760048036038101906101129190613afb565b610655565b604051610128959493929190613d7c565b60405180910390f35b34801561013d57600080fd5b5061015860048036038101906101539190613afb565b610982565b6040516101659190613df2565b60405180910390f35b34801561017a57600080fd5b5061019560048036038101906101909190613afb565b610b52565b005b3480156101a357600080fd5b506101be60048036038101906101b99190613afb565b610c81565b6040516101d19796959493929190613ede565b60405180910390f35b3480156101e657600080fd5b5061020160048036038101906101fc9190613abb565b61108c565b005b34801561020f57600080fd5b5061022a60048036038101906102259190613afb565b611346565b60405161023c96959493929190614067565b60405180910390f35b34801561025157600080fd5b5061026c60048036038101906102679190613abb565b611599565b60405161027e969594939291906142a7565b60405180910390f35b34801561029357600080fd5b506102ae60048036038101906102a99190613abb565b611b31565b005b3480156102bc57600080fd5b506102d760048036038101906102d2919061435e565b612080565b6040516102e9969594939291906142a7565b60405180910390f35b61030c600480360381019061030791906143e3565b612638565b604051610319919061445e565b60405180910390f35b34801561032e57600080fd5b506103496004803603810190610344919061435e565b612a6d565b60405161035b96959493929190614479565b60405180910390f35b34801561037057600080fd5b5061038b60048036038101906103869190614639565b612e8e565b604051610398919061445e565b60405180910390f35b816006600083815260200190815260200160002054146103f6576040517f08c379a00000000000000000000000000000000000000000000000000000000081526004016103ed9061478c565b60405180910390fd5b600061040c836001612fe190919063ffffffff16565b90503373ffffffffffffffffffffffffffffffffffffffff168160010160009054906101000a900473ffffffffffffffffffffffffffffffffffffffff1673ffffffffffffffffffffffffffffffffffffffff16146104a0576040517f08c379a00000000000000000000000000000000000000000000000000000000081526004016104979061481e565b60405180910390fd5b6006600083815260200190815260200160002060009055600c6000848152602001908152602001600020600081819054906101000a900463ffffffff16809291906104ea9061486d565b91906101000a81548163ffffffff021916908363ffffffff16021790555050600061051f83600461307990919063ffffffff16565b905060008160020160009054906101000a900473ffffffffffffffffffffffffffffffffffffffff16905060008260060154905060008273ffffffffffffffffffffffffffffffffffffffff1682604051610579906148c8565b60006040518083038185875af1925050503d80600081146105b6576040519150601f19603f3d011682016040523d82523d6000602084013e6105bb565b606091505b50509050806105ff576040517f08c379a00000000000000000000000000000000000000000000000000000000081526004016105f690614929565b60405180910390fd5b61061386600461311190919063ffffffff16565b50857fec59ec7badaba136e5e5c61eb40f664c254682415c2e42cad5bd1f46aa90f8dd88604051610644919061445e565b60405180910390a250505050505050565b60608060608060606000600c600088815260200190815260200160002060009054906101000a900463ffffffff1663ffffffff1690508067ffffffffffffffff8111156106a5576106a461450e565b5b6040519080825280602002602001820160405280156106d35781602001602082028036833780820191505090505b5095508067ffffffffffffffff8111156106f0576106ef61450e565b5b60405190808252806020026020018201604052801561071e5781602001602082028036833780820191505090505b5094508067ffffffffffffffff81111561073b5761073a61450e565b5b6040519080825280602002602001820160405280156107695781602001602082028036833780820191505090505b5093508067ffffffffffffffff8111156107865761078561450e565b5b6040519080825280602002602001820160405280156107b45781602001602082028036833780820191505090505b5092508067ffffffffffffffff8111156107d1576107d061450e565b5b6040519080825280602002602001820160405280156107ff5781602001602082028036833780820191505090505b5091506000805b6004600001805490508110156109765760006004600001828154811061082f5761082e614949565b5b9060005260206000209060070201905089600660008360000154815260200190815260200160002054146108635750610963565b806000015489848151811061087b5761087a614949565b5b602002602001018181525050806001015488848151811061089f5761089e614949565b5b60200260200101818152505080600301548784815181106108c3576108c2614949565b5b6020026020010181815250508060050160009054906101000a900463ffffffff168684815181106108f7576108f6614949565b5b602002602001019063ffffffff16908163ffffffff16815250508060050160049054906101000a900463ffffffff1685848151811061093957610938614949565b5b602002602001019063ffffffff16908163ffffffff1681525050828061095e90614978565b935050505b808061096e90614978565b915050610806565b50505091939590929450565b60606000805b600460000180549050811015610a2b576000600460000182815481106109b1576109b0614949565b5b9060005260206000209060070201905084600760008360000154815260200190815260200160002054146109e55750610a18565b428160050160049054906101000a900463ffffffff1663ffffffff161115610a16578280610a1290614978565b9350505b505b8080610a2390614978565b915050610988565b5060008167ffffffffffffffff811115610a4857610a4761450e565b5b604051908082528060200260200182016040528015610a765781602001602082028036833780820191505090505b5090506000915060005b600460000180549050811015610b4757600060046000018281548110610aa957610aa8614949565b5b906000526020600020906007020190508560076000836000015481526020019081526020016000205414610add5750610b34565b428160050160049054906101000a900463ffffffff1663ffffffff161115610b32578060000154838581518110610b1757610b16614949565b5b6020026020010181815250508380610b2e90614978565b9450505b505b8080610b3f90614978565b915050610a80565b508092505050919050565b6000600b600083815260200190815260200160002060009054906101000a900463ffffffff1663ffffffff1614610bbe576040517f08c379a0000000000000000000000000000000000000000000000000000000008152600401610bb590614a59565b60405180910390fd5b6000610bd4826001612fe190919063ffffffff16565b90503373ffffffffffffffffffffffffffffffffffffffff168160010160009054906101000a900473ffffffffffffffffffffffffffffffffffffffff1673ffffffffffffffffffffffffffffffffffffffff1614610c68576040517f08c379a0000000000000000000000000000000000000000000000000000000008152600401610c5f90614aeb565b60405180910390fd5b610c7c8260016133b690919063ffffffff16565b505050565b60608060608060608060606000600b60008a815260200190815260200160002060009054906101000a900463ffffffff1663ffffffff1690508067ffffffffffffffff811115610cd457610cd361450e565b5b604051908082528060200260200182016040528015610d025781602001602082028036833780820191505090505b5097508067ffffffffffffffff811115610d1f57610d1e61450e565b5b604051908082528060200260200182016040528015610d4d5781602001602082028036833780820191505090505b5096508067ffffffffffffffff811115610d6a57610d6961450e565b5b604051908082528060200260200182016040528015610d985781602001602082028036833780820191505090505b5095508067ffffffffffffffff811115610db557610db461450e565b5b604051908082528060200260200182016040528015610de35781602001602082028036833780820191505090505b5094508067ffffffffffffffff811115610e0057610dff61450e565b5b604051908082528060200260200182016040528015610e2e5781602001602082028036833780820191505090505b5093508067ffffffffffffffff811115610e4b57610e4a61450e565b5b604051908082528060200260200182016040528015610e795781602001602082028036833780820191505090505b5092508067ffffffffffffffff811115610e9657610e9561450e565b5b604051908082528060200260200182016040528015610ec45781602001602082028036833780820191505090505b5091506000805b60046000018054905081101561107e57600060046000018281548110610ef457610ef3614949565b5b906000526020600020906007020190508b60076000836000015481526020019081526020016000205414610f28575061106b565b80600001548b8481518110610f4057610f3f614949565b5b6020026020010181815250508060030154898481518110610f6457610f63614949565b5b6020026020010181815250508060040154888481518110610f8857610f87614949565b5b6020026020010181815250508060050160009054906101000a900463ffffffff16878481518110610fbc57610fbb614949565b5b602002602001019063ffffffff16908163ffffffff16815250508060050160049054906101000a900463ffffffff16868481518110610ffe57610ffd614949565b5b602002602001019063ffffffff16908163ffffffff168152505080600101546007600083600001548152602001908152602001600020541485848151811061104957611048614949565b5b602002602001019015159081151581525050828061106690614978565b935050505b808061107690614978565b915050610ecb565b505050919395979092949650565b600a600b600084815260200190815260200160002060009054906101000a900463ffffffff1663ffffffff16106110f8576040517f08c379a00000000000000000000000000000000000000000000000000000000081526004016110ef90614ba3565b60405180910390fd5b8160066000838152602001908152602001600020541461114d576040517f08c379a00000000000000000000000000000000000000000000000000000000081526004016111449061478c565b60405180910390fd5b6000611163836001612fe190919063ffffffff16565b90503373ffffffffffffffffffffffffffffffffffffffff168160010160009054906101000a900473ffffffffffffffffffffffffffffffffffffffff1673ffffffffffffffffffffffffffffffffffffffff16146111f7576040517f08c379a00000000000000000000000000000000000000000000000000000000081526004016111ee90614c35565b60405180910390fd5b600061120d83600461307990919063ffffffff16565b90508060050160009054906101000a900463ffffffff1663ffffffff16421061123557600080fd5b6006600084815260200190815260200160002060009055600b6000858152602001908152602001600020600081819054906101000a900463ffffffff168092919061127f90614c55565b91906101000a81548163ffffffff021916908363ffffffff16021790555050600c6000858152602001908152602001600020600081819054906101000a900463ffffffff16809291906112d19061486d565b91906101000a81548163ffffffff021916908363ffffffff16021790555050836007600085815260200190815260200160002081905550827f01bc73444a1de7fde87f242676d52ebb9e3d193f9dd4837e1de58bc79e42103285604051611338919061445e565b60405180910390a250505050565b6000806060806060600080611365886001612fe190919063ffffffff16565b9050878160000154146113ad576040517f08c379a00000000000000000000000000000000000000000000000000000000081526004016113a490614cf4565b60405180910390fd5b806000015496508060010160009054906101000a900473ffffffffffffffffffffffffffffffffffffffff1695508060020180546113ea90614d43565b80601f016020809104026020016040519081016040528092919081815260200182805461141690614d43565b80156114635780601f1061143857610100808354040283529160200191611463565b820191906000526020600020905b81548152906001019060200180831161144657829003601f168201915b5050505050945080600301805461147990614d43565b80601f01602080910402602001604051908101604052809291908181526020018280546114a590614d43565b80156114f25780601f106114c7576101008083540402835291602001916114f2565b820191906000526020600020905b8154815290600101906020018083116114d557829003601f168201915b5050505050935080600401805461150890614d43565b80601f016020809104026020016040519081016040528092919081815260200182805461153490614d43565b80156115815780601f1061155657610100808354040283529160200191611581565b820191906000526020600020905b81548152906001019060200180831161156457829003601f168201915b50505050509250806005015491505091939550919395565b6060806060806060806000871180156115b3575060328711155b6115f2576040517f08c379a00000000000000000000000000000000000000000000000000000000081526004016115e990614de7565b60405180910390fd5b6000881015801561160b57506001600001805490508811155b61161457600080fd5b600061163c888a6116259190614e07565b60016000018054905061361990919063ffffffff16565b90508067ffffffffffffffff8111156116585761165761450e565b5b6040519080825280602002602001820160405280156116865781602001602082028036833780820191505090505b5096508067ffffffffffffffff8111156116a3576116a261450e565b5b6040519080825280602002602001820160405280156116d15781602001602082028036833780820191505090505b5095508067ffffffffffffffff8111156116ee576116ed61450e565b5b60405190808252806020026020018201604052801561172157816020015b606081526020019060019003908161170c5790505b5094508067ffffffffffffffff81111561173e5761173d61450e565b5b60405190808252806020026020018201604052801561177157816020015b606081526020019060019003908161175c5790505b5093508067ffffffffffffffff81111561178e5761178d61450e565b5b6040519080825280602002602001820160405280156117c157816020015b60608152602001906001900390816117ac5790505b5092508067ffffffffffffffff8111156117de576117dd61450e565b5b60405190808252806020026020018201604052801561180c5781602001602082028036833780820191505090505b5091506000808a90505b82811015611b245760006001600001828154811061183757611836614949565b5b9060005260206000209060060201905080600001548a848151811061185f5761185e614949565b5b6020026020010181815250508060010160009054906101000a900473ffffffffffffffffffffffffffffffffffffffff168984815181106118a3576118a2614949565b5b602002602001019073ffffffffffffffffffffffffffffffffffffffff16908173ffffffffffffffffffffffffffffffffffffffff16815250508060020180546118ec90614d43565b80601f016020809104026020016040519081016040528092919081815260200182805461191890614d43565b80156119655780601f1061193a57610100808354040283529160200191611965565b820191906000526020600020905b81548152906001019060200180831161194857829003601f168201915b505050505088848151811061197d5761197c614949565b5b602002602001018190525080600301805461199790614d43565b80601f01602080910402602001604051908101604052809291908181526020018280546119c390614d43565b8015611a105780601f106119e557610100808354040283529160200191611a10565b820191906000526020600020905b8154815290600101906020018083116119f357829003601f168201915b5050505050878481518110611a2857611a27614949565b5b6020026020010181905250806004018054611a4290614d43565b80601f0160208091040260200160405190810160405280929190818152602001828054611a6e90614d43565b8015611abb5780601f10611a9057610100808354040283529160200191611abb565b820191906000526020600020905b815481529060010190602001808311611a9e57829003601f168201915b5050505050868481518110611ad357611ad2614949565b5b60200260200101819052508060050154858481518110611af657611af5614949565b5b6020026020010181815250508280611b0d90614978565b935050508080611b1c90614978565b915050611816565b5050509295509295509295565b81600760008381526020019081526020016000205414611b86576040517f08c379a0000000000000000000000000000000000000000000000000000000008152600401611b7d90614ecf565b60405180910390fd5b6000611b9c82600461307990919063ffffffff16565b90508060050160049054906101000a900463ffffffff1663ffffffff16421015611bfb576040517f08c379a0000000000000000000000000000000000000000000000000000000008152600401611bf290614f61565b60405180910390fd5b6000611c11846001612fe190919063ffffffff16565b90508060010160009054906101000a900473ffffffffffffffffffffffffffffffffffffffff1673ffffffffffffffffffffffffffffffffffffffff163373ffffffffffffffffffffffffffffffffffffffff161480611cc057508160020160009054906101000a900473ffffffffffffffffffffffffffffffffffffffff1673ffffffffffffffffffffffffffffffffffffffff163373ffffffffffffffffffffffffffffffffffffffff16145b611cff576040517f08c379a0000000000000000000000000000000000000000000000000000000008152600401611cf690615019565b60405180910390fd5b8060010160009054906101000a900473ffffffffffffffffffffffffffffffffffffffff1673ffffffffffffffffffffffffffffffffffffffff163373ffffffffffffffffffffffffffffffffffffffff161415611dcb578060010160009054906101000a900473ffffffffffffffffffffffffffffffffffffffff1673ffffffffffffffffffffffffffffffffffffffff166108fc83600601549081150290604051600060405180830381858888f19350505050158015611dc5573d6000803e3d6000fd5b50611f45565b8160020160009054906101000a900473ffffffffffffffffffffffffffffffffffffffff1673ffffffffffffffffffffffffffffffffffffffff163373ffffffffffffffffffffffffffffffffffffffff161415611f44576000611e5b600a611e4d3a600a8760060154611e3f9190615068565b61361990919063ffffffff16565b61361990919063ffffffff16565b90508260020160009054906101000a900473ffffffffffffffffffffffffffffffffffffffff1673ffffffffffffffffffffffffffffffffffffffff166108fc829081150290604051600060405180830381858888f19350505050158015611ec7573d6000803e3d6000fd5b508160010160009054906101000a900473ffffffffffffffffffffffffffffffffffffffff1673ffffffffffffffffffffffffffffffffffffffff166108fc828560060154611f169190615099565b9081150290604051600060405180830381858888f19350505050158015611f41573d6000803e3d6000fd5b50505b5b6007600084815260200190815260200160002060009055600960008360020160009054906101000a900473ffffffffffffffffffffffffffffffffffffffff1673ffffffffffffffffffffffffffffffffffffffff1673ffffffffffffffffffffffffffffffffffffffff168152602001908152602001600020600081819054906101000a900463ffffffff1680929190611fdf9061486d565b91906101000a81548163ffffffff021916908363ffffffff16021790555050600b6000858152602001908152602001600020600081819054906101000a900463ffffffff16809291906120319061486d565b91906101000a81548163ffffffff021916908363ffffffff1602179055505061206483600461311190919063ffffffff16565b506120798460016133b690919063ffffffff16565b5050505050565b6060806060806060806000600a60008973ffffffffffffffffffffffffffffffffffffffff1673ffffffffffffffffffffffffffffffffffffffff16815260200190815260200160002060009054906101000a900463ffffffff1663ffffffff1690508067ffffffffffffffff8111156120fd576120fc61450e565b5b60405190808252806020026020018201604052801561212b5781602001602082028036833780820191505090505b5096508067ffffffffffffffff8111156121485761214761450e565b5b6040519080825280602002602001820160405280156121765781602001602082028036833780820191505090505b5095508067ffffffffffffffff8111156121935761219261450e565b5b6040519080825280602002602001820160405280156121c657816020015b60608152602001906001900390816121b15790505b5094508067ffffffffffffffff8111156121e3576121e261450e565b5b60405190808252806020026020018201604052801561221657816020015b60608152602001906001900390816122015790505b5093508067ffffffffffffffff8111156122335761223261450e565b5b60405190808252806020026020018201604052801561226657816020015b60608152602001906001900390816122515790505b5092508067ffffffffffffffff8111156122835761228261450e565b5b6040519080825280602002602001820160405280156122b15781602001602082028036833780820191505090505b5091506000805b60016000018054905081101561262c576000600160000182815481106122e1576122e0614949565b5b906000526020600020906006020190508a73ffffffffffffffffffffffffffffffffffffffff168160010160009054906101000a900473ffffffffffffffffffffffffffffffffffffffff1673ffffffffffffffffffffffffffffffffffffffff161461234e5750612619565b80600001548a848151811061236657612365614949565b5b6020026020010181815250508060010160009054906101000a900473ffffffffffffffffffffffffffffffffffffffff168984815181106123aa576123a9614949565b5b602002602001019073ffffffffffffffffffffffffffffffffffffffff16908173ffffffffffffffffffffffffffffffffffffffff16815250508060020180546123f390614d43565b80601f016020809104026020016040519081016040528092919081815260200182805461241f90614d43565b801561246c5780601f106124415761010080835404028352916020019161246c565b820191906000526020600020905b81548152906001019060200180831161244f57829003601f168201915b505050505088848151811061248457612483614949565b5b602002602001018190525080600301805461249e90614d43565b80601f01602080910402602001604051908101604052809291908181526020018280546124ca90614d43565b80156125175780601f106124ec57610100808354040283529160200191612517565b820191906000526020600020905b8154815290600101906020018083116124fa57829003601f168201915b505050505087848151811061252f5761252e614949565b5b602002602001018190525080600401805461254990614d43565b80601f016020809104026020016040519081016040528092919081815260200182805461257590614d43565b80156125c25780601f10612597576101008083540402835291602001916125c2565b820191906000526020600020905b8154815290600101906020018083116125a557829003601f168201915b50505050508684815181106125da576125d9614949565b5b602002602001018190525080600501548584815181106125fd576125fc614949565b5b602002602001018181525050828061261490614978565b935050505b808061262490614978565b9150506122b8565b50505091939550919395565b6000600a600960003373ffffffffffffffffffffffffffffffffffffffff1673ffffffffffffffffffffffffffffffffffffffff16815260200190815260200160002060009054906101000a900463ffffffff1663ffffffff16106126d2576040517f08c379a00000000000000000000000000000000000000000000000000000000081526004016126c990615165565b60405180910390fd5b8263ffffffff168263ffffffff161180156127005750610e1083836126f79190615185565b63ffffffff1610155b61273f576040517f08c379a000000000000000000000000000000000000000000000000000000000815260040161273690615277565b60405180910390fd5b428363ffffffff16118015612767575061a8c0428463ffffffff166127649190615099565b10155b6127a6576040517f08c379a000000000000000000000000000000000000000000000000000000000815260040161279d9061532f565b60405180910390fd5b600a600b600088815260200190815260200160002060009054906101000a900463ffffffff1663ffffffff1610612812576040517f08c379a000000000000000000000000000000000000000000000000000000000815260040161280990614ba3565b60405180910390fd5b6000612828876001612fe190919063ffffffff16565b90508060050154341015612871576040517f08c379a0000000000000000000000000000000000000000000000000000000008152600401612868906153c1565b60405180910390fd5b61287b6003613632565b60006128876003613648565b905060006040518061010001604052808381526020018a81526020013373ffffffffffffffffffffffffffffffffffffffff1681526020018981526020018881526020018763ffffffff1681526020018663ffffffff1681526020013481525090506128ff828260046136569092919063ffffffff16565b61293e576040517f08c379a00000000000000000000000000000000000000000000000000000000081526004016129359061542d565b60405180910390fd5b886006600084815260200190815260200160002081905550600c60008a8152602001908152602001600020600081819054906101000a900463ffffffff168092919061298990614c55565b91906101000a81548163ffffffff021916908363ffffffff16021790555050600960003373ffffffffffffffffffffffffffffffffffffffff1673ffffffffffffffffffffffffffffffffffffffff168152602001908152602001600020600081819054906101000a900463ffffffff1680929190612a0790614c55565b91906101000a81548163ffffffff021916908363ffffffff16021790555050887ff2c4fd593196bf9bbf9c80225837e14dcdd5a1f789df2a341a3f4d7181d4af4183604051612a56919061445e565b60405180910390a281935050505095945050505050565b6060806060806060806000600960008973ffffffffffffffffffffffffffffffffffffffff1673ffffffffffffffffffffffffffffffffffffffff16815260200190815260200160002060009054906101000a900463ffffffff1663ffffffff1690508067ffffffffffffffff811115612aea57612ae961450e565b5b604051908082528060200260200182016040528015612b185781602001602082028036833780820191505090505b5096508067ffffffffffffffff811115612b3557612b3461450e565b5b604051908082528060200260200182016040528015612b635781602001602082028036833780820191505090505b5095508067ffffffffffffffff811115612b8057612b7f61450e565b5b604051908082528060200260200182016040528015612bae5781602001602082028036833780820191505090505b5094508067ffffffffffffffff811115612bcb57612bca61450e565b5b604051908082528060200260200182016040528015612bf95781602001602082028036833780820191505090505b5093508067ffffffffffffffff811115612c1657612c1561450e565b5b604051908082528060200260200182016040528015612c445781602001602082028036833780820191505090505b5092508067ffffffffffffffff811115612c6157612c6061450e565b5b604051908082528060200260200182016040528015612c8f5781602001602082028036833780820191505090505b5091506000805b600460000180549050811015612e8257600060046000018281548110612cbf57612cbe614949565b5b906000526020600020906007020190508a73ffffffffffffffffffffffffffffffffffffffff168160020160009054906101000a900473ffffffffffffffffffffffffffffffffffffffff1673ffffffffffffffffffffffffffffffffffffffff1614612d2c5750612e6f565b80600001548a8481518110612d4457612d43614949565b5b6020026020010181815250508060010154898481518110612d6857612d67614949565b5b6020026020010181815250508060030154888481518110612d8c57612d8b614949565b5b6020026020010181815250508060050160009054906101000a900463ffffffff16878481518110612dc057612dbf614949565b5b602002602001019063ffffffff16908163ffffffff16815250508060050160049054906101000a900463ffffffff16868481518110612e0257612e01614949565b5b602002602001019063ffffffff16908163ffffffff1681525050806001015460076000836000015481526020019081526020016000205414858481518110612e4d57612e4c614949565b5b6020026020010190151590811515815250508280612e6a90614978565b935050505b8080612e7a90614978565b915050612c96565b50505091939550919395565b6000600a8060003373ffffffffffffffffffffffffffffffffffffffff1673ffffffffffffffffffffffffffffffffffffffff16815260200190815260200160002060009054906101000a900463ffffffff1663ffffffff1610612f27576040517f08c379a0000000000000000000000000000000000000000000000000000000008152600401612f1e9061550b565b60405180910390fd5b612f316000613632565b6000612f3d6000613648565b905060006040518060c001604052808381526020013373ffffffffffffffffffffffffffffffffffffffff168152602001888152602001878152602001868152602001858152509050612f9c828260016137939092919063ffffffff16565b507f7953a3310142a9a0726ec6fd5129a712fff3b30a59304c3489524b0e6cffc52982604051612fcc919061445e565b60405180910390a18192505050949350505050565b6000808360010160008481526020019081526020016000205490506000811415613040576040517f08c379a00000000000000000000000000000000000000000000000000000000081526004016130379061559d565b60405180910390fd5b836000016001826130519190615099565b8154811061306257613061614949565b5b906000526020600020906006020191505092915050565b60008083600101600084815260200190815260200160002054905060008114156130d8576040517f08c379a00000000000000000000000000000000000000000000000000000000081526004016130cf90615609565b60405180910390fd5b836000016001826130e99190615099565b815481106130fa576130f9614949565b5b906000526020600020906007020191505092915050565b600080836001016000848152602001908152602001600020549050600081146133aa5760006001826131439190615099565b905060006001866000018054905061315b9190615099565b90508181146132db57600086600001828154811061317c5761317b614949565b5b90600052602060002090600702019050808760000184815481106131a3576131a2614949565b5b906000526020600020906007020160008201548160000155600182015481600101556002820160009054906101000a900473ffffffffffffffffffffffffffffffffffffffff168160020160006101000a81548173ffffffffffffffffffffffffffffffffffffffff021916908373ffffffffffffffffffffffffffffffffffffffff16021790555060038201548160030155600482015481600401556005820160009054906101000a900463ffffffff168160050160006101000a81548163ffffffff021916908363ffffffff1602179055506005820160049054906101000a900463ffffffff168160050160046101000a81548163ffffffff021916908363ffffffff16021790555060068201548160060155905050828760010160008360000154815260200190815260200160002081905550505b856000018054806132ef576132ee615629565b5b600190038181906000526020600020906007020160008082016000905560018201600090556002820160006101000a81549073ffffffffffffffffffffffffffffffffffffffff0219169055600382016000905560048201600090556005820160006101000a81549063ffffffff02191690556005820160046101000a81549063ffffffff021916905560068201600090555050905585600101600086815260200190815260200160002060009055600193505050506133b0565b60009150505b92915050565b6000808360010160008481526020019081526020016000205490506000811461360d5760006001826133e89190615099565b90506000600186600001805490506134009190615099565b905081811461355457600086600001828154811061342157613420614949565b5b906000526020600020906006020190508087600001848154811061344857613447614949565b5b9060005260206000209060060201600082015481600001556001820160009054906101000a900473ffffffffffffffffffffffffffffffffffffffff168160010160006101000a81548173ffffffffffffffffffffffffffffffffffffffff021916908373ffffffffffffffffffffffffffffffffffffffff16021790555060028201816002019080546134db90614d43565b6134e6929190613901565b5060038201816003019080546134fb90614d43565b613506929190613901565b50600482018160040190805461351b90614d43565b613526929190613901565b5060058201548160050155905050828760010160008360000154815260200190815260200160002081905550505b8560000180548061356857613567615629565b5b60019003818190600052602060002090600602016000808201600090556001820160006101000a81549073ffffffffffffffffffffffffffffffffffffffff02191690556002820160006135bc919061398e565b6003820160006135cc919061398e565b6004820160006135dc919061398e565b6005820160009055505090558560010160008681526020019081526020016000206000905560019350505050613613565b60009150505b92915050565b6000818310613628578161362a565b825b905092915050565b6001816000016000828254019250508190555050565b600081600001549050919050565b600061366284846138bb565b6137875783600001829080600181540180825580915050600190039060005260206000209060070201600090919091909150600082015181600001556020820151816001015560408201518160020160006101000a81548173ffffffffffffffffffffffffffffffffffffffff021916908373ffffffffffffffffffffffffffffffffffffffff160217905550606082015181600301556080820151816004015560a08201518160050160006101000a81548163ffffffff021916908363ffffffff16021790555060c08201518160050160046101000a81548163ffffffff021916908363ffffffff16021790555060e0820151816006015550508360000180549050846001016000858152602001908152602001600020819055506001905061378c565b600090505b9392505050565b600061379f84846138de565b6138af57836000018290806001815401808255809150506001900390600052602060002090600602016000909190919091506000820151816000015560208201518160010160006101000a81548173ffffffffffffffffffffffffffffffffffffffff021916908373ffffffffffffffffffffffffffffffffffffffff160217905550604082015181600201908051906020019061383e9291906139ce565b50606082015181600301908051906020019061385b9291906139ce565b5060808201518160040190805190602001906138789291906139ce565b5060a082015181600501555050836000018054905084600101600085815260200190815260200160002081905550600190506138b4565b600090505b9392505050565b600080836001016000848152602001908152602001600020541415905092915050565b600080836001016000848152602001908152602001600020541415905092915050565b82805461390d90614d43565b90600052602060002090601f01602090048101928261392f576000855561397d565b82601f10613940578054855561397d565b8280016001018555821561397d57600052602060002091601f016020900482015b8281111561397c578254825591600101919060010190613961565b5b50905061398a9190613a54565b5090565b50805461399a90614d43565b6000825580601f106139ac57506139cb565b601f0160209004906000526020600020908101906139ca9190613a54565b5b50565b8280546139da90614d43565b90600052602060002090601f0160209004810192826139fc5760008555613a43565b82601f10613a1557805160ff1916838001178555613a43565b82800160010185558215613a43579182015b82811115613a42578251825591602001919060010190613a27565b5b509050613a509190613a54565b5090565b5b80821115613a6d576000816000905550600101613a55565b5090565b6000604051905090565b600080fd5b600080fd5b6000819050919050565b613a9881613a85565b8114613aa357600080fd5b50565b600081359050613ab581613a8f565b92915050565b60008060408385031215613ad257613ad1613a7b565b5b6000613ae085828601613aa6565b9250506020613af185828601613aa6565b9150509250929050565b600060208284031215613b1157613b10613a7b565b5b6000613b1f84828501613aa6565b91505092915050565b600081519050919050565b600082825260208201905092915050565b6000819050602082019050919050565b613b5d81613a85565b82525050565b6000613b6f8383613b54565b60208301905092915050565b6000602082019050919050565b6000613b9382613b28565b613b9d8185613b33565b9350613ba883613b44565b8060005b83811015613bd9578151613bc08882613b63565b9750613bcb83613b7b565b925050600181019050613bac565b5085935050505092915050565b600081519050919050565b600082825260208201905092915050565b6000819050602082019050919050565b6000819050919050565b613c2581613c12565b82525050565b6000613c378383613c1c565b60208301905092915050565b6000602082019050919050565b6000613c5b82613be6565b613c658185613bf1565b9350613c7083613c02565b8060005b83811015613ca1578151613c888882613c2b565b9750613c9383613c43565b925050600181019050613c74565b5085935050505092915050565b600081519050919050565b600082825260208201905092915050565b6000819050602082019050919050565b600063ffffffff82169050919050565b613cf381613cda565b82525050565b6000613d058383613cea565b60208301905092915050565b6000602082019050919050565b6000613d2982613cae565b613d338185613cb9565b9350613d3e83613cca565b8060005b83811015613d6f578151613d568882613cf9565b9750613d6183613d11565b925050600181019050613d42565b5085935050505092915050565b600060a0820190508181036000830152613d968188613b88565b90508181036020830152613daa8187613b88565b90508181036040830152613dbe8186613c50565b90508181036060830152613dd28185613d1e565b90508181036080830152613de68184613d1e565b90509695505050505050565b60006020820190508181036000830152613e0c8184613b88565b905092915050565b600081519050919050565b600082825260208201905092915050565b6000819050602082019050919050565b60008115159050919050565b613e5581613e40565b82525050565b6000613e678383613e4c565b60208301905092915050565b6000602082019050919050565b6000613e8b82613e14565b613e958185613e1f565b9350613ea083613e30565b8060005b83811015613ed1578151613eb88882613e5b565b9750613ec383613e73565b925050600181019050613ea4565b5085935050505092915050565b600060e0820190508181036000830152613ef8818a613b88565b90508181036020830152613f0c8189613b88565b90508181036040830152613f208188613c50565b90508181036060830152613f348187613c50565b90508181036080830152613f488186613d1e565b905081810360a0830152613f5c8185613d1e565b905081810360c0830152613f708184613e80565b905098975050505050505050565b613f8781613a85565b82525050565b600073ffffffffffffffffffffffffffffffffffffffff82169050919050565b6000613fb882613f8d565b9050919050565b613fc881613fad565b82525050565b600081519050919050565b600082825260208201905092915050565b60005b83811015614008578082015181840152602081019050613fed565b83811115614017576000848401525b50505050565b6000601f19601f8301169050919050565b600061403982613fce565b6140438185613fd9565b9350614053818560208601613fea565b61405c8161401d565b840191505092915050565b600060c08201905061407c6000830189613f7e565b6140896020830188613fbf565b818103604083015261409b818761402e565b905081810360608301526140af818661402e565b905081810360808301526140c3818561402e565b90506140d260a0830184613f7e565b979650505050505050565b600081519050919050565b600082825260208201905092915050565b6000819050602082019050919050565b61411281613fad565b82525050565b60006141248383614109565b60208301905092915050565b6000602082019050919050565b6000614148826140dd565b61415281856140e8565b935061415d836140f9565b8060005b8381101561418e5781516141758882614118565b975061418083614130565b925050600181019050614161565b5085935050505092915050565b600081519050919050565b600082825260208201905092915050565b6000819050602082019050919050565b600082825260208201905092915050565b60006141e382613fce565b6141ed81856141c7565b93506141fd818560208601613fea565b6142068161401d565b840191505092915050565b600061421d83836141d8565b905092915050565b6000602082019050919050565b600061423d8261419b565b61424781856141a6565b935083602082028501614259856141b7565b8060005b8581101561429557848403895281516142768582614211565b945061428183614225565b925060208a0199505060018101905061425d565b50829750879550505050505092915050565b600060c08201905081810360008301526142c18189613b88565b905081810360208301526142d5818861413d565b905081810360408301526142e98187614232565b905081810360608301526142fd8186614232565b905081810360808301526143118185614232565b905081810360a08301526143258184613b88565b9050979650505050505050565b61433b81613fad565b811461434657600080fd5b50565b60008135905061435881614332565b92915050565b60006020828403121561437457614373613a7b565b5b600061438284828501614349565b91505092915050565b61439481613c12565b811461439f57600080fd5b50565b6000813590506143b18161438b565b92915050565b6143c081613cda565b81146143cb57600080fd5b50565b6000813590506143dd816143b7565b92915050565b600080600080600060a086880312156143ff576143fe613a7b565b5b600061440d88828901613aa6565b955050602061441e888289016143a2565b945050604061442f888289016143a2565b9350506060614440888289016143ce565b9250506080614451888289016143ce565b9150509295509295909350565b60006020820190506144736000830184613f7e565b92915050565b600060c08201905081810360008301526144938189613b88565b905081810360208301526144a78188613b88565b905081810360408301526144bb8187613c50565b905081810360608301526144cf8186613d1e565b905081810360808301526144e38185613d1e565b905081810360a08301526144f78184613e80565b9050979650505050505050565b600080fd5b600080fd5b7f4e487b7100000000000000000000000000000000000000000000000000000000600052604160045260246000fd5b6145468261401d565b810181811067ffffffffffffffff821117156145655761456461450e565b5b80604052505050565b6000614578613a71565b9050614584828261453d565b919050565b600067ffffffffffffffff8211156145a4576145a361450e565b5b6145ad8261401d565b9050602081019050919050565b82818337600083830152505050565b60006145dc6145d784614589565b61456e565b9050828152602081018484840111156145f8576145f7614509565b5b6146038482856145ba565b509392505050565b600082601f8301126146205761461f614504565b5b81356146308482602086016145c9565b91505092915050565b6000806000806080858703121561465357614652613a7b565b5b600085013567ffffffffffffffff81111561467157614670613a80565b5b61467d8782880161460b565b945050602085013567ffffffffffffffff81111561469e5761469d613a80565b5b6146aa8782880161460b565b935050604085013567ffffffffffffffff8111156146cb576146ca613a80565b5b6146d78782880161460b565b92505060606146e887828801613aa6565b91505092959194509250565b7f4164766572746973696e6720666f72207468652074617267657420696e76656e60008201527f746f7279206973206e6f742063757272656e746c7920756e646572207265766960208201527f6577000000000000000000000000000000000000000000000000000000000000604082015250565b6000614776604283613fd9565b9150614781826146f4565b606082019050919050565b600060208201905081810360008301526147a581614769565b9050919050565b7f4f6e6c7920696e76656e746f7279206f776e6572732063616e2072656a65637460008201527f206164732e000000000000000000000000000000000000000000000000000000602082015250565b6000614808602583613fd9565b9150614813826147ac565b604082019050919050565b60006020820190508181036000830152614837816147fb565b9050919050565b7f4e487b7100000000000000000000000000000000000000000000000000000000600052601160045260246000fd5b600061487882613cda565b9150600082141561488c5761488b61483e565b5b600182039050919050565b600081905092915050565b50565b60006148b2600083614897565b91506148bd826148a2565b600082019050919050565b60006148d3826148a5565b9150819050919050565b7f4661696c656420746f207061796261636b206c6f636b2076616c756573000000600082015250565b6000614913601d83613fd9565b915061491e826148dd565b602082019050919050565b6000602082019050818103600083015261494281614906565b9050919050565b7f4e487b7100000000000000000000000000000000000000000000000000000000600052603260045260246000fd5b600061498382613a85565b91507fffffffffffffffffffffffffffffffffffffffffffffffffffffffffffffffff8214156149b6576149b561483e565b5b600182019050919050565b7f596f752063616e27742064656c65746520616e20696e76656e746f727920696660008201527f2074686572652061726520616473206c65667420696e2074686520696e76656e60208201527f746f72792e000000000000000000000000000000000000000000000000000000604082015250565b6000614a43604583613fd9565b9150614a4e826149c1565b606082019050919050565b60006020820190508181036000830152614a7281614a36565b9050919050565b7f4f6e6c7920696e76656e746f7279206f776e6572732063616e2072656d6f766560008201527f20696e76656e746f72792e000000000000000000000000000000000000000000602082015250565b6000614ad5602b83613fd9565b9150614ae082614a79565b604082019050919050565b60006020820190508181036000830152614b0481614ac8565b9050919050565b7f457863656564656420746865206c696d6974206f66206164732074686174206360008201527f616e2062652064656c69766572656420746f20796f757220696e76656e746f7260208201527f792e000000000000000000000000000000000000000000000000000000000000604082015250565b6000614b8d604283613fd9565b9150614b9882614b0b565b606082019050919050565b60006020820190508181036000830152614bbc81614b80565b9050919050565b7f4f6e6c7920696e76656e746f7279206f776e6572732063616e20617070726f7660008201527f65206164732e0000000000000000000000000000000000000000000000000000602082015250565b6000614c1f602683613fd9565b9150614c2a82614bc3565b604082019050919050565b60006020820190508181036000830152614c4e81614c12565b9050919050565b6000614c6082613cda565b915063ffffffff821415614c7757614c7661483e565b5b600182019050919050565b7f72657175657374656420696e76656e746f727920696420697320696e76616c6960008201527f6400000000000000000000000000000000000000000000000000000000000000602082015250565b6000614cde602183613fd9565b9150614ce982614c82565b604082019050919050565b60006020820190508181036000830152614d0d81614cd1565b9050919050565b7f4e487b7100000000000000000000000000000000000000000000000000000000600052602260045260246000fd5b60006002820490506001821680614d5b57607f821691505b60208210811415614d6f57614d6e614d14565b5b50919050565b7f496e76656e746f72792063616e20626520726574726965766520757020746f2060008201527f3330206974656d73206174207468652073616d652074696d6500000000000000602082015250565b6000614dd1603983613fd9565b9150614ddc82614d75565b604082019050919050565b60006020820190508181036000830152614e0081614dc4565b9050919050565b6000614e1282613a85565b9150614e1d83613a85565b9250827fffffffffffffffffffffffffffffffffffffffffffffffffffffffffffffffff03821115614e5257614e5161483e565b5b828201905092915050565b7f4f6e6c792061647320746861742061726520696e2074686520696e76656e746f60008201527f72792063616e20626520636f6c6c65637465642e000000000000000000000000602082015250565b6000614eb9603483613fd9565b9150614ec482614e5d565b604082019050919050565b60006020820190508181036000830152614ee881614eac565b9050919050565b7f4f6e6c79206164732074686174206861766520657870697265642063616e206260008201527f6520636f6c6c65637465642e0000000000000000000000000000000000000000602082015250565b6000614f4b602c83613fd9565b9150614f5682614eef565b604082019050919050565b60006020820190508181036000830152614f7a81614f3e565b9050919050565b7f4f6e6c7920746865206f776e6572206f662074686520696e76656e746f72792060008201527f6f7220746865206f776e6572206f66207468652061642063616e20636f6c6c6560208201527f6374207468652061642e00000000000000000000000000000000000000000000604082015250565b6000615003604a83613fd9565b915061500e82614f81565b606082019050919050565b6000602082019050818103600083015261503281614ff6565b9050919050565b7f4e487b7100000000000000000000000000000000000000000000000000000000600052601260045260246000fd5b600061507382613a85565b915061507e83613a85565b92508261508e5761508d615039565b5b828204905092915050565b60006150a482613a85565b91506150af83613a85565b9250828210156150c2576150c161483e565b5b828203905092915050565b7f596f752068617665207265616368656420746865206d6178696d756d206e756d60008201527f626572206f662061647320796f752063616e206372656174652e20596f75206e60208201527f65656420746f2072656d6f766520756e77616e746564206164732e0000000000604082015250565b600061514f605b83613fd9565b915061515a826150cd565b606082019050919050565b6000602082019050818103600083015261517e81615142565b9050919050565b600061519082613cda565b915061519b83613cda565b9250828210156151ae576151ad61483e565b5b828203905092915050565b7f5468652064656c69766572792073746172742074696d65206d7573742062652060008201527f6265666f7265207468652064656c697665727920656e642074696d652c20616e60208201527f642061206d696e696d756d2064656c697665727920706572696f64206d75737460408201527f206265207365742e000000000000000000000000000000000000000000000000606082015250565b6000615261606883613fd9565b915061526c826151b9565b608082019050919050565b6000602082019050818103600083015261529081615254565b9050919050565b7f4974206973206e656365737361727920746f20616c6c6f77206120636572746160008201527f696e20616d6f756e74206f662074696d65206265666f7265207468652064697360208201527f747269627574696f6e207374617274732e000000000000000000000000000000604082015250565b6000615319605183613fd9565b915061532482615297565b606082019050919050565b600060208201905081810360008301526153488161530c565b9050919050565b7f6164207072696365206d757374206265206c6172676572207468616e20666c6f60008201527f6f722070726963652073657420627920696e76656e746f7279206f776e65722e602082015250565b60006153ab604083613fd9565b91506153b68261534f565b604082019050919050565b600060208201905081810360008301526153da8161539e565b9050919050565b7f616473206d75737420626520616464656420636f72726563746c790000000000600082015250565b6000615417601b83613fd9565b9150615422826153e1565b602082019050919050565b600060208201905081810360008301526154468161540a565b9050919050565b7f596f752068617665207265616368656420746865206d6178696d756d206e756d60008201527f626572206f6620696e76656e746f727920796f752063616e206372656174652e60208201527f20596f75206e65656420746f2072656d6f766520756e77616e74656420696e7660408201527f656e746f72792e00000000000000000000000000000000000000000000000000606082015250565b60006154f5606783613fd9565b91506155008261544d565b608082019050919050565b60006020820190508181036000830152615524816154e8565b9050919050565b7f72657175657374656420696e76656e746f7279496420646f6573206e6f74206560008201527f7869737400000000000000000000000000000000000000000000000000000000602082015250565b6000615587602483613fd9565b91506155928261552b565b604082019050919050565b600060208201905081810360008301526155b68161557a565b9050919050565b7f726571756573746564206164496420646f6573206e6f74206578697374000000600082015250565b60006155f3601d83613fd9565b91506155fe826155bd565b602082019050919050565b60006020820190508181036000830152615622816155e6565b9050919050565b7f4e487b7100000000000000000000000000000000000000000000000000000000600052603160045260246000fdfea2646970667358221220695d0a546ff4fd0bf422f236352f6f537427a5f3626f1110273fd9871a429a4764736f6c634300080b0033",
  "immutableReferences": {},
  "source": "// SPDX-License-Identifier: MIT\npragma solidity ^0.8.0;\n\nimport \"@openzeppelin/contracts/utils/Counters.sol\";\nimport \"@openzeppelin/contracts/utils/math/Math.sol\";\nimport \"./AdNetworkSet.sol\";\n\ncontract AdNetwork {\n    uint constant MAX_CREATABLE_AD_COUNT = 10;\n    uint constant MAX_CREATABLE_INVENTORY_COUNT = 10;\n    uint constant MAX_DELIVERABLE_AD_COUNT = 10;\n    /// @dev Delivery time must be at least 1 hour.\n    uint constant MIN_DELIVERY_TIME = 60 * 60;\n    /// @dev Since there is a high possibility that the screening will not be completed in time,\n    /// it is necessary to allow at least 12 hours before the distribution starts.\n    uint constant MIN_TIME_REQUIRED_TO_START_DELIVERY = 60 * 60 * 12;\n    uint constant MAX_CACHE_BACK_GAS_FEE = 10 wei;\n\n    using Counters for Counters.Counter;\n    using AdNetworkSet for AdNetworkSet.InventorySet;\n    using AdNetworkSet for AdNetworkSet.AdSet;\n    using Math for uint256;\n\n    Counters.Counter private _inventoryIds;\n    AdNetworkSet.InventorySet private _inventories;\n    Counters.Counter private _adIds;\n    AdNetworkSet.AdSet private _ads;\n\n    mapping(uint256 => uint256) private _requestApproval;\n    mapping(uint256 => uint256) private _adToInventory;\n    mapping(uint256 => uint256) private _waitAdToInventory;\n    mapping(address => uint32) private _ownerAdCount;\n    mapping(address => uint32) private _ownerInventoryCount;\n    mapping(uint256 => uint32) private _inventoryAdCount;\n    mapping(uint256 => uint32) private _inventoryWaitAdCount;\n\n    event AdReviewRequestSent(uint256 indexed inventoryId, bytes32 requestHash, bytes32 adHash);\n    event AdCreated(uint256 indexed inventoryId, uint256 adId);\n    event AdApproved(uint256 indexed adId, uint256 inventoryId);\n    event AdRejected(uint256 indexed adId, uint256 inventoryId);\n    event InventoryCreated(uint256 inventoryId);\n\n    constructor() {\n    }\n\n    function createAdInventory(string memory name, string memory uri, string memory publicKey, uint256 floorPrice) external returns (uint256) {\n        require(\n            _ownerInventoryCount[msg.sender] < MAX_CREATABLE_INVENTORY_COUNT,\n            \"You have reached the maximum number of inventory you can create. You need to remove unwanted inventory.\");\n        _inventoryIds.increment();\n        uint256 inventoryId = _inventoryIds.current();\n\n        AdNetworkSet.Inventory memory inventory = AdNetworkSet.Inventory(inventoryId, payable(msg.sender), name, uri, publicKey, floorPrice);\n        _inventories.add(inventoryId, inventory);\n        emit InventoryCreated(inventoryId);\n\n        return inventoryId;\n    }\n\n    function removeAdInventory(uint256 _inventoryId) external {\n        require(\n            _inventoryAdCount[_inventoryId] == 0,\n            \"You can't delete an inventory if there are ads left in the inventory.\");\n\n        AdNetworkSet.Inventory storage inventory = _inventories.get(_inventoryId);\n        require(\n            inventory.owner == msg.sender,\n            \"Only inventory owners can remove inventory.\");\n\n        _inventories.remove(_inventoryId);\n    }\n\n    function createAd(uint256 _inventoryId, bytes32 _hash, bytes32 _hashForDelivery, uint32 _start, uint32 _end) external payable returns (uint256) {\n        require(\n            _ownerAdCount[msg.sender] < MAX_CREATABLE_AD_COUNT,\n            \"You have reached the maximum number of ads you can create. You need to remove unwanted ads.\");\n        require(\n            _end > _start &&\n            _end - _start >= MIN_DELIVERY_TIME,\n            \"The delivery start time must be before the delivery end time, and a minimum delivery period must be set.\"\n        );\n        require(\n            _start > block.timestamp &&\n            _start - block.timestamp >= MIN_TIME_REQUIRED_TO_START_DELIVERY,\n            \"It is necessary to allow a certain amount of time before the distribution starts.\"\n        );\n        require(\n            _inventoryAdCount[_inventoryId] < MAX_DELIVERABLE_AD_COUNT,\n            \"Exceeded the limit of ads that can be delivered to your inventory.\"\n        );\n\n        AdNetworkSet.Inventory storage inventory = _inventories.get(_inventoryId);\n        require(msg.value >= inventory.floorPrice, \"ad price must be larger than floor price set by inventory owner.\");\n\n        _adIds.increment();\n        uint256 adId = _adIds.current();\n\n        AdNetworkSet.Ad memory ad = AdNetworkSet.Ad(adId, _inventoryId, payable(msg.sender), _hash, _hashForDelivery, _start, _end, msg.value);\n        require(_ads.add(adId, ad), \"ads must be added correctly\");\n\n        _requestApproval[adId] = _inventoryId;\n        _inventoryWaitAdCount[_inventoryId]++;\n        _ownerAdCount[msg.sender]++;\n\n        emit AdCreated(_inventoryId, adId);\n\n        return adId;\n    }\n\n    function approveAd(uint256 _inventoryId, uint256 _adId) external {\n        require(\n            _inventoryAdCount[_inventoryId] < MAX_DELIVERABLE_AD_COUNT,\n            \"Exceeded the limit of ads that can be delivered to your inventory.\");\n        require(\n            _requestApproval[_adId] == _inventoryId,\n            \"Advertising for the target inventory is not currently under review\");\n\n        AdNetworkSet.Inventory storage inventory = _inventories.get(_inventoryId);\n        require(\n            inventory.owner == msg.sender,\n            \"Only inventory owners can approve ads.\");\n\n        AdNetworkSet.Ad storage ad = _ads.get(_adId);\n        require(block.timestamp < ad.start);\n\n        delete _requestApproval[_adId];\n        _inventoryAdCount[_inventoryId]++;\n        _inventoryWaitAdCount[_inventoryId]--;\n        _adToInventory[_adId] = _inventoryId;\n\n        emit AdApproved(_adId, _inventoryId);\n    }\n\n    function rejectAd(uint256 _inventoryId, uint256 _adId) external {\n        require(\n            _requestApproval[_adId] == _inventoryId,\n            \"Advertising for the target inventory is not currently under review\");\n\n        AdNetworkSet.Inventory storage inventory = _inventories.get(_inventoryId);\n        require(\n            inventory.owner == msg.sender,\n            \"Only inventory owners can reject ads.\");\n\n        delete _requestApproval[_adId];\n        _inventoryWaitAdCount[_inventoryId]--;\n        AdNetworkSet.Ad storage ad = _ads.get(_adId);\n        address payable adOwner = ad.owner;\n        uint paybackPrice = ad.price;\n\n        (bool r,) = adOwner.call{value : paybackPrice}(\"\");\n        require(r, \"Failed to payback lock values\");\n        _ads.remove(_adId);\n\n        emit AdRejected(_adId, _inventoryId);\n    }\n\n    function collectAd(uint256 _inventoryId, uint _adId) external {\n        require(\n            _adToInventory[_adId] == _inventoryId,\n            \"Only ads that are in the inventory can be collected.\");\n\n        AdNetworkSet.Ad storage ad = _ads.get(_adId);\n        require(\n            block.timestamp >= ad.end,\n            \"Only ads that have expired can be collected.\");\n        AdNetworkSet.Inventory storage inventory = _inventories.get(_inventoryId);\n        require(\n            msg.sender == inventory.owner ||\n            msg.sender == ad.owner,\n            \"Only the owner of the inventory or the owner of the ad can collect the ad.\");\n\n        if (msg.sender == inventory.owner) {\n            inventory.owner.transfer(ad.price);\n        } else if (msg.sender == ad.owner) {\n            uint256 maxGasFee = (ad.price / 10).min(tx.gasprice).min(MAX_CACHE_BACK_GAS_FEE);\n            ad.owner.transfer(maxGasFee);\n            inventory.owner.transfer(ad.price - maxGasFee);\n        }\n\n        delete _adToInventory[_adId];\n        _ownerAdCount[ad.owner]--;\n        _inventoryAdCount[_inventoryId]--;\n        _ads.remove(_adId);\n        _inventories.remove(_inventoryId);\n    }\n\n    function getAdsOf(uint256 _inventoryId) external view returns (\n        uint256[] memory adIds,\n        uint256[] memory inventoryIds,\n        bytes32[] memory adHashes,\n        bytes32[] memory adHashForDeliveries,\n        uint32[] memory starts,\n        uint32[] memory ends,\n        bool[] memory approved\n    ) {\n        uint inventoryAdCount = _inventoryAdCount[_inventoryId];\n        adIds = new uint256[](inventoryAdCount);\n        inventoryIds = new uint256[](inventoryAdCount);\n        adHashes = new bytes32[](inventoryAdCount);\n        adHashForDeliveries = new bytes32[](inventoryAdCount);\n        starts = new uint32[](inventoryAdCount);\n        ends = new uint32[](inventoryAdCount);\n        approved = new bool[](inventoryAdCount);\n\n        uint adIdx = 0;\n        for (uint idx = 0; idx < _ads._values.length; idx++) {\n            AdNetworkSet.Ad storage ad = _ads._values[idx];\n            if (_adToInventory[ad.adId] != _inventoryId) {\n                continue;\n            }\n\n            adIds[adIdx] = ad.adId;\n            adHashes[adIdx] = ad.hash;\n            adHashForDeliveries[adIdx] = ad.hashForDelivery;\n            starts[adIdx] = ad.start;\n            ends[adIdx] = ad.end;\n            approved[adIdx] = _adToInventory[ad.adId] == ad.inventoryId;\n            adIdx++;\n        }\n    }\n\n    function getAdsByOwnerAddress(address _ownerAddress) external view returns (\n        uint256[] memory adIds,\n        uint256[] memory inventoryIds,\n        bytes32[] memory adHashes,\n        uint32[] memory starts,\n        uint32[] memory ends,\n        bool[] memory approved\n    ) {\n        uint inventoryAdCount = _ownerAdCount[_ownerAddress];\n\n        adIds = new uint256[](inventoryAdCount);\n        inventoryIds = new uint256[](inventoryAdCount);\n        adHashes = new bytes32[](inventoryAdCount);\n        starts = new uint32[](inventoryAdCount);\n        ends = new uint32[](inventoryAdCount);\n        approved = new bool[](inventoryAdCount);\n\n        uint adIdx = 0;\n        for (uint idx = 0; idx < _ads._values.length; idx++) {\n            AdNetworkSet.Ad storage ad = _ads._values[idx];\n            if (ad.owner != _ownerAddress) {\n                continue;\n            }\n\n            adIds[adIdx] = ad.adId;\n            inventoryIds[adIdx] = ad.inventoryId;\n            adHashes[adIdx] = ad.hash;\n            starts[adIdx] = ad.start;\n            ends[adIdx] = ad.end;\n            approved[adIdx] = _adToInventory[ad.adId] == ad.inventoryId;\n            adIdx++;\n        }\n    }\n\n    function getInventoriesByOwnerAddress(address _ownerAddress) external view returns (\n        uint256[] memory inventoryIds,\n        address[] memory owners,\n        string[] memory names,\n        string[] memory uris,\n        string[] memory publicKeys,\n        uint256[] memory floorPrices\n    ) {\n        uint ownerInventoryCount = _ownerInventoryCount[_ownerAddress];\n\n        inventoryIds = new uint256[](ownerInventoryCount);\n        owners = new address[](ownerInventoryCount);\n        names = new string[](ownerInventoryCount);\n        uris = new string[](ownerInventoryCount);\n        publicKeys = new string[](ownerInventoryCount);\n        floorPrices = new uint256[](ownerInventoryCount);\n\n        uint inventoryIdx = 0;\n        for (uint idx = 0; idx < _inventories._values.length; idx++) {\n            AdNetworkSet.Inventory storage inventory = _inventories._values[idx];\n            if (inventory.owner != _ownerAddress) {\n                continue;\n            }\n\n            inventoryIds[inventoryIdx] = inventory.inventoryId;\n            owners[inventoryIdx] = inventory.owner;\n            names[inventoryIdx] = inventory.name;\n            uris[inventoryIdx] = inventory.uri;\n            publicKeys[inventoryIdx] = inventory.publicKey;\n            floorPrices[inventoryIdx] = inventory.floorPrice;\n            inventoryIdx++;\n        }\n    }\n\n    function getAdsWaitingForApprovalOf(uint256 _inventoryId) external view returns (\n        uint256[] memory adIds,\n        uint256[] memory inventoryIds,\n        bytes32[] memory adHashes,\n        uint32[] memory starts,\n        uint32[] memory ends\n    ) {\n        uint inventoryWaitAdCount = _inventoryWaitAdCount[_inventoryId];\n\n        adIds = new uint256[](inventoryWaitAdCount);\n        inventoryIds = new uint256[](inventoryWaitAdCount);\n        adHashes = new bytes32[](inventoryWaitAdCount);\n        starts = new uint32[](inventoryWaitAdCount);\n        ends = new uint32[](inventoryWaitAdCount);\n\n        uint adIdx = 0;\n        for (uint idx = 0; idx < _ads._values.length; idx++) {\n            AdNetworkSet.Ad storage ad = _ads._values[idx];\n            if (_requestApproval[ad.adId] != _inventoryId) {\n                continue;\n            }\n\n            adIds[adIdx] = ad.adId;\n            inventoryIds[adIdx] = ad.inventoryId;\n            adHashes[adIdx] = ad.hash;\n            starts[adIdx] = ad.start;\n            ends[adIdx] = ad.end;\n            adIdx++;\n        }\n    }\n\n    function getInventory(uint256 _inventoryId) external view returns (\n        uint256 inventoryId,\n        address owner,\n        string memory name,\n        string memory uri,\n        string memory publicKey,\n        uint256 floorPrice\n    ) {\n        AdNetworkSet.Inventory storage inventory = _inventories.get(_inventoryId);\n        require(inventory.inventoryId == _inventoryId, \"requested inventory id is invalid\");\n\n        inventoryId = inventory.inventoryId;\n        owner = inventory.owner;\n        name = inventory.name;\n        uri = inventory.uri;\n        publicKey = inventory.publicKey;\n        floorPrice = inventory.floorPrice;\n    }\n\n    function getInventories(uint offset, uint limit) external view returns (\n        uint256[] memory inventoryIds,\n        address[] memory owners,\n        string[] memory names,\n        string[] memory uris,\n        string[] memory publicKeys,\n        uint256[] memory floorPrices\n    ) {\n        require(limit > 0 && limit <= 50, \"Inventory can be retrieve up to 30 items at the same time\");\n        require(offset >= 0 && offset <= _inventories._values.length);\n\n        uint upper = _inventories._values.length.min(offset + limit);\n        inventoryIds = new uint256[](upper);\n        owners = new address[](upper);\n        names = new string[](upper);\n        uris = new string[](upper);\n        publicKeys = new string[](upper);\n        floorPrices = new uint256[](upper);\n\n        uint inventoryIdx = 0;\n        for (uint idx = offset; idx < upper; idx++) {\n            AdNetworkSet.Inventory storage inventory = _inventories._values[idx];\n\n            inventoryIds[inventoryIdx] = inventory.inventoryId;\n            owners[inventoryIdx] = inventory.owner;\n            names[inventoryIdx] = inventory.name;\n            uris[inventoryIdx] = inventory.uri;\n            publicKeys[inventoryIdx] = inventory.publicKey;\n            floorPrices[inventoryIdx] = inventory.floorPrice;\n            inventoryIdx++;\n        }\n    }\n\n    function getExpiredAdIds(uint256 _inventoryId) external view returns (uint256[] memory) {\n        uint expireCounts = 0;\n        for (uint idx = 0; idx < _ads._values.length; idx++) {\n            AdNetworkSet.Ad storage ad = _ads._values[idx];\n            if (_adToInventory[ad.adId] != _inventoryId) {\n                continue;\n            }\n            if (ad.end > block.timestamp) {\n                expireCounts++;\n            }\n        }\n\n        uint256[] memory expiredAdIds = new uint256[](expireCounts);\n        expireCounts = 0;\n        for (uint idx = 0; idx < _ads._values.length; idx++) {\n            AdNetworkSet.Ad storage ad = _ads._values[idx];\n            if (_adToInventory[ad.adId] != _inventoryId) {\n                continue;\n            }\n            if (ad.end > block.timestamp) {\n                expiredAdIds[expireCounts] = ad.adId;\n                expireCounts++;\n            }\n        }\n        return expiredAdIds;\n    }\n\n}\n",
  "sourcePath": "/Users/admin/IdeaProjects/blockchain-adnetwork/adnetwork-contracts/contracts/AdNetwork.sol",
  "compiler": {
    "name": "solc",
    "version": "0.8.11+commit.d7f03943.Emscripten.clang"
  },
  "schemaVersion": "3.4.4",
  "updatedAt": "2022-02-17T15:38:48.214Z",
  "networkType": "ethereum",
  "devdoc": {
    "kind": "dev",
    "methods": {},
    "stateVariables": {
      "MIN_DELIVERY_TIME": {
        "details": "Delivery time must be at least 1 hour."
      },
      "MIN_TIME_REQUIRED_TO_START_DELIVERY": {
        "details": "Since there is a high possibility that the screening will not be completed in time, it is necessary to allow at least 12 hours before the distribution starts."
      }
    },
    "version": 1
  },
  "userdoc": {
    "kind": "user",
    "methods": {},
    "version": 1
  }
}