{
  "contractName": "AdNetwork",
  "abi": [
    {
      "inputs": [],
      "stateMutability": "nonpayable",
      "type": "constructor"
    },
    {
      "anonymous": false,
      "inputs": [
        {
          "indexed": true,
          "internalType": "uint256",
          "name": "adId",
          "type": "uint256"
        },
        {
          "indexed": false,
          "internalType": "uint256",
          "name": "inventoryId",
          "type": "uint256"
        }
      ],
      "name": "AdApproved",
      "type": "event"
    },
    {
      "anonymous": false,
      "inputs": [
        {
          "indexed": true,
          "internalType": "uint256",
          "name": "inventoryId",
          "type": "uint256"
        },
        {
          "indexed": false,
          "internalType": "uint256",
          "name": "adId",
          "type": "uint256"
        }
      ],
      "name": "AdCreated",
      "type": "event"
    },
    {
      "anonymous": false,
      "inputs": [
        {
          "indexed": true,
          "internalType": "uint256",
          "name": "adId",
          "type": "uint256"
        },
        {
          "indexed": false,
          "internalType": "uint256",
          "name": "inventoryId",
          "type": "uint256"
        }
      ],
      "name": "AdRejected",
      "type": "event"
    },
    {
      "anonymous": false,
      "inputs": [
        {
          "indexed": true,
          "internalType": "uint256",
          "name": "inventoryId",
          "type": "uint256"
        },
        {
          "indexed": false,
          "internalType": "bytes32",
          "name": "requestHash",
          "type": "bytes32"
        },
        {
          "indexed": false,
          "internalType": "bytes32",
          "name": "adHash",
          "type": "bytes32"
        }
      ],
      "name": "AdReviewRequestSent",
      "type": "event"
    },
    {
      "anonymous": false,
      "inputs": [
        {
          "indexed": false,
          "internalType": "uint256",
          "name": "inventoryId",
          "type": "uint256"
        }
      ],
      "name": "InventoryCreated",
      "type": "event"
    },
    {
      "inputs": [
        {
          "internalType": "string",
          "name": "name",
          "type": "string"
        },
        {
          "internalType": "string",
          "name": "uri",
          "type": "string"
        },
        {
          "internalType": "string",
          "name": "publicKey",
          "type": "string"
        },
        {
          "internalType": "uint256",
          "name": "floorPrice",
          "type": "uint256"
        }
      ],
      "name": "createAdInventory",
      "outputs": [
        {
          "internalType": "uint256",
          "name": "",
          "type": "uint256"
        }
      ],
      "stateMutability": "nonpayable",
      "type": "function"
    },
    {
      "inputs": [
        {
          "internalType": "uint256",
          "name": "_inventoryId",
          "type": "uint256"
        }
      ],
      "name": "removeAdInventory",
      "outputs": [],
      "stateMutability": "nonpayable",
      "type": "function"
    },
    {
      "inputs": [
        {
          "internalType": "uint256",
          "name": "_inventoryId",
          "type": "uint256"
        },
        {
          "internalType": "bytes32",
          "name": "_hash",
          "type": "bytes32"
        },
        {
          "internalType": "bytes32",
          "name": "_hashForDelivery",
          "type": "bytes32"
        },
        {
          "internalType": "uint32",
          "name": "_start",
          "type": "uint32"
        },
        {
          "internalType": "uint32",
          "name": "_end",
          "type": "uint32"
        }
      ],
      "name": "createAd",
      "outputs": [
        {
          "internalType": "uint256",
          "name": "",
          "type": "uint256"
        }
      ],
      "stateMutability": "payable",
      "type": "function",
      "payable": true
    },
    {
      "inputs": [
        {
          "internalType": "uint256",
          "name": "_inventoryId",
          "type": "uint256"
        },
        {
          "internalType": "uint256",
          "name": "_adId",
          "type": "uint256"
        }
      ],
      "name": "approveAd",
      "outputs": [],
      "stateMutability": "nonpayable",
      "type": "function"
    },
    {
      "inputs": [
        {
          "internalType": "uint256",
          "name": "_inventoryId",
          "type": "uint256"
        },
        {
          "internalType": "uint256",
          "name": "_adId",
          "type": "uint256"
        }
      ],
      "name": "rejectAd",
      "outputs": [],
      "stateMutability": "nonpayable",
      "type": "function"
    },
    {
      "inputs": [
        {
          "internalType": "uint256",
          "name": "_inventoryId",
          "type": "uint256"
        },
        {
          "internalType": "uint256",
          "name": "_adId",
          "type": "uint256"
        }
      ],
      "name": "collectAd",
      "outputs": [],
      "stateMutability": "nonpayable",
      "type": "function"
    },
    {
      "inputs": [
        {
          "internalType": "uint256",
          "name": "_inventoryId",
          "type": "uint256"
        }
      ],
      "name": "getAdsOf",
      "outputs": [
        {
          "internalType": "uint256[]",
          "name": "adIds",
          "type": "uint256[]"
        },
        {
          "internalType": "uint256[]",
          "name": "inventoryIds",
          "type": "uint256[]"
        },
        {
          "internalType": "bytes32[]",
          "name": "adHashes",
          "type": "bytes32[]"
        },
        {
          "internalType": "bytes32[]",
          "name": "adHashForDeliveries",
          "type": "bytes32[]"
        },
        {
          "internalType": "uint32[]",
          "name": "starts",
          "type": "uint32[]"
        },
        {
          "internalType": "uint32[]",
          "name": "ends",
          "type": "uint32[]"
        },
        {
          "internalType": "bool[]",
          "name": "approved",
          "type": "bool[]"
        }
      ],
      "stateMutability": "view",
      "type": "function",
      "constant": true
    },
    {
      "inputs": [
        {
          "internalType": "address",
          "name": "_ownerAddress",
          "type": "address"
        }
      ],
      "name": "getAdsByOwnerAddress",
      "outputs": [
        {
          "internalType": "uint256[]",
          "name": "adIds",
          "type": "uint256[]"
        },
        {
          "internalType": "uint256[]",
          "name": "inventoryIds",
          "type": "uint256[]"
        },
        {
          "internalType": "bytes32[]",
          "name": "adHashes",
          "type": "bytes32[]"
        },
        {
          "internalType": "uint32[]",
          "name": "starts",
          "type": "uint32[]"
        },
        {
          "internalType": "uint32[]",
          "name": "ends",
          "type": "uint32[]"
        },
        {
          "internalType": "bool[]",
          "name": "approved",
          "type": "bool[]"
        }
      ],
      "stateMutability": "view",
      "type": "function",
      "constant": true
    },
    {
      "inputs": [
        {
          "internalType": "address",
          "name": "_ownerAddress",
          "type": "address"
        }
      ],
      "name": "getInventoriesByOwnerAddress",
      "outputs": [
        {
          "internalType": "uint256[]",
          "name": "inventoryIds",
          "type": "uint256[]"
        },
        {
          "internalType": "address[]",
          "name": "owners",
          "type": "address[]"
        },
        {
          "internalType": "string[]",
          "name": "names",
          "type": "string[]"
        },
        {
          "internalType": "string[]",
          "name": "uris",
          "type": "string[]"
        },
        {
          "internalType": "string[]",
          "name": "publicKeys",
          "type": "string[]"
        },
        {
          "internalType": "uint256[]",
          "name": "floorPrices",
          "type": "uint256[]"
        }
      ],
      "stateMutability": "view",
      "type": "function",
      "constant": true
    },
    {
      "inputs": [
        {
          "internalType": "uint256",
          "name": "_inventoryId",
          "type": "uint256"
        }
      ],
      "name": "getInventory",
      "outputs": [
        {
          "internalType": "uint256",
          "name": "inventoryId",
          "type": "uint256"
        },
        {
          "internalType": "address",
          "name": "owner",
          "type": "address"
        },
        {
          "internalType": "string",
          "name": "name",
          "type": "string"
        },
        {
          "internalType": "string",
          "name": "uri",
          "type": "string"
        },
        {
          "internalType": "string",
          "name": "publicKey",
          "type": "string"
        },
        {
          "internalType": "uint256",
          "name": "floorPrice",
          "type": "uint256"
        }
      ],
      "stateMutability": "view",
      "type": "function",
      "constant": true
    },
    {
      "inputs": [
        {
          "internalType": "uint256",
          "name": "offset",
          "type": "uint256"
        },
        {
          "internalType": "uint256",
          "name": "limit",
          "type": "uint256"
        }
      ],
      "name": "getInventories",
      "outputs": [
        {
          "internalType": "uint256[]",
          "name": "inventoryIds",
          "type": "uint256[]"
        },
        {
          "internalType": "address[]",
          "name": "owners",
          "type": "address[]"
        },
        {
          "internalType": "string[]",
          "name": "names",
          "type": "string[]"
        },
        {
          "internalType": "string[]",
          "name": "uris",
          "type": "string[]"
        },
        {
          "internalType": "string[]",
          "name": "publicKeys",
          "type": "string[]"
        },
        {
          "internalType": "uint256[]",
          "name": "floorPrices",
          "type": "uint256[]"
        }
      ],
      "stateMutability": "view",
      "type": "function",
      "constant": true
    },
    {
      "inputs": [
        {
          "internalType": "uint256",
          "name": "_inventoryId",
          "type": "uint256"
        }
      ],
      "name": "getExpiredAdIds",
      "outputs": [
        {
          "internalType": "uint256[]",
          "name": "",
          "type": "uint256[]"
        }
      ],
      "stateMutability": "view",
      "type": "function",
      "constant": true
    }
  ],
  "bytecode": "0x608060405234801561001057600080fd5b506154a6806100206000396000f3fe6080604052600436106100a75760003560e01c806372af45561161006457806372af4556146101e957806383739c301461022b578063d68fb2fc14610254578063e815c06e14610296578063eba58b3e146102c6578063fd58ac9c14610308576100a7565b806304216974146100ac57806324bfee7d146100d55780632e9d3ffb1461011257806331eae2611461013b578063518de44d1461017e5780635b298d32146101a7575b600080fd5b3480156100b857600080fd5b506100d360048036038101906100ce919061390f565b610345565b005b3480156100e157600080fd5b506100fc60048036038101906100f7919061394f565b61069b565b6040516101099190613a3a565b60405180910390f35b34801561011e57600080fd5b506101396004803603810190610134919061394f565b61086b565b005b34801561014757600080fd5b50610162600480360381019061015d919061394f565b610a18565b6040516101759796959493929190613cbc565b60405180910390f35b34801561018a57600080fd5b506101a560048036038101906101a0919061390f565b610e62565b005b3480156101b357600080fd5b506101ce60048036038101906101c9919061394f565b61111c565b6040516101e096959493929190613e45565b60405180910390f35b3480156101f557600080fd5b50610210600480360381019061020b919061390f565b61136f565b60405161022296959493929190614085565b60405180910390f35b34801561023757600080fd5b50610252600480360381019061024d919061390f565b611907565b005b34801561026057600080fd5b5061027b6004803603810190610276919061413c565b611e56565b60405161028d96959493929190614085565b60405180910390f35b6102b060048036038101906102ab91906141c1565b61240e565b6040516102bd919061423c565b60405180910390f35b3480156102d257600080fd5b506102ed60048036038101906102e8919061413c565b612843565b6040516102ff96959493929190614257565b60405180910390f35b34801561031457600080fd5b5061032f600480360381019061032a9190614417565b612c64565b60405161033c919061423c565b60405180910390f35b8160066000838152602001908152602001600020541461039a576040517f08c379a00000000000000000000000000000000000000000000000000000000081526004016103919061456a565b60405180910390fd5b60006103b0836001612e3590919063ffffffff16565b90503373ffffffffffffffffffffffffffffffffffffffff168160010160009054906101000a900473ffffffffffffffffffffffffffffffffffffffff1673ffffffffffffffffffffffffffffffffffffffff1614610444576040517f08c379a000000000000000000000000000000000000000000000000000000000815260040161043b906145fc565b60405180910390fd5b6006600083815260200190815260200160002060009055600c6000848152602001908152602001600020600081819054906101000a900463ffffffff168092919061048e9061464b565b91906101000a81548163ffffffff021916908363ffffffff1602179055505060006104c3836004612ecd90919063ffffffff16565b9050600960008260020160009054906101000a900473ffffffffffffffffffffffffffffffffffffffff1673ffffffffffffffffffffffffffffffffffffffff1673ffffffffffffffffffffffffffffffffffffffff168152602001908152602001600020600081819054906101000a900463ffffffff16809291906105489061464b565b91906101000a81548163ffffffff021916908363ffffffff1602179055505060008160020160009054906101000a900473ffffffffffffffffffffffffffffffffffffffff16905060008260060154905060008273ffffffffffffffffffffffffffffffffffffffff16826040516105bf906146a6565b60006040518083038185875af1925050503d80600081146105fc576040519150601f19603f3d011682016040523d82523d6000602084013e610601565b606091505b5050905080610645576040517f08c379a000000000000000000000000000000000000000000000000000000000815260040161063c90614707565b60405180910390fd5b610659866004612f6590919063ffffffff16565b50857fec59ec7badaba136e5e5c61eb40f664c254682415c2e42cad5bd1f46aa90f8dd8860405161068a919061423c565b60405180910390a250505050505050565b60606000805b600460000180549050811015610744576000600460000182815481106106ca576106c9614727565b5b9060005260206000209060070201905084600760008360000154815260200190815260200160002054146106fe5750610731565b428160050160049054906101000a900463ffffffff1663ffffffff16111561072f57828061072b90614756565b9350505b505b808061073c90614756565b9150506106a1565b5060008167ffffffffffffffff811115610761576107606142ec565b5b60405190808252806020026020018201604052801561078f5781602001602082028036833780820191505090505b5090506000915060005b600460000180549050811015610860576000600460000182815481106107c2576107c1614727565b5b9060005260206000209060070201905085600760008360000154815260200190815260200160002054146107f6575061084d565b428160050160049054906101000a900463ffffffff1663ffffffff16111561084b5780600001548385815181106108305761082f614727565b5b602002602001018181525050838061084790614756565b9450505b505b808061085890614756565b915050610799565b508092505050919050565b6000600b600083815260200190815260200160002060009054906101000a900463ffffffff1663ffffffff16146108d7576040517f08c379a00000000000000000000000000000000000000000000000000000000081526004016108ce90614837565b60405180910390fd5b60006108ed826001612e3590919063ffffffff16565b90503373ffffffffffffffffffffffffffffffffffffffff168160010160009054906101000a900473ffffffffffffffffffffffffffffffffffffffff1673ffffffffffffffffffffffffffffffffffffffff1614610981576040517f08c379a0000000000000000000000000000000000000000000000000000000008152600401610978906148c9565b60405180910390fd5b61099582600161320a90919063ffffffff16565b50600a60003373ffffffffffffffffffffffffffffffffffffffff1673ffffffffffffffffffffffffffffffffffffffff168152602001908152602001600020600081819054906101000a900463ffffffff16809291906109f59061464b565b91906101000a81548163ffffffff021916908363ffffffff160217905550505050565b60608060608060608060606000600c60008a815260200190815260200160002060009054906101000a900463ffffffff16600b60008b815260200190815260200160002060009054906101000a900463ffffffff16610a7791906148e9565b63ffffffff1690508067ffffffffffffffff811115610a9957610a986142ec565b5b604051908082528060200260200182016040528015610ac75781602001602082028036833780820191505090505b5097508067ffffffffffffffff811115610ae457610ae36142ec565b5b604051908082528060200260200182016040528015610b125781602001602082028036833780820191505090505b5096508067ffffffffffffffff811115610b2f57610b2e6142ec565b5b604051908082528060200260200182016040528015610b5d5781602001602082028036833780820191505090505b5095508067ffffffffffffffff811115610b7a57610b796142ec565b5b604051908082528060200260200182016040528015610ba85781602001602082028036833780820191505090505b5094508067ffffffffffffffff811115610bc557610bc46142ec565b5b604051908082528060200260200182016040528015610bf35781602001602082028036833780820191505090505b5093508067ffffffffffffffff811115610c1057610c0f6142ec565b5b604051908082528060200260200182016040528015610c3e5781602001602082028036833780820191505090505b5092508067ffffffffffffffff811115610c5b57610c5a6142ec565b5b604051908082528060200260200182016040528015610c895781602001602082028036833780820191505090505b5091506000805b600460000180549050811015610e5457600060046000018281548110610cb957610cb8614727565b5b906000526020600020906007020190508b816001015414610cda5750610e41565b80600001548b8481518110610cf257610cf1614727565b5b60200260200101818152505080600101548a8481518110610d1657610d15614727565b5b6020026020010181815250508060030154898481518110610d3a57610d39614727565b5b6020026020010181815250508060040154888481518110610d5e57610d5d614727565b5b6020026020010181815250508060050160009054906101000a900463ffffffff16878481518110610d9257610d91614727565b5b602002602001019063ffffffff16908163ffffffff16815250508060050160049054906101000a900463ffffffff16868481518110610dd457610dd3614727565b5b602002602001019063ffffffff16908163ffffffff1681525050806001015460076000836000015481526020019081526020016000205414858481518110610e1f57610e1e614727565b5b6020026020010190151590811515815250508280610e3c90614756565b935050505b8080610e4c90614756565b915050610c90565b505050919395979092949650565b600a600b600084815260200190815260200160002060009054906101000a900463ffffffff1663ffffffff1610610ece576040517f08c379a0000000000000000000000000000000000000000000000000000000008152600401610ec5906149bb565b60405180910390fd5b81600660008381526020019081526020016000205414610f23576040517f08c379a0000000000000000000000000000000000000000000000000000000008152600401610f1a9061456a565b60405180910390fd5b6000610f39836001612e3590919063ffffffff16565b90503373ffffffffffffffffffffffffffffffffffffffff168160010160009054906101000a900473ffffffffffffffffffffffffffffffffffffffff1673ffffffffffffffffffffffffffffffffffffffff1614610fcd576040517f08c379a0000000000000000000000000000000000000000000000000000000008152600401610fc490614a4d565b60405180910390fd5b6000610fe3836004612ecd90919063ffffffff16565b90508060050160009054906101000a900463ffffffff1663ffffffff16421061100b57600080fd5b6006600084815260200190815260200160002060009055600b6000858152602001908152602001600020600081819054906101000a900463ffffffff168092919061105590614a6d565b91906101000a81548163ffffffff021916908363ffffffff16021790555050600c6000858152602001908152602001600020600081819054906101000a900463ffffffff16809291906110a79061464b565b91906101000a81548163ffffffff021916908363ffffffff16021790555050836007600085815260200190815260200160002081905550827f01bc73444a1de7fde87f242676d52ebb9e3d193f9dd4837e1de58bc79e4210328560405161110e919061423c565b60405180910390a250505050565b600080606080606060008061113b886001612e3590919063ffffffff16565b905087816000015414611183576040517f08c379a000000000000000000000000000000000000000000000000000000000815260040161117a90614b0c565b60405180910390fd5b806000015496508060010160009054906101000a900473ffffffffffffffffffffffffffffffffffffffff1695508060020180546111c090614b5b565b80601f01602080910402602001604051908101604052809291908181526020018280546111ec90614b5b565b80156112395780601f1061120e57610100808354040283529160200191611239565b820191906000526020600020905b81548152906001019060200180831161121c57829003601f168201915b5050505050945080600301805461124f90614b5b565b80601f016020809104026020016040519081016040528092919081815260200182805461127b90614b5b565b80156112c85780601f1061129d576101008083540402835291602001916112c8565b820191906000526020600020905b8154815290600101906020018083116112ab57829003601f168201915b505050505093508060040180546112de90614b5b565b80601f016020809104026020016040519081016040528092919081815260200182805461130a90614b5b565b80156113575780601f1061132c57610100808354040283529160200191611357565b820191906000526020600020905b81548152906001019060200180831161133a57829003601f168201915b50505050509250806005015491505091939550919395565b606080606080606080600087118015611389575060328711155b6113c8576040517f08c379a00000000000000000000000000000000000000000000000000000000081526004016113bf90614bff565b60405180910390fd5b600088101580156113e157506001600001805490508811155b6113ea57600080fd5b6000611412888a6113fb9190614c1f565b60016000018054905061346d90919063ffffffff16565b90508067ffffffffffffffff81111561142e5761142d6142ec565b5b60405190808252806020026020018201604052801561145c5781602001602082028036833780820191505090505b5096508067ffffffffffffffff811115611479576114786142ec565b5b6040519080825280602002602001820160405280156114a75781602001602082028036833780820191505090505b5095508067ffffffffffffffff8111156114c4576114c36142ec565b5b6040519080825280602002602001820160405280156114f757816020015b60608152602001906001900390816114e25790505b5094508067ffffffffffffffff811115611514576115136142ec565b5b60405190808252806020026020018201604052801561154757816020015b60608152602001906001900390816115325790505b5093508067ffffffffffffffff811115611564576115636142ec565b5b60405190808252806020026020018201604052801561159757816020015b60608152602001906001900390816115825790505b5092508067ffffffffffffffff8111156115b4576115b36142ec565b5b6040519080825280602002602001820160405280156115e25781602001602082028036833780820191505090505b5091506000808a90505b828110156118fa5760006001600001828154811061160d5761160c614727565b5b9060005260206000209060060201905080600001548a848151811061163557611634614727565b5b6020026020010181815250508060010160009054906101000a900473ffffffffffffffffffffffffffffffffffffffff1689848151811061167957611678614727565b5b602002602001019073ffffffffffffffffffffffffffffffffffffffff16908173ffffffffffffffffffffffffffffffffffffffff16815250508060020180546116c290614b5b565b80601f01602080910402602001604051908101604052809291908181526020018280546116ee90614b5b565b801561173b5780601f106117105761010080835404028352916020019161173b565b820191906000526020600020905b81548152906001019060200180831161171e57829003601f168201915b505050505088848151811061175357611752614727565b5b602002602001018190525080600301805461176d90614b5b565b80601f016020809104026020016040519081016040528092919081815260200182805461179990614b5b565b80156117e65780601f106117bb576101008083540402835291602001916117e6565b820191906000526020600020905b8154815290600101906020018083116117c957829003601f168201915b50505050508784815181106117fe576117fd614727565b5b602002602001018190525080600401805461181890614b5b565b80601f016020809104026020016040519081016040528092919081815260200182805461184490614b5b565b80156118915780601f1061186657610100808354040283529160200191611891565b820191906000526020600020905b81548152906001019060200180831161187457829003601f168201915b50505050508684815181106118a9576118a8614727565b5b602002602001018190525080600501548584815181106118cc576118cb614727565b5b60200260200101818152505082806118e390614756565b9350505080806118f290614756565b9150506115ec565b5050509295509295509295565b8160076000838152602001908152602001600020541461195c576040517f08c379a000000000000000000000000000000000000000000000000000000000815260040161195390614ce7565b60405180910390fd5b6000611972826004612ecd90919063ffffffff16565b90508060050160049054906101000a900463ffffffff1663ffffffff164210156119d1576040517f08c379a00000000000000000000000000000000000000000000000000000000081526004016119c890614d79565b60405180910390fd5b60006119e7846001612e3590919063ffffffff16565b90508060010160009054906101000a900473ffffffffffffffffffffffffffffffffffffffff1673ffffffffffffffffffffffffffffffffffffffff163373ffffffffffffffffffffffffffffffffffffffff161480611a9657508160020160009054906101000a900473ffffffffffffffffffffffffffffffffffffffff1673ffffffffffffffffffffffffffffffffffffffff163373ffffffffffffffffffffffffffffffffffffffff16145b611ad5576040517f08c379a0000000000000000000000000000000000000000000000000000000008152600401611acc90614e31565b60405180910390fd5b8060010160009054906101000a900473ffffffffffffffffffffffffffffffffffffffff1673ffffffffffffffffffffffffffffffffffffffff163373ffffffffffffffffffffffffffffffffffffffff161415611ba1578060010160009054906101000a900473ffffffffffffffffffffffffffffffffffffffff1673ffffffffffffffffffffffffffffffffffffffff166108fc83600601549081150290604051600060405180830381858888f19350505050158015611b9b573d6000803e3d6000fd5b50611d1b565b8160020160009054906101000a900473ffffffffffffffffffffffffffffffffffffffff1673ffffffffffffffffffffffffffffffffffffffff163373ffffffffffffffffffffffffffffffffffffffff161415611d1a576000611c31600a611c233a600a8760060154611c159190614e80565b61346d90919063ffffffff16565b61346d90919063ffffffff16565b90508260020160009054906101000a900473ffffffffffffffffffffffffffffffffffffffff1673ffffffffffffffffffffffffffffffffffffffff166108fc829081150290604051600060405180830381858888f19350505050158015611c9d573d6000803e3d6000fd5b508160010160009054906101000a900473ffffffffffffffffffffffffffffffffffffffff1673ffffffffffffffffffffffffffffffffffffffff166108fc828560060154611cec9190614eb1565b9081150290604051600060405180830381858888f19350505050158015611d17573d6000803e3d6000fd5b50505b5b6007600084815260200190815260200160002060009055600960008360020160009054906101000a900473ffffffffffffffffffffffffffffffffffffffff1673ffffffffffffffffffffffffffffffffffffffff1673ffffffffffffffffffffffffffffffffffffffff168152602001908152602001600020600081819054906101000a900463ffffffff1680929190611db59061464b565b91906101000a81548163ffffffff021916908363ffffffff16021790555050600b6000858152602001908152602001600020600081819054906101000a900463ffffffff1680929190611e079061464b565b91906101000a81548163ffffffff021916908363ffffffff16021790555050611e3a836004612f6590919063ffffffff16565b50611e4f84600161320a90919063ffffffff16565b5050505050565b6060806060806060806000600a60008973ffffffffffffffffffffffffffffffffffffffff1673ffffffffffffffffffffffffffffffffffffffff16815260200190815260200160002060009054906101000a900463ffffffff1663ffffffff1690508067ffffffffffffffff811115611ed357611ed26142ec565b5b604051908082528060200260200182016040528015611f015781602001602082028036833780820191505090505b5096508067ffffffffffffffff811115611f1e57611f1d6142ec565b5b604051908082528060200260200182016040528015611f4c5781602001602082028036833780820191505090505b5095508067ffffffffffffffff811115611f6957611f686142ec565b5b604051908082528060200260200182016040528015611f9c57816020015b6060815260200190600190039081611f875790505b5094508067ffffffffffffffff811115611fb957611fb86142ec565b5b604051908082528060200260200182016040528015611fec57816020015b6060815260200190600190039081611fd75790505b5093508067ffffffffffffffff811115612009576120086142ec565b5b60405190808252806020026020018201604052801561203c57816020015b60608152602001906001900390816120275790505b5092508067ffffffffffffffff811115612059576120586142ec565b5b6040519080825280602002602001820160405280156120875781602001602082028036833780820191505090505b5091506000805b600160000180549050811015612402576000600160000182815481106120b7576120b6614727565b5b906000526020600020906006020190508a73ffffffffffffffffffffffffffffffffffffffff168160010160009054906101000a900473ffffffffffffffffffffffffffffffffffffffff1673ffffffffffffffffffffffffffffffffffffffff161461212457506123ef565b80600001548a848151811061213c5761213b614727565b5b6020026020010181815250508060010160009054906101000a900473ffffffffffffffffffffffffffffffffffffffff168984815181106121805761217f614727565b5b602002602001019073ffffffffffffffffffffffffffffffffffffffff16908173ffffffffffffffffffffffffffffffffffffffff16815250508060020180546121c990614b5b565b80601f01602080910402602001604051908101604052809291908181526020018280546121f590614b5b565b80156122425780601f1061221757610100808354040283529160200191612242565b820191906000526020600020905b81548152906001019060200180831161222557829003601f168201915b505050505088848151811061225a57612259614727565b5b602002602001018190525080600301805461227490614b5b565b80601f01602080910402602001604051908101604052809291908181526020018280546122a090614b5b565b80156122ed5780601f106122c2576101008083540402835291602001916122ed565b820191906000526020600020905b8154815290600101906020018083116122d057829003601f168201915b505050505087848151811061230557612304614727565b5b602002602001018190525080600401805461231f90614b5b565b80601f016020809104026020016040519081016040528092919081815260200182805461234b90614b5b565b80156123985780601f1061236d57610100808354040283529160200191612398565b820191906000526020600020905b81548152906001019060200180831161237b57829003601f168201915b50505050508684815181106123b0576123af614727565b5b602002602001018190525080600501548584815181106123d3576123d2614727565b5b60200260200101818152505082806123ea90614756565b935050505b80806123fa90614756565b91505061208e565b50505091939550919395565b6000600a600960003373ffffffffffffffffffffffffffffffffffffffff1673ffffffffffffffffffffffffffffffffffffffff16815260200190815260200160002060009054906101000a900463ffffffff1663ffffffff16106124a8576040517f08c379a000000000000000000000000000000000000000000000000000000000815260040161249f90614f7d565b60405180910390fd5b8263ffffffff168263ffffffff161180156124d65750610e1083836124cd9190614f9d565b63ffffffff1610155b612515576040517f08c379a000000000000000000000000000000000000000000000000000000000815260040161250c9061508f565b60405180910390fd5b428363ffffffff1611801561253d575061a8c0428463ffffffff1661253a9190614eb1565b10155b61257c576040517f08c379a000000000000000000000000000000000000000000000000000000000815260040161257390615147565b60405180910390fd5b600a600b600088815260200190815260200160002060009054906101000a900463ffffffff1663ffffffff16106125e8576040517f08c379a00000000000000000000000000000000000000000000000000000000081526004016125df906149bb565b60405180910390fd5b60006125fe876001612e3590919063ffffffff16565b90508060050154341015612647576040517f08c379a000000000000000000000000000000000000000000000000000000000815260040161263e906151d9565b60405180910390fd5b6126516003613486565b600061265d600361349c565b905060006040518061010001604052808381526020018a81526020013373ffffffffffffffffffffffffffffffffffffffff1681526020018981526020018881526020018763ffffffff1681526020018663ffffffff1681526020013481525090506126d5828260046134aa9092919063ffffffff16565b612714576040517f08c379a000000000000000000000000000000000000000000000000000000000815260040161270b90615245565b60405180910390fd5b886006600084815260200190815260200160002081905550600c60008a8152602001908152602001600020600081819054906101000a900463ffffffff168092919061275f90614a6d565b91906101000a81548163ffffffff021916908363ffffffff16021790555050600960003373ffffffffffffffffffffffffffffffffffffffff1673ffffffffffffffffffffffffffffffffffffffff168152602001908152602001600020600081819054906101000a900463ffffffff16809291906127dd90614a6d565b91906101000a81548163ffffffff021916908363ffffffff16021790555050887ff2c4fd593196bf9bbf9c80225837e14dcdd5a1f789df2a341a3f4d7181d4af418360405161282c919061423c565b60405180910390a281935050505095945050505050565b6060806060806060806000600960008973ffffffffffffffffffffffffffffffffffffffff1673ffffffffffffffffffffffffffffffffffffffff16815260200190815260200160002060009054906101000a900463ffffffff1663ffffffff1690508067ffffffffffffffff8111156128c0576128bf6142ec565b5b6040519080825280602002602001820160405280156128ee5781602001602082028036833780820191505090505b5096508067ffffffffffffffff81111561290b5761290a6142ec565b5b6040519080825280602002602001820160405280156129395781602001602082028036833780820191505090505b5095508067ffffffffffffffff811115612956576129556142ec565b5b6040519080825280602002602001820160405280156129845781602001602082028036833780820191505090505b5094508067ffffffffffffffff8111156129a1576129a06142ec565b5b6040519080825280602002602001820160405280156129cf5781602001602082028036833780820191505090505b5093508067ffffffffffffffff8111156129ec576129eb6142ec565b5b604051908082528060200260200182016040528015612a1a5781602001602082028036833780820191505090505b5092508067ffffffffffffffff811115612a3757612a366142ec565b5b604051908082528060200260200182016040528015612a655781602001602082028036833780820191505090505b5091506000805b600460000180549050811015612c5857600060046000018281548110612a9557612a94614727565b5b906000526020600020906007020190508a73ffffffffffffffffffffffffffffffffffffffff168160020160009054906101000a900473ffffffffffffffffffffffffffffffffffffffff1673ffffffffffffffffffffffffffffffffffffffff1614612b025750612c45565b80600001548a8481518110612b1a57612b19614727565b5b6020026020010181815250508060010154898481518110612b3e57612b3d614727565b5b6020026020010181815250508060030154888481518110612b6257612b61614727565b5b6020026020010181815250508060050160009054906101000a900463ffffffff16878481518110612b9657612b95614727565b5b602002602001019063ffffffff16908163ffffffff16815250508060050160049054906101000a900463ffffffff16868481518110612bd857612bd7614727565b5b602002602001019063ffffffff16908163ffffffff1681525050806001015460076000836000015481526020019081526020016000205414858481518110612c2357612c22614727565b5b6020026020010190151590811515815250508280612c4090614756565b935050505b8080612c5090614756565b915050612a6c565b50505091939550919395565b6000600a8060003373ffffffffffffffffffffffffffffffffffffffff1673ffffffffffffffffffffffffffffffffffffffff16815260200190815260200160002060009054906101000a900463ffffffff1663ffffffff1610612cfd576040517f08c379a0000000000000000000000000000000000000000000000000000000008152600401612cf490615323565b60405180910390fd5b612d076000613486565b6000612d13600061349c565b905060006040518060c001604052808381526020013373ffffffffffffffffffffffffffffffffffffffff168152602001888152602001878152602001868152602001858152509050612d72828260016135e79092919063ffffffff16565b50600a60003373ffffffffffffffffffffffffffffffffffffffff1673ffffffffffffffffffffffffffffffffffffffff168152602001908152602001600020600081819054906101000a900463ffffffff1680929190612dd290614a6d565b91906101000a81548163ffffffff021916908363ffffffff160217905550507f7953a3310142a9a0726ec6fd5129a712fff3b30a59304c3489524b0e6cffc52982604051612e20919061423c565b60405180910390a18192505050949350505050565b6000808360010160008481526020019081526020016000205490506000811415612e94576040517f08c379a0000000000000000000000000000000000000000000000000000000008152600401612e8b906153b5565b60405180910390fd5b83600001600182612ea59190614eb1565b81548110612eb657612eb5614727565b5b906000526020600020906006020191505092915050565b6000808360010160008481526020019081526020016000205490506000811415612f2c576040517f08c379a0000000000000000000000000000000000000000000000000000000008152600401612f2390615421565b60405180910390fd5b83600001600182612f3d9190614eb1565b81548110612f4e57612f4d614727565b5b906000526020600020906007020191505092915050565b600080836001016000848152602001908152602001600020549050600081146131fe576000600182612f979190614eb1565b9050600060018660000180549050612faf9190614eb1565b905081811461312f576000866000018281548110612fd057612fcf614727565b5b9060005260206000209060070201905080876000018481548110612ff757612ff6614727565b5b906000526020600020906007020160008201548160000155600182015481600101556002820160009054906101000a900473ffffffffffffffffffffffffffffffffffffffff168160020160006101000a81548173ffffffffffffffffffffffffffffffffffffffff021916908373ffffffffffffffffffffffffffffffffffffffff16021790555060038201548160030155600482015481600401556005820160009054906101000a900463ffffffff168160050160006101000a81548163ffffffff021916908363ffffffff1602179055506005820160049054906101000a900463ffffffff168160050160046101000a81548163ffffffff021916908363ffffffff16021790555060068201548160060155905050828760010160008360000154815260200190815260200160002081905550505b8560000180548061314357613142615441565b5b600190038181906000526020600020906007020160008082016000905560018201600090556002820160006101000a81549073ffffffffffffffffffffffffffffffffffffffff0219169055600382016000905560048201600090556005820160006101000a81549063ffffffff02191690556005820160046101000a81549063ffffffff02191690556006820160009055505090558560010160008681526020019081526020016000206000905560019350505050613204565b60009150505b92915050565b6000808360010160008481526020019081526020016000205490506000811461346157600060018261323c9190614eb1565b90506000600186600001805490506132549190614eb1565b90508181146133a857600086600001828154811061327557613274614727565b5b906000526020600020906006020190508087600001848154811061329c5761329b614727565b5b9060005260206000209060060201600082015481600001556001820160009054906101000a900473ffffffffffffffffffffffffffffffffffffffff168160010160006101000a81548173ffffffffffffffffffffffffffffffffffffffff021916908373ffffffffffffffffffffffffffffffffffffffff160217905550600282018160020190805461332f90614b5b565b61333a929190613755565b50600382018160030190805461334f90614b5b565b61335a929190613755565b50600482018160040190805461336f90614b5b565b61337a929190613755565b5060058201548160050155905050828760010160008360000154815260200190815260200160002081905550505b856000018054806133bc576133bb615441565b5b60019003818190600052602060002090600602016000808201600090556001820160006101000a81549073ffffffffffffffffffffffffffffffffffffffff021916905560028201600061341091906137e2565b60038201600061342091906137e2565b60048201600061343091906137e2565b6005820160009055505090558560010160008681526020019081526020016000206000905560019350505050613467565b60009150505b92915050565b600081831061347c578161347e565b825b905092915050565b6001816000016000828254019250508190555050565b600081600001549050919050565b60006134b6848461370f565b6135db5783600001829080600181540180825580915050600190039060005260206000209060070201600090919091909150600082015181600001556020820151816001015560408201518160020160006101000a81548173ffffffffffffffffffffffffffffffffffffffff021916908373ffffffffffffffffffffffffffffffffffffffff160217905550606082015181600301556080820151816004015560a08201518160050160006101000a81548163ffffffff021916908363ffffffff16021790555060c08201518160050160046101000a81548163ffffffff021916908363ffffffff16021790555060e082015181600601555050836000018054905084600101600085815260200190815260200160002081905550600190506135e0565b600090505b9392505050565b60006135f38484613732565b61370357836000018290806001815401808255809150506001900390600052602060002090600602016000909190919091506000820151816000015560208201518160010160006101000a81548173ffffffffffffffffffffffffffffffffffffffff021916908373ffffffffffffffffffffffffffffffffffffffff1602179055506040820151816002019080519060200190613692929190613822565b5060608201518160030190805190602001906136af929190613822565b5060808201518160040190805190602001906136cc929190613822565b5060a08201518160050155505083600001805490508460010160008581526020019081526020016000208190555060019050613708565b600090505b9392505050565b600080836001016000848152602001908152602001600020541415905092915050565b600080836001016000848152602001908152602001600020541415905092915050565b82805461376190614b5b565b90600052602060002090601f01602090048101928261378357600085556137d1565b82601f1061379457805485556137d1565b828001600101855582156137d157600052602060002091601f016020900482015b828111156137d05782548255916001019190600101906137b5565b5b5090506137de91906138a8565b5090565b5080546137ee90614b5b565b6000825580601f10613800575061381f565b601f01602090049060005260206000209081019061381e91906138a8565b5b50565b82805461382e90614b5b565b90600052602060002090601f0160209004810192826138505760008555613897565b82601f1061386957805160ff1916838001178555613897565b82800160010185558215613897579182015b8281111561389657825182559160200191906001019061387b565b5b5090506138a491906138a8565b5090565b5b808211156138c15760008160009055506001016138a9565b5090565b6000604051905090565b600080fd5b600080fd5b6000819050919050565b6138ec816138d9565b81146138f757600080fd5b50565b600081359050613909816138e3565b92915050565b60008060408385031215613926576139256138cf565b5b6000613934858286016138fa565b9250506020613945858286016138fa565b9150509250929050565b600060208284031215613965576139646138cf565b5b6000613973848285016138fa565b91505092915050565b600081519050919050565b600082825260208201905092915050565b6000819050602082019050919050565b6139b1816138d9565b82525050565b60006139c383836139a8565b60208301905092915050565b6000602082019050919050565b60006139e78261397c565b6139f18185613987565b93506139fc83613998565b8060005b83811015613a2d578151613a1488826139b7565b9750613a1f836139cf565b925050600181019050613a00565b5085935050505092915050565b60006020820190508181036000830152613a5481846139dc565b905092915050565b600081519050919050565b600082825260208201905092915050565b6000819050602082019050919050565b6000819050919050565b613a9b81613a88565b82525050565b6000613aad8383613a92565b60208301905092915050565b6000602082019050919050565b6000613ad182613a5c565b613adb8185613a67565b9350613ae683613a78565b8060005b83811015613b17578151613afe8882613aa1565b9750613b0983613ab9565b925050600181019050613aea565b5085935050505092915050565b600081519050919050565b600082825260208201905092915050565b6000819050602082019050919050565b600063ffffffff82169050919050565b613b6981613b50565b82525050565b6000613b7b8383613b60565b60208301905092915050565b6000602082019050919050565b6000613b9f82613b24565b613ba98185613b2f565b9350613bb483613b40565b8060005b83811015613be5578151613bcc8882613b6f565b9750613bd783613b87565b925050600181019050613bb8565b5085935050505092915050565b600081519050919050565b600082825260208201905092915050565b6000819050602082019050919050565b60008115159050919050565b613c3381613c1e565b82525050565b6000613c458383613c2a565b60208301905092915050565b6000602082019050919050565b6000613c6982613bf2565b613c738185613bfd565b9350613c7e83613c0e565b8060005b83811015613caf578151613c968882613c39565b9750613ca183613c51565b925050600181019050613c82565b5085935050505092915050565b600060e0820190508181036000830152613cd6818a6139dc565b90508181036020830152613cea81896139dc565b90508181036040830152613cfe8188613ac6565b90508181036060830152613d128187613ac6565b90508181036080830152613d268186613b94565b905081810360a0830152613d3a8185613b94565b905081810360c0830152613d4e8184613c5e565b905098975050505050505050565b613d65816138d9565b82525050565b600073ffffffffffffffffffffffffffffffffffffffff82169050919050565b6000613d9682613d6b565b9050919050565b613da681613d8b565b82525050565b600081519050919050565b600082825260208201905092915050565b60005b83811015613de6578082015181840152602081019050613dcb565b83811115613df5576000848401525b50505050565b6000601f19601f8301169050919050565b6000613e1782613dac565b613e218185613db7565b9350613e31818560208601613dc8565b613e3a81613dfb565b840191505092915050565b600060c082019050613e5a6000830189613d5c565b613e676020830188613d9d565b8181036040830152613e798187613e0c565b90508181036060830152613e8d8186613e0c565b90508181036080830152613ea18185613e0c565b9050613eb060a0830184613d5c565b979650505050505050565b600081519050919050565b600082825260208201905092915050565b6000819050602082019050919050565b613ef081613d8b565b82525050565b6000613f028383613ee7565b60208301905092915050565b6000602082019050919050565b6000613f2682613ebb565b613f308185613ec6565b9350613f3b83613ed7565b8060005b83811015613f6c578151613f538882613ef6565b9750613f5e83613f0e565b925050600181019050613f3f565b5085935050505092915050565b600081519050919050565b600082825260208201905092915050565b6000819050602082019050919050565b600082825260208201905092915050565b6000613fc182613dac565b613fcb8185613fa5565b9350613fdb818560208601613dc8565b613fe481613dfb565b840191505092915050565b6000613ffb8383613fb6565b905092915050565b6000602082019050919050565b600061401b82613f79565b6140258185613f84565b93508360208202850161403785613f95565b8060005b8581101561407357848403895281516140548582613fef565b945061405f83614003565b925060208a0199505060018101905061403b565b50829750879550505050505092915050565b600060c082019050818103600083015261409f81896139dc565b905081810360208301526140b38188613f1b565b905081810360408301526140c78187614010565b905081810360608301526140db8186614010565b905081810360808301526140ef8185614010565b905081810360a083015261410381846139dc565b9050979650505050505050565b61411981613d8b565b811461412457600080fd5b50565b60008135905061413681614110565b92915050565b600060208284031215614152576141516138cf565b5b600061416084828501614127565b91505092915050565b61417281613a88565b811461417d57600080fd5b50565b60008135905061418f81614169565b92915050565b61419e81613b50565b81146141a957600080fd5b50565b6000813590506141bb81614195565b92915050565b600080600080600060a086880312156141dd576141dc6138cf565b5b60006141eb888289016138fa565b95505060206141fc88828901614180565b945050604061420d88828901614180565b935050606061421e888289016141ac565b925050608061422f888289016141ac565b9150509295509295909350565b60006020820190506142516000830184613d5c565b92915050565b600060c082019050818103600083015261427181896139dc565b9050818103602083015261428581886139dc565b905081810360408301526142998187613ac6565b905081810360608301526142ad8186613b94565b905081810360808301526142c18185613b94565b905081810360a08301526142d58184613c5e565b9050979650505050505050565b600080fd5b600080fd5b7f4e487b7100000000000000000000000000000000000000000000000000000000600052604160045260246000fd5b61432482613dfb565b810181811067ffffffffffffffff82111715614343576143426142ec565b5b80604052505050565b60006143566138c5565b9050614362828261431b565b919050565b600067ffffffffffffffff821115614382576143816142ec565b5b61438b82613dfb565b9050602081019050919050565b82818337600083830152505050565b60006143ba6143b584614367565b61434c565b9050828152602081018484840111156143d6576143d56142e7565b5b6143e1848285614398565b509392505050565b600082601f8301126143fe576143fd6142e2565b5b813561440e8482602086016143a7565b91505092915050565b60008060008060808587031215614431576144306138cf565b5b600085013567ffffffffffffffff81111561444f5761444e6138d4565b5b61445b878288016143e9565b945050602085013567ffffffffffffffff81111561447c5761447b6138d4565b5b614488878288016143e9565b935050604085013567ffffffffffffffff8111156144a9576144a86138d4565b5b6144b5878288016143e9565b92505060606144c6878288016138fa565b91505092959194509250565b7f4164766572746973696e6720666f72207468652074617267657420696e76656e60008201527f746f7279206973206e6f742063757272656e746c7920756e646572207265766960208201527f6577000000000000000000000000000000000000000000000000000000000000604082015250565b6000614554604283613db7565b915061455f826144d2565b606082019050919050565b6000602082019050818103600083015261458381614547565b9050919050565b7f4f6e6c7920696e76656e746f7279206f776e6572732063616e2072656a65637460008201527f206164732e000000000000000000000000000000000000000000000000000000602082015250565b60006145e6602583613db7565b91506145f18261458a565b604082019050919050565b60006020820190508181036000830152614615816145d9565b9050919050565b7f4e487b7100000000000000000000000000000000000000000000000000000000600052601160045260246000fd5b600061465682613b50565b9150600082141561466a5761466961461c565b5b600182039050919050565b600081905092915050565b50565b6000614690600083614675565b915061469b82614680565b600082019050919050565b60006146b182614683565b9150819050919050565b7f4661696c656420746f207061796261636b206c6f636b2076616c756573000000600082015250565b60006146f1601d83613db7565b91506146fc826146bb565b602082019050919050565b60006020820190508181036000830152614720816146e4565b9050919050565b7f4e487b7100000000000000000000000000000000000000000000000000000000600052603260045260246000fd5b6000614761826138d9565b91507fffffffffffffffffffffffffffffffffffffffffffffffffffffffffffffffff8214156147945761479361461c565b5b600182019050919050565b7f596f752063616e27742064656c65746520616e20696e76656e746f727920696660008201527f2074686572652061726520616473206c65667420696e2074686520696e76656e60208201527f746f72792e000000000000000000000000000000000000000000000000000000604082015250565b6000614821604583613db7565b915061482c8261479f565b606082019050919050565b6000602082019050818103600083015261485081614814565b9050919050565b7f4f6e6c7920696e76656e746f7279206f776e6572732063616e2072656d6f766560008201527f20696e76656e746f72792e000000000000000000000000000000000000000000602082015250565b60006148b3602b83613db7565b91506148be82614857565b604082019050919050565b600060208201905081810360008301526148e2816148a6565b9050919050565b60006148f482613b50565b91506148ff83613b50565b92508263ffffffff038211156149185761491761461c565b5b828201905092915050565b7f457863656564656420746865206c696d6974206f66206164732074686174206360008201527f616e2062652064656c69766572656420746f20796f757220696e76656e746f7260208201527f792e000000000000000000000000000000000000000000000000000000000000604082015250565b60006149a5604283613db7565b91506149b082614923565b606082019050919050565b600060208201905081810360008301526149d481614998565b9050919050565b7f4f6e6c7920696e76656e746f7279206f776e6572732063616e20617070726f7660008201527f65206164732e0000000000000000000000000000000000000000000000000000602082015250565b6000614a37602683613db7565b9150614a42826149db565b604082019050919050565b60006020820190508181036000830152614a6681614a2a565b9050919050565b6000614a7882613b50565b915063ffffffff821415614a8f57614a8e61461c565b5b600182019050919050565b7f72657175657374656420696e76656e746f727920696420697320696e76616c6960008201527f6400000000000000000000000000000000000000000000000000000000000000602082015250565b6000614af6602183613db7565b9150614b0182614a9a565b604082019050919050565b60006020820190508181036000830152614b2581614ae9565b9050919050565b7f4e487b7100000000000000000000000000000000000000000000000000000000600052602260045260246000fd5b60006002820490506001821680614b7357607f821691505b60208210811415614b8757614b86614b2c565b5b50919050565b7f496e76656e746f72792063616e20626520726574726965766520757020746f2060008201527f3330206974656d73206174207468652073616d652074696d6500000000000000602082015250565b6000614be9603983613db7565b9150614bf482614b8d565b604082019050919050565b60006020820190508181036000830152614c1881614bdc565b9050919050565b6000614c2a826138d9565b9150614c35836138d9565b9250827fffffffffffffffffffffffffffffffffffffffffffffffffffffffffffffffff03821115614c6a57614c6961461c565b5b828201905092915050565b7f4f6e6c792061647320746861742061726520696e2074686520696e76656e746f60008201527f72792063616e20626520636f6c6c65637465642e000000000000000000000000602082015250565b6000614cd1603483613db7565b9150614cdc82614c75565b604082019050919050565b60006020820190508181036000830152614d0081614cc4565b9050919050565b7f4f6e6c79206164732074686174206861766520657870697265642063616e206260008201527f6520636f6c6c65637465642e0000000000000000000000000000000000000000602082015250565b6000614d63602c83613db7565b9150614d6e82614d07565b604082019050919050565b60006020820190508181036000830152614d9281614d56565b9050919050565b7f4f6e6c7920746865206f776e6572206f662074686520696e76656e746f72792060008201527f6f7220746865206f776e6572206f66207468652061642063616e20636f6c6c6560208201527f6374207468652061642e00000000000000000000000000000000000000000000604082015250565b6000614e1b604a83613db7565b9150614e2682614d99565b606082019050919050565b60006020820190508181036000830152614e4a81614e0e565b9050919050565b7f4e487b7100000000000000000000000000000000000000000000000000000000600052601260045260246000fd5b6000614e8b826138d9565b9150614e96836138d9565b925082614ea657614ea5614e51565b5b828204905092915050565b6000614ebc826138d9565b9150614ec7836138d9565b925082821015614eda57614ed961461c565b5b828203905092915050565b7f596f752068617665207265616368656420746865206d6178696d756d206e756d60008201527f626572206f662061647320796f752063616e206372656174652e20596f75206e60208201527f65656420746f2072656d6f766520756e77616e746564206164732e0000000000604082015250565b6000614f67605b83613db7565b9150614f7282614ee5565b606082019050919050565b60006020820190508181036000830152614f9681614f5a565b9050919050565b6000614fa882613b50565b9150614fb383613b50565b925082821015614fc657614fc561461c565b5b828203905092915050565b7f5468652064656c69766572792073746172742074696d65206d7573742062652060008201527f6265666f7265207468652064656c697665727920656e642074696d652c20616e60208201527f642061206d696e696d756d2064656c697665727920706572696f64206d75737460408201527f206265207365742e000000000000000000000000000000000000000000000000606082015250565b6000615079606883613db7565b915061508482614fd1565b608082019050919050565b600060208201905081810360008301526150a88161506c565b9050919050565b7f4974206973206e656365737361727920746f20616c6c6f77206120636572746160008201527f696e20616d6f756e74206f662074696d65206265666f7265207468652064697360208201527f747269627574696f6e207374617274732e000000000000000000000000000000604082015250565b6000615131605183613db7565b915061513c826150af565b606082019050919050565b6000602082019050818103600083015261516081615124565b9050919050565b7f6164207072696365206d757374206265206c6172676572207468616e20666c6f60008201527f6f722070726963652073657420627920696e76656e746f7279206f776e65722e602082015250565b60006151c3604083613db7565b91506151ce82615167565b604082019050919050565b600060208201905081810360008301526151f2816151b6565b9050919050565b7f616473206d75737420626520616464656420636f72726563746c790000000000600082015250565b600061522f601b83613db7565b915061523a826151f9565b602082019050919050565b6000602082019050818103600083015261525e81615222565b9050919050565b7f596f752068617665207265616368656420746865206d6178696d756d206e756d60008201527f626572206f6620696e76656e746f727920796f752063616e206372656174652e60208201527f20596f75206e65656420746f2072656d6f766520756e77616e74656420696e7660408201527f656e746f72792e00000000000000000000000000000000000000000000000000606082015250565b600061530d606783613db7565b915061531882615265565b608082019050919050565b6000602082019050818103600083015261533c81615300565b9050919050565b7f72657175657374656420696e76656e746f7279496420646f6573206e6f74206560008201527f7869737400000000000000000000000000000000000000000000000000000000602082015250565b600061539f602483613db7565b91506153aa82615343565b604082019050919050565b600060208201905081810360008301526153ce81615392565b9050919050565b7f726571756573746564206164496420646f6573206e6f74206578697374000000600082015250565b600061540b601d83613db7565b9150615416826153d5565b602082019050919050565b6000602082019050818103600083015261543a816153fe565b9050919050565b7f4e487b7100000000000000000000000000000000000000000000000000000000600052603160045260246000fdfea26469706673582212206f8b745fe9824bb14875d1358646382777625ad095923de78394fbd13823317064736f6c634300080b0033",
  "immutableReferences": {},
  "source": "// SPDX-License-Identifier: MIT\npragma solidity ^0.8.0;\n\nimport \"@openzeppelin/contracts/utils/Counters.sol\";\nimport \"@openzeppelin/contracts/utils/math/Math.sol\";\nimport \"./AdNetworkSet.sol\";\n\ncontract AdNetwork {\n    uint constant MAX_CREATABLE_AD_COUNT = 10;\n    uint constant MAX_CREATABLE_INVENTORY_COUNT = 10;\n    uint constant MAX_DELIVERABLE_AD_COUNT = 10;\n    /// @dev Delivery time must be at least 1 hour.\n    uint constant MIN_DELIVERY_TIME = 60 * 60;\n    /// @dev Since there is a high possibility that the screening will not be completed in time,\n    /// it is necessary to allow at least 12 hours before the distribution starts.\n    uint constant MIN_TIME_REQUIRED_TO_START_DELIVERY = 60 * 60 * 12;\n    uint constant MAX_CACHE_BACK_GAS_FEE = 10 wei;\n\n    using Counters for Counters.Counter;\n    using AdNetworkSet for AdNetworkSet.InventorySet;\n    using AdNetworkSet for AdNetworkSet.AdSet;\n    using Math for uint256;\n\n    Counters.Counter private _inventoryIds;\n    AdNetworkSet.InventorySet private _inventories;\n    Counters.Counter private _adIds;\n    AdNetworkSet.AdSet private _ads;\n\n    mapping(uint256 => uint256) private _requestApproval;\n    mapping(uint256 => uint256) private _adToInventory;\n    mapping(uint256 => uint256) private _waitAdToInventory;\n    mapping(address => uint32) private _ownerAdCount;\n    mapping(address => uint32) private _ownerInventoryCount;\n    mapping(uint256 => uint32) private _inventoryAdCount;\n    mapping(uint256 => uint32) private _inventoryWaitAdCount;\n\n    event AdReviewRequestSent(uint256 indexed inventoryId, bytes32 requestHash, bytes32 adHash);\n    event AdCreated(uint256 indexed inventoryId, uint256 adId);\n    event AdApproved(uint256 indexed adId, uint256 inventoryId);\n    event AdRejected(uint256 indexed adId, uint256 inventoryId);\n    event InventoryCreated(uint256 inventoryId);\n\n    constructor() {\n    }\n\n    function createAdInventory(string memory name, string memory uri, string memory publicKey, uint256 floorPrice) external returns (uint256) {\n        require(\n            _ownerInventoryCount[msg.sender] < MAX_CREATABLE_INVENTORY_COUNT,\n            \"You have reached the maximum number of inventory you can create. You need to remove unwanted inventory.\");\n        _inventoryIds.increment();\n        uint256 inventoryId = _inventoryIds.current();\n\n        AdNetworkSet.Inventory memory inventory = AdNetworkSet.Inventory(inventoryId, payable(msg.sender), name, uri, publicKey, floorPrice);\n        _inventories.add(inventoryId, inventory);\n        _ownerInventoryCount[msg.sender]++;\n        emit InventoryCreated(inventoryId);\n\n        return inventoryId;\n    }\n\n    function removeAdInventory(uint256 _inventoryId) external {\n        require(\n            _inventoryAdCount[_inventoryId] == 0,\n            \"You can't delete an inventory if there are ads left in the inventory.\");\n\n        AdNetworkSet.Inventory storage inventory = _inventories.get(_inventoryId);\n        require(\n            inventory.owner == msg.sender,\n            \"Only inventory owners can remove inventory.\");\n\n        _inventories.remove(_inventoryId);\n        _ownerInventoryCount[msg.sender]--;\n    }\n\n    function createAd(uint256 _inventoryId, bytes32 _hash, bytes32 _hashForDelivery, uint32 _start, uint32 _end) external payable returns (uint256) {\n        require(\n            _ownerAdCount[msg.sender] < MAX_CREATABLE_AD_COUNT,\n            \"You have reached the maximum number of ads you can create. You need to remove unwanted ads.\");\n        require(\n            _end > _start &&\n            _end - _start >= MIN_DELIVERY_TIME,\n            \"The delivery start time must be before the delivery end time, and a minimum delivery period must be set.\"\n        );\n        require(\n            _start > block.timestamp &&\n            _start - block.timestamp >= MIN_TIME_REQUIRED_TO_START_DELIVERY,\n            \"It is necessary to allow a certain amount of time before the distribution starts.\"\n        );\n        require(\n            _inventoryAdCount[_inventoryId] < MAX_DELIVERABLE_AD_COUNT,\n            \"Exceeded the limit of ads that can be delivered to your inventory.\"\n        );\n\n        AdNetworkSet.Inventory storage inventory = _inventories.get(_inventoryId);\n        require(msg.value >= inventory.floorPrice, \"ad price must be larger than floor price set by inventory owner.\");\n\n        _adIds.increment();\n        uint256 adId = _adIds.current();\n\n        AdNetworkSet.Ad memory ad = AdNetworkSet.Ad(adId, _inventoryId, payable(msg.sender), _hash, _hashForDelivery, _start, _end, msg.value);\n        require(_ads.add(adId, ad), \"ads must be added correctly\");\n\n        _requestApproval[adId] = _inventoryId;\n        _inventoryWaitAdCount[_inventoryId]++;\n        _ownerAdCount[msg.sender]++;\n\n        emit AdCreated(_inventoryId, adId);\n\n        return adId;\n    }\n\n    function approveAd(uint256 _inventoryId, uint256 _adId) external {\n        require(\n            _inventoryAdCount[_inventoryId] < MAX_DELIVERABLE_AD_COUNT,\n            \"Exceeded the limit of ads that can be delivered to your inventory.\");\n        require(\n            _requestApproval[_adId] == _inventoryId,\n            \"Advertising for the target inventory is not currently under review\");\n\n        AdNetworkSet.Inventory storage inventory = _inventories.get(_inventoryId);\n        require(\n            inventory.owner == msg.sender,\n            \"Only inventory owners can approve ads.\");\n\n        AdNetworkSet.Ad storage ad = _ads.get(_adId);\n        require(block.timestamp < ad.start);\n\n        delete _requestApproval[_adId];\n        _inventoryAdCount[_inventoryId]++;\n        _inventoryWaitAdCount[_inventoryId]--;\n        _adToInventory[_adId] = _inventoryId;\n\n        emit AdApproved(_adId, _inventoryId);\n    }\n\n    function rejectAd(uint256 _inventoryId, uint256 _adId) external {\n        require(\n            _requestApproval[_adId] == _inventoryId,\n            \"Advertising for the target inventory is not currently under review\");\n\n        AdNetworkSet.Inventory storage inventory = _inventories.get(_inventoryId);\n        require(\n            inventory.owner == msg.sender,\n            \"Only inventory owners can reject ads.\");\n\n        delete _requestApproval[_adId];\n        _inventoryWaitAdCount[_inventoryId]--;\n        AdNetworkSet.Ad storage ad = _ads.get(_adId);\n        _ownerAdCount[ad.owner]--;\n        address payable adOwner = ad.owner;\n        uint paybackPrice = ad.price;\n\n        (bool r,) = adOwner.call{value : paybackPrice}(\"\");\n        require(r, \"Failed to payback lock values\");\n        _ads.remove(_adId);\n\n        emit AdRejected(_adId, _inventoryId);\n    }\n\n    function collectAd(uint256 _inventoryId, uint _adId) external {\n        require(\n            _adToInventory[_adId] == _inventoryId,\n            \"Only ads that are in the inventory can be collected.\");\n\n        AdNetworkSet.Ad storage ad = _ads.get(_adId);\n        require(\n            block.timestamp >= ad.end,\n            \"Only ads that have expired can be collected.\");\n        AdNetworkSet.Inventory storage inventory = _inventories.get(_inventoryId);\n        require(\n            msg.sender == inventory.owner ||\n            msg.sender == ad.owner,\n            \"Only the owner of the inventory or the owner of the ad can collect the ad.\");\n\n        if (msg.sender == inventory.owner) {\n            inventory.owner.transfer(ad.price);\n        } else if (msg.sender == ad.owner) {\n            uint256 maxGasFee = (ad.price / 10).min(tx.gasprice).min(MAX_CACHE_BACK_GAS_FEE);\n            ad.owner.transfer(maxGasFee);\n            inventory.owner.transfer(ad.price - maxGasFee);\n        }\n\n        delete _adToInventory[_adId];\n        _ownerAdCount[ad.owner]--;\n        _inventoryAdCount[_inventoryId]--;\n        _ads.remove(_adId);\n        _inventories.remove(_inventoryId);\n    }\n\n    function getAdsOf(uint256 _inventoryId) external view returns (\n        uint256[] memory adIds,\n        uint256[] memory inventoryIds,\n        bytes32[] memory adHashes,\n        bytes32[] memory adHashForDeliveries,\n        uint32[] memory starts,\n        uint32[] memory ends,\n        bool[] memory approved\n    ) {\n        uint inventoryAdCount = _inventoryAdCount[_inventoryId] + _inventoryWaitAdCount[_inventoryId];\n        adIds = new uint256[](inventoryAdCount);\n        inventoryIds = new uint256[](inventoryAdCount);\n        adHashes = new bytes32[](inventoryAdCount);\n        adHashForDeliveries = new bytes32[](inventoryAdCount);\n        starts = new uint32[](inventoryAdCount);\n        ends = new uint32[](inventoryAdCount);\n        approved = new bool[](inventoryAdCount);\n\n        uint adIdx = 0;\n        for (uint idx = 0; idx < _ads._values.length; idx++) {\n            AdNetworkSet.Ad storage ad = _ads._values[idx];\n            if (ad.inventoryId != _inventoryId) {\n                continue;\n            }\n\n            adIds[adIdx] = ad.adId;\n            inventoryIds[adIdx] = ad.inventoryId;\n            adHashes[adIdx] = ad.hash;\n            adHashForDeliveries[adIdx] = ad.hashForDelivery;\n            starts[adIdx] = ad.start;\n            ends[adIdx] = ad.end;\n            approved[adIdx] = _adToInventory[ad.adId] == ad.inventoryId;\n            adIdx++;\n        }\n    }\n\n    function getAdsByOwnerAddress(address _ownerAddress) external view returns (\n        uint256[] memory adIds,\n        uint256[] memory inventoryIds,\n        bytes32[] memory adHashes,\n        uint32[] memory starts,\n        uint32[] memory ends,\n        bool[] memory approved\n    ) {\n        uint inventoryAdCount = _ownerAdCount[_ownerAddress];\n\n        adIds = new uint256[](inventoryAdCount);\n        inventoryIds = new uint256[](inventoryAdCount);\n        adHashes = new bytes32[](inventoryAdCount);\n        starts = new uint32[](inventoryAdCount);\n        ends = new uint32[](inventoryAdCount);\n        approved = new bool[](inventoryAdCount);\n\n        uint adIdx = 0;\n        for (uint idx = 0; idx < _ads._values.length; idx++) {\n            AdNetworkSet.Ad storage ad = _ads._values[idx];\n            if (ad.owner != _ownerAddress) {\n                continue;\n            }\n\n            adIds[adIdx] = ad.adId;\n            inventoryIds[adIdx] = ad.inventoryId;\n            adHashes[adIdx] = ad.hash;\n            starts[adIdx] = ad.start;\n            ends[adIdx] = ad.end;\n            approved[adIdx] = _adToInventory[ad.adId] == ad.inventoryId;\n            adIdx++;\n        }\n    }\n\n    function getInventoriesByOwnerAddress(address _ownerAddress) external view returns (\n        uint256[] memory inventoryIds,\n        address[] memory owners,\n        string[] memory names,\n        string[] memory uris,\n        string[] memory publicKeys,\n        uint256[] memory floorPrices\n    ) {\n        uint ownerInventoryCount = _ownerInventoryCount[_ownerAddress];\n\n        inventoryIds = new uint256[](ownerInventoryCount);\n        owners = new address[](ownerInventoryCount);\n        names = new string[](ownerInventoryCount);\n        uris = new string[](ownerInventoryCount);\n        publicKeys = new string[](ownerInventoryCount);\n        floorPrices = new uint256[](ownerInventoryCount);\n\n        uint inventoryIdx = 0;\n        for (uint idx = 0; idx < _inventories._values.length; idx++) {\n            AdNetworkSet.Inventory storage inventory = _inventories._values[idx];\n            if (inventory.owner != _ownerAddress) {\n                continue;\n            }\n\n            inventoryIds[inventoryIdx] = inventory.inventoryId;\n            owners[inventoryIdx] = inventory.owner;\n            names[inventoryIdx] = inventory.name;\n            uris[inventoryIdx] = inventory.uri;\n            publicKeys[inventoryIdx] = inventory.publicKey;\n            floorPrices[inventoryIdx] = inventory.floorPrice;\n            inventoryIdx++;\n        }\n    }\n\n    function getInventory(uint256 _inventoryId) external view returns (\n        uint256 inventoryId,\n        address owner,\n        string memory name,\n        string memory uri,\n        string memory publicKey,\n        uint256 floorPrice\n    ) {\n        AdNetworkSet.Inventory storage inventory = _inventories.get(_inventoryId);\n        require(inventory.inventoryId == _inventoryId, \"requested inventory id is invalid\");\n\n        inventoryId = inventory.inventoryId;\n        owner = inventory.owner;\n        name = inventory.name;\n        uri = inventory.uri;\n        publicKey = inventory.publicKey;\n        floorPrice = inventory.floorPrice;\n    }\n\n    function getInventories(uint offset, uint limit) external view returns (\n        uint256[] memory inventoryIds,\n        address[] memory owners,\n        string[] memory names,\n        string[] memory uris,\n        string[] memory publicKeys,\n        uint256[] memory floorPrices\n    ) {\n        require(limit > 0 && limit <= 50, \"Inventory can be retrieve up to 30 items at the same time\");\n        require(offset >= 0 && offset <= _inventories._values.length);\n\n        uint upper = _inventories._values.length.min(offset + limit);\n        inventoryIds = new uint256[](upper);\n        owners = new address[](upper);\n        names = new string[](upper);\n        uris = new string[](upper);\n        publicKeys = new string[](upper);\n        floorPrices = new uint256[](upper);\n\n        uint inventoryIdx = 0;\n        for (uint idx = offset; idx < upper; idx++) {\n            AdNetworkSet.Inventory storage inventory = _inventories._values[idx];\n\n            inventoryIds[inventoryIdx] = inventory.inventoryId;\n            owners[inventoryIdx] = inventory.owner;\n            names[inventoryIdx] = inventory.name;\n            uris[inventoryIdx] = inventory.uri;\n            publicKeys[inventoryIdx] = inventory.publicKey;\n            floorPrices[inventoryIdx] = inventory.floorPrice;\n            inventoryIdx++;\n        }\n    }\n\n    function getExpiredAdIds(uint256 _inventoryId) external view returns (uint256[] memory) {\n        uint expireCounts = 0;\n        for (uint idx = 0; idx < _ads._values.length; idx++) {\n            AdNetworkSet.Ad storage ad = _ads._values[idx];\n            if (_adToInventory[ad.adId] != _inventoryId) {\n                continue;\n            }\n            if (ad.end > block.timestamp) {\n                expireCounts++;\n            }\n        }\n\n        uint256[] memory expiredAdIds = new uint256[](expireCounts);\n        expireCounts = 0;\n        for (uint idx = 0; idx < _ads._values.length; idx++) {\n            AdNetworkSet.Ad storage ad = _ads._values[idx];\n            if (_adToInventory[ad.adId] != _inventoryId) {\n                continue;\n            }\n            if (ad.end > block.timestamp) {\n                expiredAdIds[expireCounts] = ad.adId;\n                expireCounts++;\n            }\n        }\n        return expiredAdIds;\n    }\n\n}\n",
  "sourcePath": "/Users/admin/IdeaProjects/blockchain-adnetwork/adnetwork-contracts/contracts/AdNetwork.sol",
  "compiler": {
    "name": "solc",
    "version": "0.8.11+commit.d7f03943.Emscripten.clang"
  },
  "schemaVersion": "3.4.4",
  "updatedAt": "2022-02-20T08:11:22.805Z",
  "networkType": "ethereum",
  "devdoc": {
    "kind": "dev",
    "methods": {},
    "stateVariables": {
      "MIN_DELIVERY_TIME": {
        "details": "Delivery time must be at least 1 hour."
      },
      "MIN_TIME_REQUIRED_TO_START_DELIVERY": {
        "details": "Since there is a high possibility that the screening will not be completed in time, it is necessary to allow at least 12 hours before the distribution starts."
      }
    },
    "version": 1
  },
  "userdoc": {
    "kind": "user",
    "methods": {},
    "version": 1
  }
}